:020000040800F2
:10000000600C00209101000803220008991F0008DD
:1000100001220008B9060008012C000800000000B9
:10002000000000000000000000000000772500082C
:10003000F30600080000000075250008CD25000823
:10004000AB010008AB010008AB010008AB010008E0
:10005000AB010008AB010008AB010008AB010008D0
:10006000AB010008AB010008AB010008AB010008C0
:10007000AB010008AB010008AB010008BD06000899
:10008000AB010008AB010008AB010008AB010008A0
:10009000AB010008AB010008AB010008AB01000890
:1000A000AB010008AB010008AB010008AB01000880
:1000B00031260008AB010008AB010008AB010008C5
:1000C000AB010008AB010008AB010008AB01000860
:1000D000AB010008AD2B0008AB010008AB01000824
:1000E000AB010008AB010008AB01000800F002F80A
:1000F00000F03FF80AA090E8000C82448344AAF183
:100100000107DA4501D100F034F8AFF2090EBAE880
:100110000F0013F0010F18BFFB1A43F0010318473B
:100120006C4F00008C4F0000103A24BF78C878C193
:10013000FAD8520724BF30C830C144BF04680C60ED
:10014000704700000023002400250026103A28BF35
:1001500078C1FBD8520728BF30C148BF0B60704739
:10016000732900F06A82002070471FB51FBD10B5CB
:1001700010BD00F06CFA1146FFF7F7FF02F080FDAA
:1001800000F08AFA03B4FFF7F2FF03BC00F08EFA26
:100190000948804709480047FEE7FEE7FEE7FEE71B
:1001A000FEE7FEE7FEE7FEE7FEE7FEE70448054957
:1001B000054A064B704700002F260008ED00000896
:1001C00060060020600C002060080020600800200D
:1001D0000FB47CB50C0009AA009001D02044401E49
:1001E000084B7B4469460190089800F0F4F90546F5
:1001F0001CB10020694600F001FA28467CBC5DF87D
:1002000014FB00002104000070B50C460546012ACD
:1002100005D02878800600D5EA69002302E0012392
:1002200005E05B1C934202D2E05C0028F9D1A8698A
:10023000E618C01AA861286A184428622846AFF355
:10024000008004E0D5E9012114F8010B9047B44285
:10025000F8D32846AFF3008070BD00002DE9F05FB1
:10026000894604464FF0000ADFF874B1FB44C0F839
:1002700020A02046E1688847002874D0252806D0B1
:10028000D4E901219047206A401C2062F1E7002652
:100290005F462046E16888472028054607DB312D68
:1002A00005D2781910F8200C08B10643F1E7B00721
:1002B00001D526F00406C4F81CA00027C4F818A035
:1002C0002A2D09D0284602F0ACFC38B304EB87088D
:1002D000303DC8F8185019E059F8041B204604EBCB
:1002E00087029161E1688847012F054618D1E069CE
:1002F000002820DA26F020061DE0D8F8180000EBD0
:10030000800005EB40003038C8F818002046E1684E
:100310008847054602F085FC0028EED1012F0AD05F
:100320002E2D08D12046E16888477F1C0546022F04
:1003300046F02006C4DBA069002803DA404246F0FC
:100340000106A061F00701D026F010066C2D0BD03D
:10035000682D09D04C2D39D06A2D35D0742D35D06B
:100360007A2D33D016E038E0E1682F4620468847E2
:10037000B842054609D16C2F26D04FF48060E16861
:10038000064320468847054604E06C2F1AD04FF4F8
:10039000807006430DB3A5F14100192802D820351D
:1003A00046F400664A462946204626604E46FFF738
:1003B000D7FE80B101280BD0F61D26F0070000F112
:1003C000080956E74020E4E78020D8E70020D6E778
:1003D00006F104094DE7284652E7206ABDE8F09F80
:1003E000084E000030B505460B462A4613F8014B6F
:1003F00012F8010B08B1A042F8D01CB1002802D0BD
:100400006D1CF1E7284630BD10B5431C02E010F822
:10041000011B71B18107FAD14FF0013202C88C1A69
:100420008C4314EAC211F9D0C01A0A0603D0C01EC8
:1004300010BDC01A10BD0A0401D0801E10BD0902F3
:10044000FCD0401E10BD032A40F2308010F0030C97
:1004500000F0158011F8013BBCF1020F624498BF17
:1004600011F801CB00F8013B38BF11F8013BA2F1B4
:10047000040298BF00F801CB38BF00F8013B11F02F
:10048000030300F02580083AC0F0088051F8043BCF
:10049000083A51F804CBA0E80810F5E7121D5CBF3C
:1004A00051F8043B40F8043BAFF30080D20724BF6F
:1004B00011F8013B11F801CB48BF11F8012B24BF03
:1004C00000F8013B00F801CB48BF00F8012B704752
:1004D00010B5203AC0F00B80B1E81850203AA0E8DF
:1004E0001850B1E81850A0E81850BFF4F5AF5FEA13
:1004F000027C24BFB1E81850A0E8185044BF18C9C6
:1005000018C0BDE810405FEA827C24BF51F8043B6C
:1005100040F8043B08BF7047D20728BF31F8023BC0
:1005200048BF11F8012B28BF20F8023B48BF00F854
:10053000012B70474FF000020429C0F0128010F028
:10054000030C00F01B80CCF1040CBCF1020F18BFAF
:1005500000F8012BA8BF20F8022BA1EB0C0100F042
:100560000DB85FEAC17C24BF00F8012B00F8012B15
:1005700048BF00F8012B70474FF0000200B513464A
:1005800094469646203922BFA0E80C50A0E80C50B3
:10059000B1F12001BFF4F7AF090728BFA0E80C5064
:1005A00048BF0CC05DF804EB890028BF40F8042B5D
:1005B00008BF704748BF20F8022B11F0804F18BFCA
:1005C00000F8012B704770477047704701694A1C5B
:1005D00002610878704700B58FB0CDE90131002184
:1005E000059105497944CDE9031011466846FFF7A6
:1005F00035FE0FB000BD0000E5FFFFFF0A6802F8FE
:10060000010B0A607047D1E900239A4202D2531CC1
:100610000B601070704710B5436913B1AFF30080E1
:1006200001E0FFF7F1FD012010BD127800F1240177
:100630000A7000224A700122EDE711684FF0FF3284
:10064000E9E7000000487047FC0500207047754648
:10065000FFF7F8FFAE4605006946534620F0070055
:10066000854618B020B5FFF7A1FDBDE820404FF04A
:1006700000064FF000074FF000084FF0000B21F08C
:100680000701AC46ACE8C009ACE8C009ACE8C00959
:10069000ACE8C0098D46704710B50446AFF3008042
:1006A0002046BDE81040FFF76DBD0000014918204D
:1006B000ABBEFEE726000200FEE70000014800F0A6
:1006C0004BB90000B800002030B590F8405001242C
:1006D000AC40C56B6C60046863604368102B0368B2
:1006E00003D099600068C26030BD9A600068C16044
:1006F00030BD7047054806494FF47A720068B0FB78
:10070000F1F0044908605043486070470C00002035
:1007100040420F001C00002010B580210348FFF765
:1007200009FF03490020088010BD00007C0500205F
:100730002400002000B5A1B008A000900AA30DA2DB
:10074000802101A8FFF744FD10A101A800F022F8C4
:10075000002800D0012021B000BD00006A643731BC
:1007600037373138000000006A696E6764613833DA
:100770003000000041542B43574A41503D2225731D
:10078000222C222573220D0A00000000474F54201E
:10079000495000002DE9F043A1B0894605464FF4C9
:1007A0007A74FFF7B9FF2846FFF72EFE82B2C823FE
:1007B0002946224801F049FB322002F039FA204F45
:1007C0000026E8462BE000BF00F042F820B3C82026
:1007D00002F02EFA3D887F2D00D97F252A4619493F
:1007E0006846FFF730FE08F80560B9F100000AD04E
:1007F00001466846FFF7F6FD28B1FFF78DFF01209F
:1008000021B0BDE8F08310A16846FFF7EBFD18B1F9
:10081000FFF782FF0020F3E70A2002F009FA641EC6
:10082000A4B2D1D23C887F2C00D97F24224605492E
:100830006846FFF708FE0DF80460E9E77000002045
:10084000240000207C0500204552524F5200000039
:100850000748018839B101884288914205D10021B9
:100860004180012070470020704701884180FAE7ED
:100870002400002072B6FEE710B590F82110002287
:10088000022905D00421816380F82020012010BDB9
:1008900001680B6823F00E030B6001680B6823F0FE
:1008A00001030B6090F84030C46B012101FA03F39F
:1008B000636080F8211080F82020104610BD0000F1
:1008C00010B590F821100024022903D0042181637F
:1008D00001243DE001680A6822F00E020A60016806
:1008E0000A6822F001020A601A4A0168914201D1A5
:1008F000012121E0174A1432914201D110211BE05D
:10090000144A2832914201D1891515E0114A3C322E
:10091000914201D189140FE00E4A5032914202D126
:100920004FF4803108E00B4A6432914202D14FF417
:10093000801101E04FF08071064A083A51600121B0
:1009400080F82110002180F82010416B01B1884708
:10095000204610BD080002402DE9F05FC16B0C6815
:1009600001680B68D0F840C0042202FA0CF2494D2D
:10097000DFF824A1494E4A4FDFF828B1DFF828E11B
:1009800022422CD05A072AD50A68920603D40A6854
:1009900022F004020A600168A94201D1042219E090
:1009A000514501D1402215E0B14202D14FF480629D
:1009B00010E0B94202D14FF480420BE0594502D118
:1009C0004FF4802206E0714502D14FF4800201E02D
:1009D0004FF080622F4908394A60C16A3BE04FF00E
:1009E000020808FA0CF818EA040F4FF000094FF05B
:1009F000010235D05FEA837832D50B689B0605D4B7
:100A00000B6823F00A030B6080F821200168A942DB
:100A100001D1022219E0514501D1202215E0B14255
:100A200002D14FF4007210E0B94202D14FF40052EB
:100A30000BE0594502D14FF4003206E0714502D176
:100A40004FF4001201E04FF00072124908394A6079
:100A500080F82090816A00291AD0BDE8F05F08472D
:100A6000082505FA0CF5254212D01B0710D50B6896
:100A700023F00E030B6090F84010C36B02FA01F1F3
:100A80005960826380F8212080F82090016BE2E7B2
:100A9000BDE8F09F080002401C0002403000024008
:100AA00044000240580002406C00024030B528B3B8
:100AB00008C8134914221944B1FBF2F18900C1633B
:100AC00010498163022141771A6843F6F0718A4325
:100AD000D0E900142143D0E902452C4321430469A5
:100AE0002143446921438469214311431960002152
:100AF0004163012242770177084630BD012030BDB5
:100B0000F8FFFDBF0000024070B5044690F82000D9
:100B1000002501280CD0012084F8200094F82160E1
:100B20000020012E06D084F820000225284670BD42
:100B3000022070BD022684F82160A0632068066848
:100B400026F0010606602046FFF7BEFDE06A002899
:100B50002068016802D041F00E0106E021F0040196
:100B600001602068016841F00A01016020680168A5
:100B700041F001010160D9E770B5044600F004F9C5
:100B80000546601C02D004480078044400F0FCF8DC
:100B9000401BA042FAD370BD000000202DE9F84FA1
:100BA000DFF8B8910024A9F1040B23460F2709F1BF
:100BB000040AABF1040EC9E00125A5402A40AA426F
:100BC0007DD1674ED1F804C0ACEB0608B44532D0F5
:100BD00014DCBCF1030F3AD009DCBCF1000F2AD0C1
:100BE000BCF1010F1CD0BCF1020F31D11DE0BCF1F2
:100BF000110F17D0BCF1120F2AD119E0B8F5881FD8
:100C000019D006DCB8F5803F15D0B8F5801F1FD18C
:100C100011E0B8F5001F0ED0B8F5041F18D10AE096
:100C2000CB6815E0CB681B1D12E0CB6808330FE0E2
:100C3000CB680C330CE08B682BB1012B4FF0080311
:100C400003D0456104E0042302E0056100E00023D5
:100C5000FF2A01D8064601E000F104064FEA8405A8
:100C600001D9A5F12005D6F8008007FA05FC28EA8D
:100C70000C0803FA05F548EA0508C6F800804D6837
:100C8000ED0062D5374DAE6946F00106AE61AD6943
:100C900024F0030605F001050095334D06EB050C25
:100CA000DCF80850A607360F07FA06F825EA08050B
:100CB000DFF8B880404503D14FF0000817E044E06A
:100CC000DFF8AC80404502D14FF001080FE0DFF8BB
:100CD000A480404502D14FF0020808E0DFF8988078
:100CE000404502D14FF0030801E04FF0040808FA34
:100CF00006F848EA0508CCF808804D68D9F8006085
:100D0000ED024D4601D5164300E096432E604D6836
:100D1000DAF80060AD02554601D5164300E096436F
:100D20002E604D68DBF80060AD035D4601D51643CB
:100D300000E096432E604D68DEF80060ED037546D6
:100D400001D5164300E096432E60641C0D682A46C8
:100D5000E5407FF431AFBDE8F88F000008040140A2
:100D60000000111000100240000001400008014086
:100D7000000C014000100140001401400AB1016163
:100D800070470904FBE700000148806870470000D5
:100D90000000002002488168027811448160704799
:100DA00000000020074810B5016841F01001016003
:100DB000032000F075F80F2000F006F800F024F88A
:100DC000002010BD0020024070B50D4D04464FF4C8
:100DD0007A712878B1FBF0F00A490968B1FBF0F0AC
:100DE00000F0DCFA48B9102C07D200222146501E30
:100DF00000F036F800206C6070BD012070BD00006E
:100E0000000000200C0000200C4808B5816941F06A
:100E100001018161816901F001010091C16941F025
:100E20008051C161C06900F0805000900448416861
:100E300021F0E06141F00071416008BD0010024006
:100E400000000140002809DB00F01F020121914051
:100E50004009800000F1E020C0F800117047000058
:100E6000F0B40E4B1B680C46C3F30223C3F1070515
:100E7000042D00D90425191D072901D2002300E003
:100E8000DB1E012606FA05F1491E214099409E40CD
:100E9000761E16403143F0BC01F0B3BE0CED00E00D
:100EA000064900F0070208684FF6FF03184040EAC1
:100EB0000220034A10430860704700000CED00E078
:100EC0000000FA052DE9F0470F46050061D0434EBA
:100ED000306800F00700B84209D2306820F00700FF
:100EE00038433060306800F00700B84251D12868BC
:100EF0003B4C810712D5400703D5606840F4E060A1
:100F000060602878000703D5606840F46050606036
:100F10006068A96820F0F000084360602878C00786
:100F200028D06868012810D02168022810D08907CD
:100F300000292EDA616821F0030101436160FFF7A7
:100F400023FF804641F288390DE021688903EFE7ED
:100F50008901EDE7FFF718FFA0EB0801494502D929
:100F60000320BDE8F0876068696800F00C00B0EB12
:100F7000810FEFD1306800F00700B8420BD930681C
:100F800020F0070038433060306800F00700B842B6
:100F900001D00120E5E72878400705D56068E968B9
:100FA00020F4E060084360602878000706D5606898
:100FB000296920F4605040EAC100606000F038F810
:100FC0006168084AC1F30311515CC84006490860D2
:100FD00006480068FFF7F8FE0020C2E70020024044
:100FE00000100240783600080C00002004000020A9
:100FF0000448054900684968044AC1F30221515C6C
:10100000C84070470C0000200010024088360008DD
:101010000448054900684968044AC1F3C221515C8B
:10102000C84070470C0000200010024088360008BD
:101030000E4A51680E4801F00C03042B11D0082B06
:101040000FD10C48C1F38343C903C05C0AD5516872
:10105000084AC1F34041921E515C054A5043B0FB1F
:10106000F1F0704704494843704700000010024007
:1010700000127A006836000800093D002DE9F84F9B
:10108000040070D02078C04DC00749D06868C0F314
:101090008100012807D06868C0F38100022809D1C7
:1010A0006868C00306D52868800339D560680028C1
:1010B000E7D035E06068B0F5803F0BD010B1B0F5F7
:1010C000A02F11D0286820F480302860286820F4F0
:1010D000802002E0286840F480302860606890B189
:1010E000FFF752FE06460AE0286840F48020286098
:1010F000F0E700BFFFF748FE801B642873D828681C
:101100008003F7D50CE0FFF73FFE064605E000BF81
:10111000FFF73AFE801B6428F0D828688003F7D4D4
:1011200020789A4E80074FF001094FF0000839D51A
:10113000686810F00C0F07D06868C0F381000228BF
:1011400009D16868C00306D42868800714D52069CF
:10115000012808D110E02069B0B1C6F80090FFF76F
:1011600013FE074605E00AE1FFF70EFEC01B02284A
:10117000C4D828688007F7D52868616920F0F8008E
:1011800040EAC10028600DE0C6F80080FFF7FCFDD2
:10119000074604E0FFF7F8FDC01B022823D82868A3
:1011A0008007F7D4207800072CD57948A169D9B1F8
:1011B000C0F80090FFF7E8FD074604E0FFF7E4FD04
:1011C000C01B02280FD8686A8007F7D571484FF412
:1011D000FA510068B0FBF1F0009000BF0098411E8A
:1011E0000091FAD20EE080E0C0F80080FFF7CCFD5D
:1011F000074604E0FFF7C8FDC01B022875D8686ADF
:101200008007F7D42078400760D5E8690027C00040
:1012100008D4E86940F08050E861E869012700F0EF
:10122000805000905C480168C90513D4016883466A
:1012300041F480710160FFF7A7FD824606E000BF20
:10124000FFF7A2FDA0EB0A0064284ED8DBF80000EF
:10125000C005F5D5E06801280AD008B1052813D0EB
:10126000286A20F001002862286A20F0040002E0C9
:10127000286A40F001002862E06841F2883B98B19A
:10128000FFF782FD82460BE0286A40F004002862E6
:10129000EEE700BFFFF778FDA0EB0A0159455AD8E9
:1012A000286A8007F6D50CE0FFF76EFD824605E060
:1012B000FFF76AFDA0EB0A0159454CD8286A800760
:1012C000F6D41FB1E86920F08050E861E06988B386
:1012D0006968C1F38101022944D00228C6F8608000
:1012E00004D0FFF751FD044638E034E0FFF74CFD31
:1012F000074604E0FFF748FDC01B02282BD82868EA
:101300008001F7D4206AB0F5803F05D16868A168F4
:1013100020F4003008436860D4E908010843696894
:1013200021F4741108436860C6F86090FFF72CFD43
:10133000044606E025E000BFFFF726FD001B02285B
:1013400009D828688001F7D51BE000BFFFF71CFD16
:10135000001B022802D90320BDE8F88F286880010D
:10136000F4D40EE00128F7D06868226A00F48031D6
:10137000914204D1616A00F47010884201D00120CA
:10138000EAE70020E8E700000010024000004242C7
:10139000800442420C0000200070004010B5401E46
:1013A000B0F1807F01D3012010BD4FF0E0246061D7
:1013B0000F21601701F025FC0020A06107202061AB
:1013C000002010BD7047704770B590F83C20012A8E
:1013D00026D0012480F83C40022280F83D2003689A
:1013E0005A689D6822F070060A6832435A600D4BB5
:1013F00002689A4208D0B2F1804F05D00A4B9A4257
:1014000002D00A4B9A4204D1496825F0800319435F
:10141000916080F83D40002180F83C10084670BD86
:10142000022070BD002C0140000400400008004074
:1014300010B5040003D094F83D0010B107E001207E
:1014400010BD002084F83C00204600F01FF8022068
:1014500084F83D00211D206801F0F0F8012084F897
:10146000460084F83E0084F83F0084F8400084F889
:10147000410084F8420084F8430084F8440084F872
:10148000450084F83D00002010BD000000B585B087
:10149000002100910191029103910068B0F1804F09
:1014A00028D11548C16941F00101C161C16901F04C
:1014B00001010491816941F00401816180696946FB
:1014C00000F0040004904FF4004000900B48FFF738
:1014D00065FB0B48416821F4407141F0E06141F443
:1014E00080714160002202211C20FFF7B9FC1C2002
:1014F000FFF7A8FC05B000BD001002400008014045
:101500000000014070B5044690F83C000025012819
:1015100017D0012684F83C60022084F83D00206842
:10152000826822F0770222F47F42826008685028A5
:1015300038D00DDC20284FD005DC90B3102811D115
:101540004AE0022070BD302846D040280AD13BE056
:1015500060282FD070280DD0B0F5805F03D0B0F593
:10156000005F12D0012584F83D60002084F83C0023
:10157000284670BDCB68D1E90121206801F0A7F8A9
:101580002068816841F0770109E0CB68D1E9012149
:10159000206801F09CF82068816841F480418160F6
:1015A000E1E719E0CA684968206801F0A2F8502113
:1015B000206806E0CA684968206801F0D7F8602111
:1015C000206801F08EF8CEE7CA684968206801F00B
:1015D00090F840212068F4E7226801461046F0E7C1
:1015E00070B504460068B0F1804F17D1207F012804
:1015F00014D1134D287890B1287801280ED10021FC
:10160000204600F0ECF9A8602068016A21F00A0188
:1016100001622068016A01620220287070BD002109
:10162000204600F0DCF968602068016A21F00A01B8
:1016300001622068016A41F0020101620120ECE7C9
:10164000100000202DE9F041054690F83C000026EE
:101650000C46012810D0012085F83C0072B1042A04
:101660001CD0082A2CD00C2A50D00126002085F846
:101670003C003046BDE8F0810220FBE7D4E90012CF
:10168000E368286801F046F82868816921F00C01B8
:10169000816128688169A26811430FE0D4E90012D2
:1016A000E368286801F074F82868816921F44061D2
:1016B000816128688169A26841EA02218161D5E7D8
:1016C0002868D4E9002C277B036A016A21F4807121
:1016D0000162C16923F4007321F0030141EA0C01A6
:1016E00021F0F00C39074FF400774CEA116107EA5A
:1016F00002221A43C16102622868C16921F00C010B
:10170000C1612868C169A26811432BE02868D4E947
:101710000021E768036AD0F820C02CF4805CC0F890
:1017200020C0D0F81CC023F400532CF4407C4CEAB9
:10173000012121F4704C4FF6FF7101EA07314FF49B
:10174000005741EA0C0107EA02321A43C161026202
:101750002868C16921F44061C1612868C169A26833
:1017600041EA0221C16181E710B5040003D094F879
:101770003D0010B107E0012010BD002084F83C00BE
:10178000204600F01EF8022084F83D00211D20684C
:1017900000F054FF012084F8460084F83E0084F8ED
:1017A0003F0084F8400084F8410084F8420084F847
:1017B000430084F8440084F8450084F83D0000208C
:1017C00010BD704730B50446002551B104290DD035
:1017D000082910D094F8410094F84520012811D12F
:1017E0000EE094F83E0094F84220F7E794F83F00AA
:1017F00094F84320F2E794F8400094F84420EDE791
:10180000012A01D0012030BD022059B1042912D093
:10181000082919D084F8410084F845000C2938D0F3
:10182000012534E084F83E0084F842002068C26854
:1018300042F0020210E084F83F0084F84300206880
:10184000C26842F0040207E084F8400084F84400D3
:101850002068C26842F00802C2600122206800F0DD
:1018600029FF0E492068884208D0B0F1804F05D08A
:101870000B49884202D00B49884204D1816801F0AB
:101880000701062903D0016841F0010101602846E3
:1018900030BD2068C26842F01002DDE7002C014034
:1018A00000040040000800402DE9F04104460068B3
:1018B000C66805694FF00007A90713D5B10711D510
:1018C000F91E016101202077206880698007204689
:1018D00002D0FFF785FE04E000F07EF8204600F01D
:1018E0007CF82777680716D5700714D521686FF044
:1018F00004000861022020772068806910F4407F8E
:10190000204602D0FFF76CFE04E000F065F82046A8
:1019100000F063F82777280715D5300713D521681D
:101920006FF008000861042020772068C0698007F4
:10193000204602D0FFF754FE04E000F04DF82046A8
:1019400000F04BF82777E80616D5F00614D5216885
:101950006FF010000861082020772068C06910F43B
:10196000407F204602D0FFF73BFE04E000F034F851
:10197000204600F032F82777E80708D0F00706D0B5
:1019800021686FF001000861204600F027F8280662
:1019900008D5300606D521686FF080000861204622
:1019A000FFF710FD680608D5700606D521686FF0B0
:1019B00040000861204600F027F8A8060AD5B006C6
:1019C00008D521686FF0200008612046BDE8F0418D
:1019D000FFF7F9BCBDE8F0817047704770470246D9
:1019E000002041B1042909D008290AD00C2901D1CD
:1019F0001068006C70471068406B70471068806B0F
:101A000070471068C06B70477047704710B5044648
:101A10000068406994F84110C0F3C010212911D129
:101A200080B12068143050E8001F21F0800140E8A8
:101A30000012002AF5D1A06B08B1FEF71DFF204669
:101A400000F067FF2068406994F84210C0F38010EE
:101A5000222911D180B12068143050E8001F21F0F4
:101A6000400140E80012002AF5D1E06B08B1FEF712
:101A700003FF204600F026FF002010BD7047000045
:101A8000F8B5016804460868CA684B6910F00F0F82
:101A90004FF0000559D003F0010602F49077374368
:101AA00065D0C10705D0D10503D5616C41F00101B6
:101AB0006164410705D5D90703D0616C41F002018B
:101AC0006164810705D5D90703D0616C41F0040139
:101AD0006164010707D502F02001314303D0616C36
:101AE00041F008016164616C00293AD0800604D598
:101AF000900602D5204600F01AFF20684069616C0C
:101B0000C0F38010090700D460B3204600F0DAFE6D
:101B100020684069400621D52068143050E8001F35
:101B200021F0400140E80012002AF5D1E06BA8B195
:101B30006D494163E06BFEF7C3FE002811D0E06BF6
:101B4000416B01B0BDE8F040084783060FD593060E
:101B50000DD52046BDE8F84000F0E9BE2046FFF76D
:101B60008DFFF8BD2046FFF789FF6564F8BD266B41
:101B70002023012E7CD1C6067AD5D60678D50868F2
:101B80004868009048694FF00206400640D5E16B76
:101B9000086840680004000CE8D0A28D8242E5D9B4
:101BA000E085886920282DD020680C3050E8001F7F
:101BB00021F4807140E80012002AF5D12068143029
:101BC00050E8001F21F0010140E80012002AF5D181
:101BD0002068143050E8001F21F0400140E8001256
:101BE000002AF5D184F84230256320680C3050E893
:101BF000001F21F0100140E80012002AF5D1E06B2F
:101C0000FEF73AFE6663A08DE18D401A81B22AE0AC
:101C1000A08DE18D401A81B2E08D0028A6D0002968
:101C2000A4D022680C3252E8000F20F4907042E8F1
:101C30000007002FF5D12068143050E8002F22F063
:101C4000010240E80027002FF5D184F842302563D7
:101C500020680C3050E8002F22F0100240E80023EA
:101C6000002BF5D166632046FFF7CFFEF8BDFFE7F6
:101C700005062BD5150629D594F841002128F5D164
:101C8000A068B0F5805F01D12069B0B1206A411C25
:101C90002162216800784860E08C401E0004000C3E
:101CA000E084E3D12068C16821F08001C160206830
:101CB000C16841F04001C160D8E7206A0088C0F3E4
:101CC00008004860206A801C2062E5E74006CDD508
:101CD0005006CBD5CA68204622F04002CA6084F87C
:101CE000413000F002F9C1E7C727000870B50400D1
:101CF00004D094F84100002510B106E0012070BD29
:101D000084F84050204600F023F8242084F8410055
:101D10002068C16821F40051C160204600F068FECF
:101D20002068016921F4904101612068416921F036
:101D30002A0141612068C16841F40051C1606564B5
:101D4000202084F8410084F842006563002070BDC3
:101D500070B586B00025064600950195029503955D
:101D60000068224988423ED12149886940F4804078
:101D70008861886900F480400490886940F004001C
:101D8000886188691B4C00F004000490481500909D
:101D9000022001900320039069462046FEF7FEFED4
:101DA0002015CDE90005694620460295FEF7F6FEAE
:101DB000124C1148C4E900058020C4E90250256195
:101DC0006561A5612046E561FEF770FE08B1FEF78A
:101DD00051FDF4630022012125206662FFF740F8DF
:101DE0002520FFF72FF806B070BD00000038014035
:101DF000001002400008014058000240B8000020D6
:101E000090F84230202B01D00220704721B11AB146
:101E10000023036300F048BE012070470749884251
:101E20000BD107487F210180064A00880021115408
:101E30007F2204490148FFF7E3BF7047700000208C
:101E4000240000207C05002070472DE9F84304465B
:101E500090F84100984616460D46202802D00220F0
:101E6000BDE8F88385B17EB100206064212084F84C
:101E70004100FEF789FFA6848146E684A0682027FA
:101E8000B0F5805F02D003E00120E9E7206910B1DE
:101E90002E4600250EE000260CE08021204600F0B2
:101EA0004BFEA8B9C6B116F8010B21684860E08C5A
:101EB000401EE084E08C4B464FF00002CDF80080DD
:101EC0000028EAD14FF04001204600F035FE40B135
:101ED00084F841700320C3E735F8020BC0F3080013
:101EE000E3E784F841700020BAE770470021014819
:101EF000FFF768BC280000202DE9F041FEF744FF01
:101F0000204C06460020207001221F4F1502294652
:101F10003846FEF733FF0120FEF72EFE0022294649
:101F20003846FEF72BFF194D05E000BFFEF72CFFEA
:101F3000801B642822D820780228F7D1A068616825
:101F4000884203D3A0686168401A06E060684FF6D3
:101F5000FF71081AA1680844401C01F091F80022A2
:101F60000B4B01F0A1F800220A4B00F031FF00F00A
:101F7000FDFEA0F18041B1F1727F00D92846BDE895
:101F8000F081000010000020000C0140000080BF24
:101F9000009AE04080843E41FEE7000070B50122D7
:101FA0000E4D940321462846FEF7E8FE0122560313
:101FB00031462846FEF7E2FE00F048F800222146AE
:101FC0002846FEF7DBFE00F041F8002231462846A5
:101FD000FEF7D4FEBDE8704000F038B800100140B4
:101FE00070B50B4D4FF48044002221462846FEF781
:101FF000C5FE012251032846FEF7C0FE00F026F878
:1020000021462846BDE870400122FEF7B7BE000019
:102010000010014070B50C4C012291032046FEF7E0
:10202000ADFE00F013F80122550329462046FEF7C5
:10203000A5FE00F00BF8002229462046FEF79EFE82
:10204000BDE8704000F002B8001001400320401EBF
:10205000C0B2FCD270470000094808B5416941F0A0
:10206000010141614069002200F001000090114629
:102070000F20FEF7F5FEBDE808400F20FEF7E2BE98
:10208000001002402DE9F04186B000200090019040
:10209000029003902248816941F0100181618169B9
:1020A00001F010010491816941F020018161816991
:1020B00001F020010491816941F00401816181698D
:1020C00001F004010491816941F008018161806996
:1020D000144F00F008004FF4C04404900122214640
:1020E0003846FEF74BFEDFF84080BE150022314631
:1020F0004046FEF743FE0094012403256946384616
:102100000194CDE90245FEF749FDCDE90064694639
:102110004046CDE90245FEF741FD06B0BDE8F0813D
:102120000010024000100140000C014010B58AB0C0
:102130000024224804940594069407940894099472
:102140000094019402944FF0804103940160472170
:10215000C0E901144FF6FF71C0E9031480218161C9
:10216000FFF766F908B1FEF785FB4FF48050049045
:1021700004A91248FFF7C6F908B1FEF77BFB0F4828
:10218000FFF7F2FA08B1FEF775FB089408A90B48AF
:102190000994FFF719F908B1FEF76CFB0120CDE9AE
:1021A000004002940022694604480394FFF74AFA6B
:1021B000002801D0FEF75EFB0AB010BD2800002009
:1021C00010B50E4C0C480C2120604FF4E1306060DB
:1021D0000020A060E060C4E90401A061E061204645
:1021E000FFF784FD08B1FEF745FB2068C16841F0A8
:1021F0001001C16010BD00000038014070000020D7
:10220000FEE7FEE730B40021084B0A465FF000000D
:1022100003EBC004401CC0B262548028F8D3491CB0
:10222000C9B20829F2D330BC00F08EB8FC000020FF
:1022300030B5CC0801F0070301259D40EBB2064DF7
:1022400005EBC005C808285C0AB1184302E063EA40
:102250000000C043285530BDFC00002010B500210F
:10226000AE2000F06CF90021084600F068F900216A
:10227000102000F064F90021402000F060F90021F6
:10228000812000F05CF90021CF2000F058F90021F6
:10229000A12000F054F90021C82000F050F90021DD
:1022A000A62000F04CF90021A82000F048F90021F8
:1022B0003F2000F044F90021D32000F040F9002134
:1022C000084600F03CF90021D52000F038F9002143
:1022D000802000F034F90021D92000F030F90021ED
:1022E000F12000F02CF90021DA2000F028F900217B
:1022F000122000F024F90021DB2000F020F9002159
:10230000302000F01CF90021202000F018F90021F5
:10231000022000F014F900218D2000F010F90021B6
:10232000142000F00CF9FFF76DFF0021BDE810400C
:10233000AF2000F004B90246012000E05043491EDE
:10234000C9B2FBD27047000070B5184E002400BF20
:1023500004F1B000C0B2002100F0F1F800210846FD
:1023600000F0EDF80021102000F0E9F8FFF716FE6C
:10237000782000F001F9FFF74DFE402000F0FCF856
:10238000FFF748FE5FF0000506EBC500005D00F0BA
:10239000F3F8FFF73FFE6D1CEDB2802DF4D3FFF78D
:1023A0001FFE641CE4B2082CD2D370BDFC000020D8
:1023B0002DE9FC4F1C460E4682468B460190082BA9
:1023C0000DD0600700D0012000EBD4006108484325
:1023D000C0B28146203AD0B2009000204BE00620E7
:1023E000F7E7082C13D00C2C18D0102C1BD0182C6D
:1023F00044D10098234900EBC00000BF01EB8001ED
:10240000002711F80850E80712D00B9A13E0009843
:102410001D4900EB400001EB4001F1E700981B492A
:1024200000EB4000EAE71A49009801EB0011E7E7EA
:102430000B9828B3002231465046FFF7F9FE761C70
:102440007F1C6D08FFB2F6B2082FDCD30AF1010041
:1024500000F0FF0A082C0AD00199AAEB0100B0EBAA
:10246000540F04D10BF108008A4600F0FF0B08F16D
:1024700001005E46C0B280464845B2D3BDE8FC8F3D
:102480000122D8E71C43000890360008B83800083D
:102490002C3D00082DE9F84F0025DDE90A691F46AB
:1024A00092468B468046082E00D1022500241CE06F
:1024B000381B401EC1B20A20FFF73DFFBAFBF0F007
:1024C0000A21B0FBF1F201FB1200CDF8009080B1BF
:1024D0003030C2B205EB560101FB0480C0B2334676
:1024E0005946FFF765FF641CE4B2BC42E0D3BDE887
:1024F000F88F05EB560101FB0480C0B23346302251
:10250000EEE72DE9F8411E46154688460446079F2A
:102510000BE03346414620460097FFF749FF082E5F
:102520000AD004EB5600C4B26D1C2A78A2F1200038
:102530005E28EED9BDE8F881A41DE4B2F4E770B5D9
:102540000C460546FFF72AFD782000F015F8FFF746
:1025500061FD0CB1402000E0002000F00DF8FFF715
:1025600059FD284600F008F8FFF754FDBDE870401B
:10257000FFF736BD704770472DE9F041124F002438
:1025800005464FF480487E14280601D5012200E05C
:10259000002241463846FEF7F1FBFFF757FD0122C6
:1025A00031463846FEF7EAFBFFF750FD0022314680
:1025B0003846FEF7E3FB6806641C050EE4B2082CFF
:1025C000E2D3BDE8F081000000100140FEF7E2BB5D
:1025D00030B58FB028216846FDF7CEFF14210AA838
:1025E000FDF7CAFF01210804CDE900100024029480
:1025F00002250491CDE907504FF4E0100990684698
:10260000FEF73CFD08B172B6FEE70F20CDE90A05E2
:102610004FF48060CDE90C4002210AA80E94FEF729
:1026200051FC002801D072B6FEE70FB030BD7047F4
:102630000148FFF739B9000028000020F0B5026812
:10264000194B1A4C1A4D4FF08047984205D0B842AA
:1026500003D0A04201D0A84203D122F070064A68FC
:102660003243984205D0B84203D0A04201D0A842DC
:1026700003D122F44074CA6822434C6922F08002DC
:10268000224302608A68C2620A688262984201D16B
:1026900009690163012141610169C90703D0016929
:1026A00021F001010161F0BD002C01400004004057
:1026B0000008004010B501F01F030121046A994091
:1026C0008C430462016A9A401143016210BD10B547
:1026D000846842EA032224F47F440A43224382604E
:1026E00010BD826822F070020A4342F00701816047
:1026F000704710B5036A046A24F001040462846917
:1027000024F0F00444EA021423F00A020A4384612C
:10271000026210BD70B5056A046A24F00104046207
:1027200084690F4EB04208D0B0F1804F05D00D4EF5
:10273000B04202D00C4EB04203D124F00304144343
:1027400001E044F001041A0724F0F00444EA1262A4
:1027500025F00A0301F00A0119438261016270BD8C
:10276000002C0140000400400008004010B5036A3E
:10277000046A24F010040462846923F0A00324F4A2
:10278000704444EA023243EA01118261016210BDE1
:1027900030B5046A056A25F010050562856925F4DF
:1027A000407545EA022222F470454FF6FF7202EAB4
:1027B000033224F0A0032A43A02404EA01111943A0
:1027C0008261016230BD10B5406A0021C185C184BB
:1027D000FFF754F910BD70B5446A2068406994F859
:1027E0004110C0F3C0100025212904D118B1E5849F
:1027F000204600F08EF82068406994F84210C0F33B
:102800008010222904D118B1E585204600F05AF83D
:10281000606C40F0100060642046FFF72FF970BD37
:1028200010B50146406A096809684FF00002890640
:102830002ED4C28501680C3151E8003F23F4807327
:1028400041E80034002CF5D10168143151E8003F13
:1028500023F0010341E80034002CF5D10168143164
:1028600051E8003F23F0400341E80034002CF5D14B
:10287000202180F84210016B012909D101680C3137
:1028800051E8003F23F0100341E80034002CF5D15B
:102890004263016B012902D0FFF7C0FA10BD818DA0
:1028A000FFF7B3F810BD10B5406A01214163016B19
:1028B000012902D0FFF7C8FA10BD818D4908FFF742
:1028C000A4F810BD01680C3151E8002F22F4907279
:1028D00041E80023002BF5D10168143151E8002FA5
:1028E00022F0010241E80023002BF5D1016B012900
:1028F00009D101680C3151E8002F22F0100241E8A3
:102900000023002BF5D1202180F842100021016323
:10291000704701680C3151E8002F22F0C00241E8F5
:102920000023002BF5D1202180F84110704708B515
:1029300090F84210222901D0022008BD82684FF48D
:1029400080539A4201D1016921B1816A9A421BD018
:102950004AB10AE00268816A5268C2F308020A803A
:10296000816A891C08E0026972B10268526802F04B
:102970007F020A70816A491C8162C18D491E090467
:10298000090CC18503D01BE002685268F1E70168B9
:10299000CA6822F02002CA600168CA6822F4807204
:1029A000CA6001684A6922F001024A61202180F868
:1029B000421000214163026B012A03D0FFF72EFA77
:1029C000002008BD016301680C3151E8002F22F09E
:1029D000100241E80023002BF5D101680A68D206F5
:1029E00002D50A6849680091818DFFF70EF8E7E784
:1029F00070B5044600680169E26821F44051114352
:102A000001612169A0680843616908432168CA68B7
:102A100041F20C639A430243CA6020684169A2698B
:102A200021F44071114341611E492068884202D15E
:102A3000FEF7EEFA01E0FEF7DBFA00EBC00101EB76
:102A40000012606864218000B2FBF0F3B3FBF1F385
:102A50006FF018067343B2FBF0F5B2FBF0F605EB2E
:102A60008305322303EB0515B5FBF1F5B6FBF1F653
:102A700005F0F00505EB0615B2FBF0F6B2FBF0F041
:102A8000B0FBF1F06FF01802504306EB800003EB4F
:102A90000010B0FBF1F0216800F00F0028448860BE
:102AA00070BD00000038014038B58162044682855F
:102AB000002013466064222284F84220E56B1B4A02
:102AC000AA62E56B1A4AEA62E56B1A4A2A63E26B6C
:102AD00050630A462168E06B091DFEF715F820686F
:102AE000016840680090206948B120680C3050E8C7
:102AF000001F41F4807140E80012002AF5D12068DF
:102B0000143050E8001F41F0010140E80012002A93
:102B1000F5D12068143050E8001F41F0400140E832
:102B20000012002AF5D1002038BD0000212800083D
:102B3000A7280008D72700082DE9F843984617462C
:102B40000D460446089E24E0701C22D0FEF71CF9B6
:102B5000A0EB0800B0421AD8CEB12068C16849077E
:102B600017D5802D15D0402D13D00168C943090712
:102B70000FD401680025406800902046FFF7A2FEB0
:102B80000820606484F840500120BDE8F8830320E9
:102B9000FBE72068006835EA000004D00020B84256
:102BA000D2D00020F1E70120F9E7000038B5114C40
:102BB00020680168C90617D50168002540680090A3
:102BC0002046FEF723FFE06B00684068C0F17F00FD
:102BD00080B27F2800D97F200749088007490D541B
:102BE0007F220448FFF70CF9BDE838400148FEF7A2
:102BF00047BF000070000020240000207C0500205A
:102C0000FEE70907090E002804DB00F1E02080F848
:102C10000014704700F00F0000F1E02080F8141D50
:102C2000704730380A2801D20120704700207047D1
:102C300070B5054600244FF47A7603E0304600F084
:102C400005F8641CAC42F9D370BD00000B4909685B
:102C500048434FF0E021486100228A61086940F052
:102C6000010008610869C30701D0C003FAD50869EB
:102C700020F0010008618A61704700001C000020FC
:102C80001CB50024FEF78EF8FFF7A2FCFFF7FAF957
:102C9000FFF7E2F9FFF74AFAFFF792FAFFF7DEFAD9
:102CA000FFF724F9FDF726FD4FF47A7506E0641C62
:102CB000E4B22846FFF7BCFF052C03D2FDF73AFD2E
:102CC0000028F4D0052C00D9FEE7012400210823B8
:102CD00020A208460094FFF714FCFFF735FB204FB5
:102CE0004FEA0509FFF708F90546B8422CD200F073
:102CF0003BFB804600F058FB294600F035FC1949A3
:102D000000F066FB00F030FB0826CDE900640546C4
:102D10000123424600214620FFF7BCFB08232E2258
:102D200000214E200094FFF743FBCDE9006402230D
:102D30002A4600215620FFF7ADFB08230AA20021F6
:102D40005E200094FFF7DDFBFFF7FEFA4846FDF733
:102D500013FFC7E744697374616E63653A0000004E
:102D6000000080800000C842636D000021F0004236
:102D7000A2F16052B2F5801F01F0004328BFD2F1EA
:102D80007F6C0BD95FEA001C43EAC20242EB507031
:102D900018BF704728BF20F001007047B2F5801FB0
:102DA000BCBF184670474FEA410C1CF5001F02D209
:102DB000084600F0D4BB70B500F020FA000000898E
:102DC000FFF7F6BF4FF00040A0F58000704700000D
:102DD0002DE9C04130B4DFF8A0C23CEA111418BF9D
:102DE0003CEA131400F0EC8081EA03051CEA11149C
:102DF00044EAD57418BF1CEA131500F0C780A4EB91
:102E000005044FF0004545EAC12145EAC32341EAE4
:102E1000505143EA525304F17F74994204F500344F
:102E20004FEAC0204FEAC22208BF904200F09C80C7
:102E30004FEA13650FF24016765D4FEA134506FB25
:102E400005F7C7F1807706FB07F74FEAD737A7FBEF
:102E500003687642C8F58038A7FB06CE38BFA8F1D4
:102E6000010807FB08E64FF0000EA6FB028CE6FB0C
:102E700003CEDCF1000CCEF1004E38BFAEF1010EF6
:102E8000A6FB0C584FF000074FF00005E6FB0E873D
:102E9000A1FB08C6A0FB07CE16EB0E0645F1000508
:102EA000E1FB076515F1E04E7EBFA4F580345FEAD3
:102EB00046066D4116F1800745F100054FEA1727D8
:102EC0004FEA066647EA0567A6F1DE46B6F1805F7F
:102ED0004FEA15251FD9384624F0010C05EBC471C3
:102EE000BCF1FE6F01EB0C1102D8F0BCBDE8008113
:102EF00024425CBF01F5801E9EEAC47F02D4F0BC70
:102F0000BDE80081244238D4F0BCA1F1C041BDE845
:102F1000004100F0C1B94FEAD22242EA43524FEADF
:102F2000D323A7FB02864FEAD02040EA415007FB9B
:102F300003661EEA0E0F4FEAD12105FB026658BF59
:102F4000A6EB0056B6EB00564FEA520E4EEAC37E91
:102F500018EB0E0E56EB530EBDD518EB02085E4172
:102F60007F1C55F10005B6E74FF480154FF00007C0
:102F70004FF000064FF00008ADE7F0BC4FF0000046
:102F800001F1C04101F00041BDE8008111EA0C1FD0
:102F90000CEA131500D00CE013EA0C1F00F025809A
:102FA0004FF00000F0BC81EA030101F00041BDE8F0
:102FB0000081F0BCBDE8004181EA030100F06CB97A
:102FC000F0BCBDE8004170B500F018F9097EFC3E88
:102FD00000F007B881EA03014FF0000001F0004162
:102FE000704781EA030100F057B9F0BCBDE8004129
:102FF0004FF0000021497047FFFDFBF9F7F5F4F2AF
:10300000F0EEEDEBE9E8E6E4E3E1E0DEDDDBDAD883
:10301000D7D5D4D3D1D0CFCDCCCBCAC8C7C6C5C4E1
:10302000C2C1C0BFBEBDBCBBBAB9B8B7B6B5B4B3F8
:10303000B2B1B0AFAEADACABAAA9A8A8A7A6A5A4E3
:10304000A3A3A2A1A09F9F9E9D9C9C9B9A999998A7
:103050009797969595949393929191908F8F8E8E4A
:103060008D8C8C8B8B8A89898888878786858584D7
:1030700084838382828181800000FF070000F87FC3
:10308000B0FA80F310FA03F10AD0C3F11D0303F57F
:1030900080634FEA41504FEA035202EBD12170475F
:1030A0004FF0000070470000DFF848C170B51CEA1F
:1030B000111E1EBF1CEA13159EEA0C0F95EA0C0F99
:1030C00000F06F8081EA030423EA4C134EEAD47EB9
:1030D00021EA4C1141F4801143F48013AE44A1FB6A
:1030E000024CA0FB0365AEF17F7E361955EB0C0553
:1030F000A1FB034C4CF10003A0FB021C16EB0C06D9
:10310000654153F10003094218BF46F0010613F46C
:10311000007F0BD14FEA03314FEA0530340341EA17
:10312000155140EA16506FF003020AE04FEAC3213E
:103130004FEAC520F40241EA555140EA56506FF07B
:10314000020202EB2E4201EB025585EACE710AD053
:103150005FEA440C18BF24F0004450F1000041F134
:10316000000120EAD47040F2FE7C624500D270BDBE
:10317000A84214BF4FF080444FF04044002E08BFD7
:103180000024BEF1806FA8BFA1F1C041BDE870402E
:1031900080F282804FF0000001F1C04101F0004157
:1031A00070479EEA0C0F0CEA131518BF95EA0C0F36
:1031B00006D04FF0000081EA030E0EF0004170BD12
:1031C00000F01CF88900013E00F007B800F009B8D3
:1031D0004FEA430C5FEA5C5C08D081EA030100F02F
:1031E0005BB84FEA410C5FEA5C5CF6D14FF000003F
:1031F000014970470000FF070000F87F0EF1020E42
:103200002EF0030E5EF8046B364205D4012A43EB20
:10321000030515F5001F12D8012841EB010C1CF520
:10322000001F0CD80ED14FEAD17C15F5001F0CEB16
:103230004C0C0CF1020C08BF4CEBD37C04E04FF0BB
:10324000080C01E04FEAD37C0CEB4C0526FA05F69E
:1032500006F00706B6F1040C06D20EEB860CBDE8AC
:1032600070404CF0010C6047DFE80CF0090B0202E3
:103270004FF000414FF00000A1F5002170BD19464C
:103280001046012851EB010418BFD4F5001484BF87
:10329000002001F0004170BD0808A0F500114FEAC0
:1032A0003101704790EA010F48BF81F0004100F101
:1032B0006C81421A3CBF801A89184FEAD0524FF0F5
:1032C0007F4C1CEA410FA2EBD15318BF9CEA026F5E
:1032D00000F03B804FF0004C4CEA00204CEA01210A
:1032E00021FA03FC10EB0C0C1ED202F1FF325FEA54
:1032F0001C2040EBC25038BF70471CF07F0F4FEAD4
:10330000400C18BFBCF17F4F38BF7047C3F120039A
:10331000994008BF20F00100BCF17F4F38BF7047D3
:10332000A0F1C04000F01BB94FEA3C00000A40EB9E
:10333000C25028BF1CF0FF0F4FEA400CE6D018BF68
:10334000BCF17F4F38BF7047EAE79CEA026F05D0B7
:1033500010EA5C0F08BF00F00040704710B500F0A5
:10336000B8F800BF64FBBE3EC10DD1F19E0206DB82
:103370004FEA002343F0004323FA02F07047004273
:1033800007D54FEA4001B1F1FE4F02D24FF00000E5
:10339000704710B500F09DF84992248000207047D6
:1033A0006FEA200070470000B0FA80F310FA03F2D1
:1033B000C3F19D030AD0D90501EB1220530638BF93
:1033C000704700F1010008BF20F0010070470000C5
:1033D0004FF47F0C1CEAD0121EBF1CEAD11392EAF4
:1033E0000C0F93EA0C0F00F0478090EA010F48BFE2
:1033F00042F480724FF0004C4CEA00204CEA01216C
:1034000002EB0302A0FB0113A2F50002002918BF82
:1034100043F001035B0028BF4FEA330342EB224233
:103420005FEA132C4CEBC2502EBFBCEB436FB2F5DE
:103430007C0F70474FEA036CBCF1004F08BF20F0CF
:103440000100B2F57C0F38BF70470BD582F0FF0248
:1034500012F5803FC8BF704700F1C040D8BF00F0F0
:103460000040704700F5000C5FEA4C0C48BF704705
:10347000B0F1C04000F073B890EA010F0CEAD1132C
:1034800048BF42F48072624538BF634504D280EA87
:10349000010000F00040704710B500F01AF800BFBE
:1034A0008900013E00F007B800F009B85FEA410C5E
:1034B0005FEA1C6C08D080EA010000F050B85FEAB7
:1034C000400C5FEA1C6CF6D14FF00040A0F5800084
:1034D00070470EF1020E2EF0030E5EF8044B2442EC
:1034E00004D44FEA4102B2F17F4F11D84FEA4003B2
:1034F000B3F17F4F0CD80ED14FEAD07CB2F17F4FA1
:103500000CEB4C0C0CF1020C08BF4CEBD17C04E032
:103510004FF0080C01E04FEAD17C0CEB4C0324FA8D
:1035200003F404F00704B4F1040C06D20EEB840C8F
:10353000BDE810404CF0010C6047DFE80CF00708D4
:1035400002024FF00040A0F5800010BD0846420086
:1035500018BFD2F1807288BF00F0004010BDFF217B
:1035600041EAD050C005704780F0004090EA010F5A
:103570007FF59FAE81F0004100F007B890EA010F9F
:1035800048BF81F000413FF594AE421A04D882F062
:103590000042A0EB020011444FEAD0524FF07F4CA2
:1035A0001CEA410FA2EBD15318BF9CEA026F4AD02C
:1035B0004FF0004C4CEA00204CEA012121FA03FCB8
:1035C000B0EB0C0C0FD412F0FE0F36D05FEA4C00BB
:1035D0001DD5001240EBC25038BF70471CF03F0FA2
:1035E00018BF70470BE0A2F101025FEA1C2040EB1C
:1035F000C25038BF70471CF07F0F18BF7047C3F12F
:103600002003994014BF401E20F00100704780083D
:103610004FEA122308BF7047B0FA80FCA2EB0C02FD
:10362000CCF1280C60FA0CF093EA122F04BF00EBE7
:10363000C25070474FEAC3707047130A5FEADC104C
:1036400008BF7047F6E79CEA026F04D010EA5C0FEF
:1036500008BF0020704710B5FFF73BFF40DFF63E84
:1036600081F00040704701020203040506070809C3
:103670000A0B0C0D0E0F10100000000000000000DF
:103680000102030406070809000000000102030408
:103690000000000000000000002F000000000700F4
:1036A000070000147F147F1400242A7F2A1200626E
:1036B000640813230036495522500000050300001A
:1036C00000001C224100000041221C000014083EA2
:1036D00008140008083E0808000000A06000000868
:1036E00008080808000060600000002010080402BC
:1036F000003E5149453E0000427F4000004261517A
:103700004946002141454B31001814127F10002713
:1037100045454539003C4A494930000171090503D6
:1037200000364949493600064949291E0000363607
:10373000000000005636000000081422410000146A
:103740001414141400004122140800020151090647
:1037500000324959513E007C1211127C007F4949C8
:103760004936003E41414122007F4141221C007FF9
:1037700049494941007F09090901003E4149497A07
:10378000007F0808087F0000417F41000020404181
:103790003F01007F08142241007F40404040007FED
:1037A000020C027F007F0408107F003E4141413E31
:1037B000007F09090906003E4151215E007F091979
:1037C00029460046494949310001017F0101003F76
:1037D0004040403F001F2040201F003F4038403FF6
:1037E000006314081463000708700807006151495A
:1037F000454300007F41410000552A552A550000ED
:1038000041417F000004020102040040404040406A
:10381000000001020400002054545478007F484402
:10382000443800384444442000384444487F003839
:103830005454541800087E0901020018A4A4A47C62
:10384000007F080404780000447D4000004080842C
:103850007D00007F102844000000417F4000007C74
:1038600004180478007C0804047800384444443880
:1038700000FC242424180018242418FC007C0804CC
:10388000040800485454542000043F444020003CA5
:103890004040207C001C2040201C003C4030403C2C
:1038A000004428102844001CA0A0A07C00446454BC
:1038B0004C44141414141414000000000000000000
:1038C000000000000000FC000000000002000000FA
:1038D000000C020C020000000000000090D0BCD0E0
:1038E000BC900003000300001824FE448C00030277
:1038F000070201001824D8B04C8000030001020127
:10390000C038E438E00001020201020208060000AB
:103910000000000000000000000000F804020000A9
:1039200000010204000204F800000004020100008B
:103930009060F86090000000010000002020FC2052
:103940002000000001000000000000000000080648
:1039500000000000202020202000000000000000C7
:103960000000000000000002000000000080601C59
:103970000200040300000000F8040404F80001023F
:10398000020201000008FC00000000020302000027
:1039900018844424180003020202020008042424AC
:1039A000D80001020202010040B088FC8000000043
:1039B000000302003C242424C4000102020201008E
:1039C000F824242CC0000102020201000C04E41CB3
:1039D0000400000003000000D8242424D8000102C1
:1039E0000202010038444444F800000302020100CE
:1039F0000000100000000000020000000000200095
:103A000000000000060000000020508804020000B2
:103A100000000102909090909000000000000000D3
:103A20000002048850200002010000001804C42491
:103A30001800000002000000F804E494F8000102FD
:103A40000202020000E09CF080000203000003027A
:103A500004FC2424D800020302020100F804040438
:103A60000C0001020202010004FC0404F80002033D
:103A70000202010004FC24740C0002030202030091
:103A800004FC24740C00020302000000F00804444B
:103A9000CC4000010202010004FC2020FC040203CF
:103AA000000003020404FC040400020203020200FA
:103AB000000404FC040406040403000004FC24D0F5
:103AC0000C0402030200030204FC040000000203D1
:103AD00002020203FC3CC03CFC00030003000300A4
:103AE00004FC30C4FC04020302000300F8040404D4
:103AF000F80001020202010004FC24241800020361
:103B000002000000F8848404F800010202070500A6
:103B100004FC2464980002030200030218242444D5
:103B20008C000302020201000C04FC040C000002E1
:103B30000302000004FC0000FC040001020201007A
:103B4000047C80E01C040000030000001CE03CE05A
:103B50001C00000300030000049C609C040002039E
:103B600000030200041CE01C040000020302000029
:103B70000C84641C04000203020203000000FE0225
:103B80000200000007040400000E30C00000000026
:103B900000010200000202FE000000040407000011
:103BA000000402040000000000000000000000000B
:103BB00000000808080808080000020000000000D3
:103BC000000000000040A0A0C000000102020302AB
:103BD00004FC2020C00000030202010000C02020DD
:103BE000600000010202020000C02024FC0000016D
:103BF0000202030200C0A0A0C000000102020200F5
:103C00000020F82424040002030202000040A0A0C7
:103C1000602000070A0A0A0404FC2020C0000203F6
:103C2000020003020020E400000000020302000082
:103C3000000020E4000008080807000004FC80E001
:103C400020200203020003020404FC000000020220
:103C500003020200E020E020C00003000300030094
:103C600020E02020C00002030200030200C0202048
:103C7000C00000010202010020E02020C000080F67
:103C80000A02010000C02020E0000001020A0F0823
:103C900020E0402020000203020000000060A0A0FD
:103CA00020000002020203000020F82000000000B3
:103CB0000102020020E00020E000000102020302F5
:103CC00020E0208060200000030100006080E08090
:103CD00060000003000300002060806020000203F9
:103CE0000003020020E02080602008080701000097
:103CF0000020A0602000000203020200000020DE7D
:103D00000200000000070400000000FF00000000A7
:103D1000000F00000002DE20000000040700000089
:103D20000201020404020000000000000000000084
:103D3000000000000000000000000000000000F88B
:103D400000000000000000333000000000100C06EE
:103D5000100C0600000000000000000040C0784089
:103D6000C0784000043F04043F040400007088FC55
:103D700008300000001820FF211E0000F008F000AD
:103D8000E018000000211C031E211E0000F008881E
:103D9000700000001E2123241927211010160E0088
:103DA000000000000000000000000000000000E033
:103DB0001804020000000007182040000002041848
:103DC000E00000000040201807000000404080F0A4
:103DD000804040000202010F01020200000000F0DA
:103DE000000000000101011F0101010000000000AE
:103DF0000000000080B07000000000000000000023
:103E000000000000000101010101010100000000AB
:103E10000000000000303000000000000000000042
:103E200080601804006018060100000000E010081F
:103E30000810E000000F102020100F00001010F8F4
:103E4000000000000020203F202000000070080833
:103E500008887000003028242221300000300888B3
:103E6000884830000018202020110E000000C020DB
:103E700010F8000000070424243F240000F80888FC
:103E8000880808000019212020110E0000E0108889
:103E900088180000000F112020110E0000380808BB
:103EA000C83808000000003F0000000000708808CB
:103EB00008887000001C222121221C0000E010084C
:103EC0000810E0000000312222110F00000000C0A5
:103ED000C000000000000030300000000000008042
:103EE0000000000000008060000000000000804032
:103EF000201008000001020408102000404040404B
:103F0000404040000404040404040400000810209D
:103F100040800000002010080402010000704808E2
:103F20000808F0000000003036010000C030C8284A
:103F3000E810E0000718272423140B000000C03805
:103F4000E0000000203C23020227382008F888887F
:103F500088700000203F202020110E00C03008088B
:103F600008083800071820202010080008F8080862
:103F70000810E000203F202020100F0008F888885B
:103F8000E8081000203F20202320180008F8888827
:103F9000E8081000203F200003000000C03008089F
:103FA0000838000007182020221E020008F8080028
:103FB0000008F808203F210101213F20000808F8EF
:103FC000080800000020203F202000000000080812
:103FD000F8080800C08080807F00000008F888C0D2
:103FE00028180800203F20012638200008F8080083
:103FF00000000000203F20202020300008F8F800BA
:10400000F8F80800203F003F003F200008F830C0CB
:104010000008F808203F200007183F00E0100808BB
:104020000810E0000F10202020100F0008F80808EA
:104030000808F000203F210101010000E0100808FD
:104040000810E0000F18242438504F0008F8888822
:1040500088887000203F2000030C30200070880802
:10406000080838000038202121221C00180808F810
:10407000080818000000203F2000000008F8080091
:104080000008F808001F202020201F000878880062
:1040900000C83808000007380E010000F80800F8D2
:1040A0000008F800033C0700073C0300081868807C
:1040B0008068180820302C03032C30200838C800F2
:1040C000C83808000000203F200000001008080841
:1040D000C83808002038262120201800000000FEE3
:1040E000020202000000007F40404000000C30C08F
:1040F00000000000000000010638C00000020202BB
:10410000FE000000004040407F000000000004026C
:104110000202040000000000000000000000000097
:104120000000000080808080808080800002020487
:10413000000000000000000000000000000080807F
:10414000808000000019242222223F2008F80080ED
:1041500080000000003F112020110E0000000080B0
:1041600080800000000E112020201100000000803F
:104170008088F800000E112020103F200000808071
:1041800080800000001F222222221300008080F085
:10419000888888180020203F2020000000008080B0
:1041A00080808000006B94949493600008F80080F5
:1041B00080800000203F210000203F200080989850
:1041C000000000000020203F2020000000000080B0
:1041D0009898000000C08080807F000008F80000F0
:1041E00080808000203F24022D302000000808F845
:1041F000000000000020203F202000008080808000
:1042000080808000203F20003F20003F8080008091
:1042100080800000203F210000203F20000080809F
:1042200080800000001F202020201F008080008050
:104230008000000080FFA12020110E0000000080FF
:1042400080808000000E112020A0FF8080808000F0
:104250008080800020203F2120000100000080801D
:10426000808080000033242424241900008080E012
:10427000808000000000001F2020000080800000DF
:1042800000808000001F202020103F2080808000C0
:104290000080808000010E300806010080800080D0
:1042A000008080800F300C030C300F0000808000F5
:1042B000808080000020312E0E3120008080800020
:1042C0000080808080818E701806010000808080D0
:1042D000808080000021302C22213000000000006E
:1042E000807C020200000000003F4040000000000F
:1042F000FF00000000000000FF0000000002027C40
:10430000800000000040403F000000000006010166
:104310000202040400000000000000000000000091
:10432000000000000000000000000000000000008D
:10433000000000000000000000000000000000007D
:104340000000000000F0F0F000000000000000009D
:1043500000017F010000000000000000001C1C1C88
:104360000000000000008060301C8C60301C0C00DD
:10437000000000000000000000000000000000003D
:104380000000000000000000000000E0000000004D
:1043900000E000000086E69F86868686E69F86000F
:1043A00000011F01010101011F010100000080C087
:1043B0006020F820E0C00000000003070C18FF7028
:1043C000E18100000000070F10107F100F070000B0
:1043D0008060206080000000E02000000F3020306E
:1043E0009F70DC371030C0000000100E030007186B
:1043F000101807000000C02020E0C00000000000EE
:1044000080E01F38E88703C43C040000070F181041
:10441000100B070D1010080000808C4C38000000B5
:10442000000000000000000000000000000000008C
:10443000000000000000000000000000000000007C
:10444000000080E0300804000000000000FEFF01D2
:1044500000000000000000000000030F18204000D2
:1044600000040830E08000000000000000000000B0
:1044700001FFFE0000000000004020180F030000B4
:1044800000000000000000000000C000000000006C
:10449000004266663C18FF183C6666420000000059
:1044A0000000030000000000000000000000800089
:1044B00000000000001010101010FF10101010105D
:1044C00000000000000003000000000000000000E9
:1044D00000000000000000000000000000000000DC
:1044E0000000000000808C4C38000000000000003C
:1044F000000000000000000000000000001010108C
:10450000101010101010100000000000000000003B
:10451000000000000000000000000000000000009B
:1045200000000000000000000000000000001C1C53
:104530001C0000000000000000000000000000005F
:10454000E0380C000000000080701C030000000038
:104550000060380E0100000000000000000080C074
:1045600060202060C080000000FEFF01000000000D
:1045700001FFFE000001070E181010180E070100C1
:104580000000808080C0E00000000000000000000B
:1045900000FFFF000000000000001010101F1F109F
:1045A000101000000080402020202060C08000000B
:1045B00000030300804020381F070000001C1A1968
:1045C00018181818181F00000080C020202060C094
:1045D00080000000000303001010182FE780000087
:1045E00000070F10101010180F0700000000000047
:1045F0000000C0E0F000000000C0B088868180FFAD
:10460000FF808000000000000010101F1F1010002D
:104610000000E060606060606060000000003F10CB
:1046200008080818F0E0000000070B101010101C1C
:104630000F030000000080C040202020E0C00000E8
:1046400000FCFF211008080818F0E0000001070C2A
:1046500018101010080F03000000C0E060606060D8
:1046600060E06000000003000000E01807000000A8
:1046700000000000001F1F00000000000080C0605C
:104680002020202060C080000087EF2C18183030D8
:1046900068CF830000070F0810101010180F0700D4
:1046A0000000C0C020202020C0800000001F3F600C
:1046B0004040402010FFFE0000000C1C10101008AD
:1046C0000F030000000000000000000000000000D8
:1046D00000000000000E0E0E0000000000000000B0
:1046E000001C1C1C00000000000000000000000076
:1046F0000000000000000000000C0C0000000000A2
:104700000000000000583800000000000000000019
:1047100000000080402010000000102844820100AA
:10472000000000000000000000000102040810006A
:1047300000000000000000000000000000848484ED
:1047400084848484848484000000000000000000CD
:104750000000000000001020408000000000000069
:104760000000000000000182442810000000100832
:10477000040201000000000000C0202010101010F2
:1047800030E0C0000003030000F010080C07030035
:10479000000000001C1C1C0000000000000000C005
:1047A000406020202040C00000FCFF01F00E03C14B
:1047B000FE03807F0001070E081111101109040289
:1047C0000000000080E0E000000000000000807CAD
:1047D0004340477FF880000010181F1000000000C1
:1047E000131F1C1020E0E02020202060C08000006B
:1047F00000FFFF10101010182FE78000101F1F106F
:1048000010101010180F0700000080C0402020205A
:104810002060E00000FCFF0100000000000001003B
:104820000001070E181010100804030020E0E0201B
:1048300020202040C080000000FFFF00000000009A
:1048400001FFFE00101F1F10101018080E070100B6
:1048500020E0E020202020202060800000FFFF10CA
:104860001010107C00000000101F1F1010101010FE
:104870001018060020E0E02020202020606080004A
:1048800000FFFF101010107C00000100101F1F100F
:104890000000000000000000000080C06020202018
:1048A00040E0000000FCFF0100004040C0C140406B
:1048B0000001070E181010100F0F000020E0E0207C
:1048C0000000000020E0E02000FFFF10101010109A
:1048D00010FFFF00101F1F1000000000101F1F100E
:1048E0000000202020E0E020202000000000000048
:1048F00000FFFF000000000000001010101F1F103C
:104900001010000000000000202020E0E020202007
:1049100000000000000000FFFF0000000060E080D9
:104920008080C07F3F00000020E0E020000020A049
:104930006020200000FFFF30187CE3C00000000072
:10494000101F1F10000001131F1C181020E0E02092
:10495000000000000000000000FFFF000000000059
:1049600000000000101F1F1010101010101806007B
:1049700020E0E0E000000000E0E0E02000FF013F78
:10498000FEC0E01E01FFFF00101F1000031F030008
:10499000101F1F1020E0E0C0000000000020E020F9
:1049A00000FF0003071C78E08000FF00101F1000CC
:1049B00000000000030F1F00000080C06020206086
:1049C000C080000000FEFF010000000000FFFE00AC
:1049D0000001070E181010180C07010020E0E0205D
:1049E0002020202060C0800000FFFF202020202009
:1049F000301F0F00101F1F100000000000000000FB
:104A0000000080C060202060C080000000FEFF0128
:104A10000000000000FFFE000001070E1111133C12
:104A20007C67210020E0E0202020202060C0800062
:104A300000FFFF101030F0D0080F0700101F1F10EC
:104A4000000000030F1C10100080C06020202020F8
:104A50004040E00000070F0C1818303060E0810083
:104A6000001F0C0810101010180F07008060202085
:104A700020E0E020202060800100000000FFFF0017
:104A80000000000100000000101F1F1000000000C7
:104A900020E0E020000000000020E02000FFFF00F8
:104AA000000000000000FF0000070F181010101099
:104AB000100807002060E0E02000000020E06020F7
:104AC0000000077FF88000807C03000000000000E9
:104AD000071F1C070000000020E0E02000E0E020AD
:104AE0000020E0200007FFF8E01FFFFCE01F0000AF
:104AF0000000031F0300011F03000000002060E00E
:104B0000A0000020E0602000000000038F7CF8C6B9
:104B1000010000000010181E130001171F181000DC
:104B20002060E0E02000000020E06020000001079D
:104B30003EF8E0180700000000000010101F1F10D2
:104B40001000000000806020202020A0E0E0200075
:104B500000000000C0F03E0F0300000000101C1F0A
:104B600017101010101806000000000000FC0404CC
:104B7000040404000000000000FF0000000000002A
:104B800000000000007F404040404000000010E076
:104B9000000000000000000000000000031C608016
:104BA0000000000000000000000000030C70800006
:104BB00000000404040404FC0000000000000000E5
:104BC000000000FF00000000000040404040407F27
:104BD0000000000000000010080C040C0810000089
:104BE00000000000000000000000000000000000C5
:104BF00000000000000000000000000000000000B5
:104C000000000000000000000000000000000000A4
:104C10008080808080808080808080800000000490
:104C20000408080000000000000000000000000070
:104C30000000000000000000000000000000000074
:104C4000000000000000000000000000000098D8F4
:104C500044642424FCF80000000F1F1810101008F2
:104C60001F1F10180020E0F00000000000000000EE
:104C70000000FFFF180804040CF8F00000001F0FEC
:104C800018101010180F03000000000000000000B2
:104C90000000000000E0F8180404043C38000000A4
:104CA00000030F0C10101010080600000000000098
:104CB00000000020E0F0000000E0F81C04040408FC
:104CC000FFFF000000030F18101010081F0F08004E
:104CD0000000000000000000000000000000E0F8FC
:104CE000484444444C7870000000030F0C18101026
:104CF000100804000000000080C0602020E0C00018
:104D000000040404FFFF0404040400000000101069
:104D10001F1F101010000000000000000000000025
:104D200000000000000070F88C04048CF874040C7F
:104D3000007076CF8D8D8D89C87870000020E0F0EE
:104D400000000000000000000000FFFF0804040451
:104D5000FCF8000000101F1F100000101F1F1000A3
:104D6000000000000060600000000000000004047B
:104D700004FCFC000000000000001010101F1F10B9
:104D80001010000000000000000000606000000043
:104D900000000000040404FCFC0000000000C0C08F
:104DA0008080C07F3F0000000020E0F00000000095
:104DB000000000000000FFFF80C0F41C040400009D
:104DC00000101F1F1100031F1C10100000002020E6
:104DD00020E0F000000000000000000000FFFF00E5
:104DE0000000000000001010101F1F101010000025
:104DF00000000000000000000000000004FCFC08AF
:104E000004FCFC0804FCFC00101F1F10001F1F10F6
:104E1000001F1F1000000000000000000000000044
:104E20000004FCFC08080404FCF8000000101F1F2C
:104E3000100000101F1F1000000000000000000004
:104E40000000000000E0F0180C04040C18F0E00072
:104E500000030F0C101010100C0F030000000000D6
:104E600000000000000000000004FCFC0804040432
:104E70000CF8F0000080FFFF889010101C0F03005A
:104E800000000000000000000000000000E0F81C2E
:104E900004040408F8FC000000030F1810109088A8
:104EA000FFFF800000000000000000000000000084
:104EB000040404FCFC100804040C0C001010101F67
:104EC0001F10101000000000000000000000000093
:104ED0000000000000003078CCC48484840C1C00E6
:104EE00000001E1810101011190F0600000000001D
:104EF00000C000000000000000040404FFFF0404E0
:104F000004000000000000000F1F1010100C000033
:104F10000000000000000000000000000004FCFE93
:104F200000000004FCFE000000000F1F1810100815
:104F30001F0F08000000000000000000000000003B
:104F400000040C3CFCC40000C43C0C040000000045
:104F5000010F1E0E01000000000000000000000014
:104F600000000000043CFCC400E47CFC84807C0461
:104F70000000071F070000071F07000000000000D7
:104F800000000000000000000004041C7CE4C034A9
:104F90001C0404000010101C1601131F1C18100024
:104FA00000000000000000000000000000040C3CB5
:104FB000FCC400C43C0404000000C080C1370E01E2
:104FC00000000000000000000000000000000000E1
:104FD00000001C0404C4F47C1C0400000000101C2D
:104FE0001F17111010180E0000000000000000F83C
:104FF0000C04000000000000001028EF000000007A
:10500000000000000000003F6040000000000000C1
:105010000000FF0000000000000000000000FF0092
:1050200000000000000000000000FF000000000081
:105030000000040CF8000000000000000000000068
:10504000EF28100000000000000040603F0000005A
:10505000000000000018060202040810202030089A
:105060000000000000000000000000000000000040
:105070000000000000000000040000080000000024
:10508000000000020001000010000000AC50000809
:10509000000000202800000028010008D45000086B
:1050A00028000020380C0000440100080100000026
:1050B000100000000000000000127A000000000054
:1050C00000000000000000000000000000000000E0
:0450D00000000000DC
:04000005080000ED02
:00000001FF
