:020000040800F2
:10000000C80A0020010100084F3500086D310008C2
:100010004D350008B9090008D9400008000000006B
:10002000000000000000000000000000C3380008CD
:10003000ED0D000800000000C13800081939000863
:100040001B0100081B0100081B0100081B01000820
:100050001B0100081B0100081B0100081B01000810
:100060001B0100081B0100081B0100081B01000800
:100070001B0100081B0100081B010008BD09000846
:100080001B0100081B0100081B0100081B010008E0
:100090001B0100081B0100081B0100081B010008D0
:1000A0001B010008913900081B0100081B01000812
:1000B000C13900081B0100081B0100081B010008D2
:1000C0001B0100081B0100081B0100081B010008A0
:1000D0001B010008854000081B0100081B010008E7
:1000E0001B0100081B0100081B010008DFF80CD0F1
:1000F00000F0E6FB004800479D4A0008C80A0020BF
:100100000648804706480047FEE7FEE7FEE7FEE7B1
:10011000FEE7FEE7FEE7FEE7FEE7FEE78F390008B1
:10012000ED000008202A04DB203A21FA02F0002129
:10013000704721FA02F3D040C2F1200291400843F7
:100140001946704740EA01039B0703D009E008C93C
:10015000121F08C0042AFAD203E011F8013B00F88C
:10016000013B521EF9D27047D2B201E000F8012BD8
:10017000491EFBD270470022F6E710B513460A4627
:1001800004461946FFF7F0FF204610BD30B505467E
:100190002A460B4612F8010B13F8014B08B1A04296
:1001A000F8D01CB1002802D06D1CF1E7284630BD04
:1001B000421C10F8011B0029FBD1801A7047F0B4D3
:1001C00080EA0102D40F4200B2EB410F02D2024694
:1001D000084611464A0042D0C30DDDB2C1F3C752F2
:1001E000AD1A202D35DAC1F3160141F4000204B135
:1001F0005242C5F1200602FA06F12A411044B3EB3F
:10020000D05F23D0C4B1012DA0EBC35009DCF0BCFA
:100210004FF0004202EAC352DBB200F5000000F0EA
:10022000ACBA400000F1807000EBC350A0F18070C8
:1002300040EAD170490009E0490841EAC071A0EBE9
:10024000C35000F50000400800EBC350F0BC00F0C4
:100250008BBA6142012202EB4101001BF6E7F0BCC0
:10026000704781F00041AAE780F00040A7E780EAEC
:10027000010210B502F00043400022D04A001FD016
:10028000010E01EB1261C0F35600C2F3560240F4B6
:10029000000042F40002A0FB022000047F39140495
:1002A00000D0401C50EA124001D44000491EC2B2A6
:1002B0000C0604EBD010401C4008802A02D003E05A
:1002C000002010BD20F00100002900DA00201843B2
:1002D00010BD2DE9FE4F804681EA0300C00F0C4699
:1002E000009021F0004123F00045B8EB0200A94145
:1002F00005D24046214690461C460B46024623F056
:100300000040104347D0270DC7F30A00C3F30A513A
:100310000290401A019040286BDAC3F3130040F4B6
:10032000801B0098924620B10023D2EB030A63EBB6
:100330000B0B01985946C0F14002504600F0F3F90A
:1003400006460D4650465946019A00F0FBF910EB5F
:1003500008006141002487EA115284EAE7731A43D6
:1003600040D0009A62B3019A012A4FEA075215DC85
:10037000001B61EB02014FF0004202EA0752CDE997
:100380000042001C41F5801132462B4600F032FA43
:1003900003B0BDE8F08F40462146F9E7001B61EB52
:1003A0000201001C41F5801300185B412018A2F5E2
:1003B000001747EB030140EAD570B6196D4111E013
:1003C0006D084FEA360645EAC0754FEA0752001B32
:1003D00061EB0201001C41F5801149084FEA300031
:1003E0000019514132462B4603B0BDE8F04F00F0F2
:1003F000F2B90098012240000023D0EB020263EB27
:10040000E073009821464FEAE074B8EB000061EB1E
:100410000401E9E783F000435BE781F0004158E71E
:100420002DE9FE4F81EA030404F0004421F000416D
:1004300000944FF0000B23F0004350EA01045ED01B
:1004400052EA03045BD0C3F30A54C1F30A552C44A7
:10045000A4F2F3340194A0FB0254C1F3130141F45C
:100460008011C3F3130343F4801301FB024400FB28
:10047000034E840A970A44EA815447EA8357A4FB4F
:10048000076802958D0A05FB07854FEA932C04FB4C
:100490000C542705029D4FEA065847EA1637B5EB7C
:1004A00008056EEB070C870E920E47EA811742EAA9
:1004B0008312A7FB0201B6EB0B0164EB00042B0DCA
:1004C00043EA0C335E1844EB1C50DA465146E7FB16
:1004D0000201C5F313044FEA0B3343EA14534FEA06
:1004E0000432019C43EA0603A4F10C040294009C2C
:1004F000CDE900B400F07EF903B0BDE8F08F002034
:100500000146F9E72DE9F04D81EA030404F0004BC0
:1005100021F0004514464FF0000A23F0004150EA54
:10052000050220D054EA01021DD0C5F30A57024645
:10053000C5F31303C1F31300C1F30A5640F4801549
:1005400043F48013A7EB0608101BD64608F2FD38CB
:1005500073EB050002D308F1010801E092185B413A
:10056000B8F1000F03DA00200146BDE8F08D00204D
:100570004FF48011064684460EE0171B73EB050707
:1005800005D3121B63EB050306434CEA010C490833
:100590004FEA300092185B4150EA0107EDD152EA70
:1005A000030012D082EA040083EA0501084305D063
:1005B000101BAB4106D20122002306E000224FF0BF
:1005C000004302E06FF0010253101AEB06004CEBFF
:1005D000085110EB0A0041EB0B01BDE8F04D00F0B3
:1005E000FAB896230022114600F0C7B80EB540F2C3
:1005F000334102910021CDE900110A460B4600F07B
:10060000F9F803B000BD20F00040C10DC0F31600A2
:1006100040F400007F2901DA00207047962903DCAE
:10062000C1F19601C8407047963988407047000074
:1006300030B5041E71F1000404DB4FF00044404269
:1006400064EB0101141E73F1000405DB1C464FF03E
:100650000043524263EB0403994208BF904230BD0D
:1006600001F0004330B421F0004150EA010206D00D
:100670000A0DA2F56072C1F31301002A02DC30BC3E
:1006800000207047440F44EAC104C100E01830BCA8
:1006900000EBC25000F068B830B50B4601460020B0
:1006A0002022012409E021FA02F59D4205D303FA34
:1006B00002F5491B04FA02F52844151EA2F10102B5
:1006C000F1DC30BD2DE9F05F0546002092469B46E7
:1006D00088460646814640241BE028464146474658
:1006E0002246FFF71FFD53465A46C01A914110D3C8
:1006F00011461846224600F016F82D1A67EB01083D
:100700004F4622460120002100F00DF817EB0009AA
:100710004E41201EA4F10104DFDC484631462A4642
:100720004346BDE8F09F202A04DB203A00FA02F19C
:10073000002070479140C2F1200320FA03F31943CF
:1007400090407047202A06DBCB17203A41FA02F08E
:1007500043EAE07306E041FA02F3D040C2F120021E
:1007600091400843194670470029A8BF7047401CB4
:10077000490008BF20F00100704710B4B0FA80FCB7
:1007800000FA0CF050EA010404BF10BC704749B1F4
:10079000CCF1200421FA04F411FA0CF118BF012164
:1007A00021430843A3EB0C01CB1D4FEA00614FEA44
:1007B000102042BF002010BC704700EBC350104413
:1007C0000029A4BF10BC7047401C490008BF20F09E
:1007D000010010BC704710B5141E73F1000408DA54
:1007E000401C41F1000192185B411A4301D120F0F5
:1007F000010010BD2DE9F04D92469B4611B1B1FAB2
:1008000081F202E0B0FA80F220329046FFF78BFFCF
:1008100004460F4640EA0A0041EA0B0153465A4695
:10082000084313D0114653EA010019D0C8F1400221
:100830005046FFF777FC05460E465046594642465D
:10084000FFF771FF084305D0012004E02046394638
:10085000BDE8F08D0020054346EAE0762C4337439F
:100860000A986305E40AA0EB08000022FD0A44EAA6
:1008700047540A3002D500200146E9E70105101966
:100880006941DDE9084500196941BDE8F04DA2E77D
:10089000C1F30A52C1F3130140F2FF3341F4801156
:1008A0009A4202DA00200146704740F233439A42EE
:1008B000A2F2334202DC5242FFF734BCFFF733BFEF
:1008C000064C074D06E0E06840F0010394E807009D
:1008D00098471034AC42F6D3FFF70CFC546900087B
:1008E0007469000870B5044600688168C943C90787
:1008F00017D1816821F00101816001F0A1F805465E
:100900000AE000BF01F09CF8401B022804D92068CF
:100910008068C043C00706D020688068C043C00715
:10092000F0D0002070BDA06A40F01000A062E06A24
:1009300040F00100E062012070BD0000F8B5002623
:100940000446009600688168C943C9072DD08168B4
:1009500041F001018160164816490068B0FBF1F0D2
:1009600000E0401E00900028FBD101F069F8054628
:1009700016E000BF01F064F8401B022810D920687F
:100980008068C043C0070BD0A06A40F01000A0628E
:10099000E06A40F00100E06284F824600120F8BDC4
:1009A00020688068C043C007E4D10020F8BD000083
:1009B0001000002040420F00FEE70000014800F058
:1009C00023BE00008001002030B590F84050012483
:1009D000AC40C56B6C60046863604368102B0368AF
:1009E00003D099600068C26030BD9A600068C16041
:1009F00030BD00001FB50020019002900390402000
:100A000000906946014800F021FF1FBD0008014029
:100A10001FB500200290402000900120019003208B
:100A2000054C03906946204600F010FF012240214A
:100A3000204601F000F81FBD00080140002100EB36
:100A4000800001E000BF491CB1EB400FFAD37047B2
:100A500010B504468C2000F079F800F00F01000971
:100A600000EB800001EB40002070882000F06EF861
:100A700000F00F01000900EB800001EB4000607006
:100A8000862000F063F800F00F01000900EB800001
:100A900001EB4000A0708A2000F058F800F00F0130
:100AA000000900EB800001EB4000E070842000F0C2
:100AB0004DF800F00F01000900EB800001EB400051
:100AC0002071822000F042F800F00F01000900EBD5
:100AD000800001EB40006071802000F037F800F0EA
:100AE0000F01000900EB800001EB4000A07110BD78
:100AF0007FB50020029080200124CDE9000403206E
:100B0000114D03906946284600F0A0FE4020CDE933
:100B100000046946284600F099FE2020CDE9000433
:100B20006946284600F092FE00228021284600F007
:100B300082FF00222021284600F07DFF0022402174
:100B4000284600F078FF7FBD000801402DE9F04104
:100B5000394C002540F001072A462021204600F0AC
:100B60006AFF0120FFF76AFF00228021204600F083
:100B700062FF0120FFF762FF01222021204600F0E2
:100B80005AFF0120FFF75AFF0026F80701D0012283
:100B900000E000224021204600F04DFF0120FFF739
:100BA0004DFF01228021204600F045FF0120FFF784
:100BB00045FF00228021204600F03DFF0120FFF785
:100BC0003DFF761C7F08F6B2082EDED3FFF712FF3A
:100BD0000120FFF733FF00266D084021204600F07A
:100BE00025FF08B145F080050120FFF727FF01220E
:100BF0008021204600F01FFF0120FFF71FFF002289
:100C00008021204600F017FF0120FFF717FF761C18
:100C1000F6B2082EE0D3FFF7FBFE0120FFF70EFF30
:100C200000222021204600F006FF0120FFF706FFEA
:100C30002846BDE8F08100000008014070B5054677
:100C400000218E2000F064F828780A24B0FBF4F12B
:100C500004FB1101B0FBF4F041EA0010C1B28C209A
:100C600000F056F86878B0FBF4F104FB1101B0FB1A
:100C7000F4F041EA0010C1B2882000F049F8A878E9
:100C8000B0FBF4F104FB1101B0FBF4F041EA0010F9
:100C9000C1B2862000F03CF8E878B0FBF4F104FB28
:100CA0001101B0FBF4F041EA0010C1B28A2000F05B
:100CB0002FF82879B0FBF4F104FB1101B0FBF4F03C
:100CC00041EA0010C1B2842000F022F86879B0FB3C
:100CD000F4F104FB1101B0FBF4F041EA0010C1B2E1
:100CE000822000F015F8A879B0FBF4F104FB1101A3
:100CF000B0FBF4F041EA001000F07F01802000F02A
:100D000007F8BDE8704080218E2000F001B8000097
:100D10002DE9F041344C0E460746002220212046A2
:100D200000F089FE0120FFF789FE00228021204685
:100D300000F081FE0120FFF781FE012220212046E4
:100D400000F079FE0120FFF779FE0025F80701D0B9
:100D5000012200E000224021204600F06CFE01202C
:100D6000FFF76CFE01228021204600F064FE012086
:100D7000FFF764FE00228021204600F05CFE012087
:100D8000FFF75CFE6D1C7F08EDB2082DDED3002559
:100D9000F00701D0012200E000224021204600F0AF
:100DA0004AFE0120FFF74AFE01228021204600F082
:100DB00042FE0120FFF742FE00228021204600F083
:100DC0003AFE0120FFF73AFE6D1C7608EDB2082DC1
:100DD000DED300222021204600F02DFEBDE8F041A8
:100DE0000120FFF72BBE0000000801407047000003
:100DF000054806494FF47A720068B0FBF1F00449E7
:100E000008605043486070471000002040420F00C7
:100E10002000002010B580210348FFF7ACF90349FA
:100E20000020088010BD000044060020280000209B
:100E300010B5ADF5027D0E490EA0CDE9000110A35D
:100E400011A24FF4007102A803F058F919A424A1CB
:100E500002A800F0A3F8002806D021A1204600F047
:100E60009DF8002800D001200DF5027D10BD000086
:100E7000D86800086455356A5667314C39620000FD
:100E8000746573740000000041542B4D5154545547
:100E90005345524346473D302C312C222573222C9A
:100EA000222573222C222573222C302C302C222236
:100EB0000D0A000041542B4D515454434F4E4E3DAA
:100EC000302C226D717474732E6865636C6F756459
:100ED000732E636F6D222C313838332C310D0A009C
:100EE0004F4B000000B5A1B008A000900AA30FA2CC
:100EF000802101A803F002F912A101A800F04EF828
:100F0000002800D0012021B000BD00003133383569
:100F10003139303138323500434D43432D3430328E
:100F20002D322E34472D65787400000041542B4338
:100F3000574A41503D222573222C222573220D0A47
:100F400000000000474F54204950000000B5C1B0D8
:100F5000034600910AA24FF4807101A803F0CEF875
:100F60000DA101A800F01AF810B1012041B000BD98
:100F7000C82003F05FFD08A101A800F00FF8F5E715
:100F800041542B4D5154545355423D302C2225731E
:100F9000222C25640D0A00004F4B00002DE9F04380
:100FA000A1B0894605464FF47A74FFF733FF28460F
:100FB000FFF7FEF882B2C8232946224802F029F83A
:100FC000322003F037FD204F0026E8462BE000BF1B
:100FD00000F042F820B3C82003F02CFD3D887F2D9F
:100FE00000D97F252A4619496846FFF7ABF808F86B
:100FF0000560B9F100000AD001466846FFF7C6F85F
:1010000028B1FFF707FF012021B0BDE8F08310A150
:101010006846FFF7BBF818B1FFF7FCFE0020F3E7C6
:101020000A2003F007FD641EA4B2D1D23C887F2CB5
:1010300000D97F24224605496846FFF783F80DF85A
:101040000460E9E7F00000202800002044060020AA
:101050004552524F520000000748018839B10188BB
:101060004288914205D10021418001207047002033
:10107000704701884180FAE72800002072B6FEE739
:10108000F8B50024009490F824202546012A12D0B7
:10109000012280F824204A681F23072A0DD20668FF
:1010A000776B521E02EB820293409F430B68934082
:1010B0001F43776319E00220F8BD06680D2A0AD2A3
:1010C000376BD21F02EB820293409F430B68934021
:1010D0001F43376309E0F76A0D3A02EB820293403F
:1010E0009F430B6893401F43F7620A680723066813
:1010F0000A2A0AD3F7680A3A02EB420293409F4356
:101100008B6893401F43F76008E0376902EB4202A7
:1011100093409F438B6893401F4337610A68102AAE
:1011200001D0112A20D1124B02689A4217D193683C
:101130001B0219D4936843F40003936009681029D3
:1011400012D10C490C4A0968B1FBF2F101EB8101A3
:10115000490000E0491E00910029FBD104E0816AAA
:1011600041F020018162012480F824502046F8BD1E
:10117000002401401000002040420F000068C06CB5
:10118000704700002DE9F0414FF0000704003D4694
:101190007ED0A06A002628B9E66284F82460204642
:1011A00000F07EF82046FFF79DFBA16AC90600D437
:1011B00020B1A06A40F01000A06269E0A16A21F4A9
:1011C000885141F00201A1626268E169237B0A4310
:1011D00047EA43010A43A1684FF48077B94209D036
:1011E000012907D05FF0000194F814C0BCF1010F91
:1011F00002D00AE03946F7E7F3B1A36A43F02003CF
:10120000A362E36A43F00103E3622368D3F804C0F6
:101210002CF4694C4CEA010CC3F804C021688B68BB
:10122000DFF870C003EA0C0313438B60A168B94276
:101230000BD0012909D00CE0DFF85CC0A3690CEBEE
:1012400043330B4343F40061DFE7218A0D05A5F525
:1012500080152168CB6A23F470032B43CB6221688D
:1012600089680E4B1940914208D1E662A16A21F0CB
:10127000020141F00101A162BDE8F081A06A20F005
:10128000020040F01000A062E06A40F00100E0625D
:101290000120F1E7FDF7E1FF00E0FFFFFE0E1FFF79
:1012A00000B585B000210091019102910391006881
:1012B0000E49884218D10E48816941F4007181615C
:1012C000816901F400710491816941F00801816133
:1012D0008069694600F00800049002200090032015
:1012E0000190044800F0B2FA05B000BD00240140AE
:1012F00000100240000C01402DE9F84300270D4684
:101300000446009700F09CFB804620688168C90570
:1013100008D5A06A40F02000A06284F82470012063
:10132000BDE8F8834168C90503D4C06A10F4700FA2
:101330002AD0022000F022FC3B490968B1FBF0F6FC
:101340002068036939490B424FEA61014FEAA11253
:101350001FD1C3684FEA611C13EA0C0F19D103694E
:101360000B4225D1C068104222D1142023E0681C12
:101370000AD02DB100F064FBA0EB0800A84203D90D
:1013800020680068800725D5206800688007EED5B2
:101390002DE003690B4202D1C168114206D00269F7
:1013A00023490A4206D1C068084203D1542002E012
:1013B000292000E0FC204643009816E0681C11D06C
:1013C0002DB100F03DFBA0EB0800A8420AD900981F
:1013D000B04207D2A06A40F00400A06284F82470F2
:1013E00003209DE70098401C0090B042E6D321689E
:1013F0006FF012000860A06A40F40070A0622068DC
:101400008068C0F3424007280CD1207B50B9A06A05
:1014100020F48070A062A06AC00403D4A06A40F0E7
:101420000100A06200207BE71000002024499224E4
:101430004992240070B5044690F8240001280DD08C
:10144000012084F824002046FFF778FA02004FF0CC
:10145000000005D084F82400104670BD022070BD45
:10146000A16A40F20123994341F48071A1621F4DAA
:1014700023681F49AB4218D10E6816F4702F14D0A0
:10148000A66A46F48016A6620E68760505D5A66A99
:1014900026F4005646F48056A662A66AF6040AD5DB
:1014A000E66A26F00606E66206E0A66A26F48016DC
:1014B000A6625E68E9E7E06284F824006FF002004B
:1014C000186020688368C3F34243072B05D1A84204
:1014D00008D1096811F4702F04D0816841F480119B
:1014E0008160B9E7816841F4A001F9E70028014073
:1014F0000424014010B5044690F82400012807D0C8
:10150000012084F824002046FFF7ECF910B107E031
:10151000022010BDA16A21F4885141F00101A162AD
:10152000002184F8241010BD10B590F8211000227D
:10153000022905D00421816380F82020012010BDFC
:1015400001680B6823F00E030B6001680B6823F041
:1015500001030B6090F84030C46B012101FA03F3E2
:10156000636080F8211080F82020104610BD000034
:1015700010B590F821100024022903D004218163C2
:1015800001243DE001680A6822F00E020A60016849
:101590000A6822F001020A601A4A0168914201D1E8
:1015A000012121E0174A1432914201D110211BE0A0
:1015B000144A2832914201D1891515E0114A3C3272
:1015C000914201D189140FE00E4A5032914202D16A
:1015D0004FF4803108E00B4A6432914202D14FF45B
:1015E000801101E04FF08071064A083A51600121F4
:1015F00080F82110002180F82010416B01B188474C
:10160000204610BD080002402DE9F05FC16B0C6858
:1016100001680B68D0F840C0042202FA0CF2494D70
:10162000DFF824A1494E4A4FDFF828B1DFF828E15E
:1016300022422CD05A072AD50A68920603D40A6897
:1016400022F004020A600168A94201D1042219E0D3
:10165000514501D1402215E0B14202D14FF48062E0
:1016600010E0B94202D14FF480420BE0594502D15B
:101670004FF4802206E0714502D14FF4800201E070
:101680004FF080622F4908394A60C16A3BE04FF051
:10169000020808FA0CF818EA040F4FF000094FF09E
:1016A000010235D05FEA837832D50B689B0605D4FA
:1016B0000B6823F00A030B6080F821200168A9421F
:1016C00001D1022219E0514501D1202215E0B14299
:1016D00002D14FF4007210E0B94202D14FF400522F
:1016E0000BE0594502D14FF4003206E0714502D1BA
:1016F0004FF4001201E04FF00072124908394A60BD
:1017000080F82090816A00291AD0BDE8F05F084770
:10171000082505FA0CF5254212D01B0710D50B68D9
:1017200023F00E030B6090F84010C36B02FA01F136
:101730005960826380F8212080F82090016BE2E7F5
:10174000BDE8F09F080002401C000240300002404B
:1017500044000240580002406C00024030B528B3FB
:1017600008C8134914221944B1FBF2F18900C1637E
:1017700010498163022141771A6843F6F0718A4368
:10178000D0E900142143D0E902452C4321430469E8
:101790002143446921438469214311431960002195
:1017A0004163012242770177084630BD012030BDF8
:1017B000F8FFFDBF0000024070B5044690F820001D
:1017C000002501280CD0012084F8200094F8216025
:1017D0000020012E06D084F820000225284670BD86
:1017E000022070BD022684F82160A063206806688C
:1017F00026F0010606602046FFF7E6F8E06A0028BA
:101800002068016802D041F00E0106E021F00401D9
:1018100001602068016841F00A01016020680168E8
:1018200041F001010160D9E770B5044600F008F904
:101830000546601C02D004480078044400F000F91A
:10184000401BA042FAD370BD040000202DE9F84FE0
:10185000DFF8B8910024A9F1040B23460F2709F102
:10186000040AABF1040EC9E00125A5402A40AA42B2
:101870007DD1674ED1F804C0ACEB0608B44532D038
:1018800014DCBCF1030F3AD009DCBCF1000F2AD004
:10189000BCF1010F1CD0BCF1020F31D11DE0BCF135
:1018A000110F17D0BCF1120F2AD119E0B8F5881F1B
:1018B00019D006DCB8F5803F15D0B8F5801F1FD1D0
:1018C00011E0B8F5001F0ED0B8F5041F18D10AE0DA
:1018D000CB6815E0CB681B1D12E0CB6808330FE026
:1018E000CB680C330CE08B682BB1012B4FF0080355
:1018F00003D0456104E0042302E0056100E0002319
:10190000FF2A01D8064601E000F104064FEA8405EB
:1019100001D9A5F12005D6F8008007FA05FC28EAD0
:101920000C0803FA05F548EA0508C6F800804D687A
:10193000ED0062D5374DAE6946F00106AE61AD6986
:1019400024F0030605F001050095334D06EB050C68
:10195000DCF80850A607360F07FA06F825EA08054E
:10196000DFF8B880404503D14FF0000817E044E0AD
:10197000DFF8AC80404502D14FF001080FE0DFF8FE
:10198000A480404502D14FF0020808E0DFF89880BB
:10199000404502D14FF0030801E04FF0040808FA77
:1019A00006F848EA0508CCF808804D68D9F80060C8
:1019B000ED024D4601D5164300E096432E604D687A
:1019C000DAF80060AD02554601D5164300E09643B3
:1019D0002E604D68DBF80060AD035D4601D516430F
:1019E00000E096432E604D68DEF80060ED0375461A
:1019F00001D5164300E096432E60641C0D682A460C
:101A0000E5407FF431AFBDE8F88F000008040140E5
:101A100000001110001002400000014000080140C9
:101A2000000C014000100140001401408068084093
:101A300000D0012070470AB1016170470904FBE73B
:101A40000148806870470000040000200248816857
:101A5000027811448160704704000020074810B5E7
:101A6000016841F010010160032000F075F80F20BB
:101A700000F006F800F024F8002010BD002002401D
:101A800070B50D4D04464FF47A712878B1FBF0F033
:101A90000A490968B1FBF0F000F0A4FB48B9102C2A
:101AA00007D200222146501E00F036F800206C605C
:101AB00070BD012070BD0000040000201000002057
:101AC0000C4808B5816941F001018161816901F02B
:101AD00001010091C16941F08051C161C06900F00C
:101AE000805000900448416821F0E06141F00071AD
:101AF000416008BD0010024000000140002809DBE1
:101B000000F01F02012191404009800000F1E02017
:101B1000C0F8001170470000F0B40E4B1B680C4673
:101B2000C3F30223C3F10705042D00D90425191DB1
:101B3000072901D2002300E0DB1E012606FA05F189
:101B4000491E214099409E40761E16403143F0BC0C
:101B500002F0ECBA0CED00E0064900F0070208685C
:101B60004FF6FF03184040EA0220034A1043086082
:101B7000704700000CED00E00000FA0510B50146CA
:101B80000020234C012922D0022939D010291DD14F
:101B900061682268D20119D51E48C1F38342C90386
:101BA000805C0AD561681B4AC1F34041921E515CBA
:101BB000194AB2FBF1F1484301E018494843616812
:101BC000490203D440000321B0FBF1F010BD226AAA
:101BD000C2F30121012903D1920701D5C80310BD29
:101BE000022905D1626A920702D549F6404010BD2C
:101BF0000329FCD121688903F9D54FF2244010BD97
:101C000000F02AF96168C1F38131491C4900DBE722
:101C100000100240C84E000800127A0000093D0082
:101C20002DE9F84305460078354CC00754D0E069EB
:101C30000026C00008D4E06940F08050E061E0690F
:101C4000012600F0805000902E480168C90512D48A
:101C50000168804641F480710160FFF7F1FE07469C
:101C600005E000BFFFF7ECFEC01B642823D8D8F8BE
:101C70000000C005F6D5206A10F4407021D0A98874
:101C800001F4407181421CD0206A1F49012220F4D6
:101C900040700A6000220A602062C00711D0FFF77E
:101CA000CFFE074641F2883808E000BFFFF7C8FEC4
:101CB000C11B414502D90320BDE8F883206A800793
:101CC000F4D5206A696820F44070084320621EB190
:101CD000E06920F08050E0612878800705D56068D1
:101CE000A96820F44040084360602878C00605D504
:101CF0006068E96820F48000084360600020DBE74A
:101D00000010024000700040400442422DE9F047BC
:101D10000F46050061D0434E306800F00700B8421E
:101D200009D2306820F0070038433060306800F096
:101D30000700B84251D128683B4C810712D54007B3
:101D400003D5606840F4E06060602878000703D540
:101D5000606840F4605060606068A96820F0F0003E
:101D6000084360602878C00728D06868012810D030
:101D70002168022810D0890700292EDA616821F035
:101D8000030101436160FFF75BFE804641F2883941
:101D90000DE021688903EFE78901EDE7FFF750FEC9
:101DA000A0EB0801494502D90320BDE8F08760682F
:101DB000696800F00C00B0EB810FEFD1306800F0E3
:101DC0000700B8420BD9306820F007003843306074
:101DD000306800F00700B84201D00120E5E728781C
:101DE000400705D56068E96820F4E060084360605A
:101DF0002878000706D56068296920F4605040EA19
:101E0000C100606000F038F86168084AC1F303114E
:101E1000515CC8400649086006480068FFF730FE7C
:101E20000020C2E70020024000100240D84E000807
:101E30001000002008000020044805490068496897
:101E4000044AC1F30221515CC840704710000020D1
:101E500000100240E84E000804480549006849683F
:101E6000044AC1F3C221515CC840704710000020F1
:101E700000100240E84E00080E4A51680E4801F07A
:101E80000C03042B11D0082B0FD10C48C1F3834352
:101E9000C903C05C0AD55168084AC1F34041921E8B
:101EA000515C054A5043B0FBF1F070470449484388
:101EB000704700000010024000127A00B64E000881
:101EC00000093D002DE9F84F040070D02078C04D86
:101ED000C00749D06868C0F38100012807D068684E
:101EE000C0F38100022809D16868C00306D52868BC
:101EF000800339D560680028E7D035E06068B0F528
:101F0000803F0BD010B1B0F5A02F11D0286820F47D
:101F100080302860286820F4802002E0286840F49F
:101F200080302860606890B1FFF78AFD06460AE0BD
:101F3000286840F480202860F0E700BFFFF780FDAC
:101F4000801B642873D828688003F7D50CE0FFF75E
:101F500077FD064605E000BFFFF772FD801B642891
:101F6000F0D828688003F7D420789A4E80074FF085
:101F700001094FF0000839D5686810F00C0F07D040
:101F80006868C0F38100022809D16868C00306D4DC
:101F90002868800714D52069012808D110E020693D
:101FA000B0B1C6F80090FFF74BFD074605E00AE127
:101FB000FFF746FDC01B0228C4D828688007F7D564
:101FC0002868616920F0F80040EAC10028600DE04F
:101FD000C6F80080FFF734FD074604E0FFF730FD48
:101FE000C01B022823D828688007F7D42078000770
:101FF0002CD57948A169D9B1C0F80090FFF720FD30
:10200000074604E0FFF71CFDC01B02280FD8686AD2
:102010008007F7D571484FF4FA510068B0FBF1F032
:10202000009000BF0098411E0091FAD20EE080E0BF
:10203000C0F80080FFF704FD074604E0FFF700FD4D
:10204000C01B022875D8686A8007F7D4207840073B
:1020500060D5E8690027C00008D4E86940F08050E6
:10206000E861E869012700F0805000905C48016851
:10207000C90513D40168834641F480710160FFF7FC
:10208000DFFC824606E000BFFFF7DAFCA0EB0A00A7
:1020900064284ED8DBF80000C005F5D5E0680128BB
:1020A0000AD008B1052813D0286A20F00100286260
:1020B000286A20F0040002E0286A40F0010028624B
:1020C000E06841F2883B98B1FFF7BAFC82460BE02A
:1020D000286A40F004002862EEE700BFFFF7B0FC7A
:1020E000A0EB0A0159455AD8286A8007F6D50CE0BA
:1020F000FFF7A6FC824605E0FFF7A2FCA0EB0A0171
:1021000059454CD8286A8007F6D41FB1E86920F0F9
:102110008050E861E06988B36968C1F381010229F0
:1021200044D00228C6F8608004D0FFF789FC04463A
:1021300038E034E0FFF784FC074604E0FFF780FC5A
:10214000C01B02282BD828688001F7D4206AB0F57C
:10215000803F05D16868A16820F4003008436860BA
:10216000D4E908010843696821F4741108436860E0
:10217000C6F86090FFF764FC044606E025E000BF67
:10218000FFF75EFC001B022809D828688001F7D5FC
:102190001BE000BFFFF754FC001B022802D90320FC
:1021A000BDE8F88F28688001F4D40EE00128F7D04C
:1021B0006868226A00F48031914204D1616A00F4B7
:1021C0007010884201D00120EAE70020E8E7000013
:1021D00000100240000042428004424210000020F1
:1021E0000070004010B5401EB0F1807F01D3012087
:1021F00010BD4FF0E02460610F21601701F096FFE1
:102200000020A06107202061002010BD70477047AA
:1022100010B590F83C20012A22D0012280F83C2001
:10222000CA688C6822F4407222434C6822F48062AF
:1022300022430C6822F4006222430C6922F480528B
:1022400022434C6922F400522243C969002322F43C
:1022500080420A4301684A6480F83C30002010BD87
:10226000022010BD70B590F83C20012A26D0012430
:1022700080F83C40022280F83D2003685A689D683F
:1022800022F070060A6832435A600D4B02689A4287
:1022900008D0B2F1804F05D00A4B9A4202D00A4BC7
:1022A0009A4204D1496825F080031943916080F86F
:1022B0003D40002180F83C10084670BD022070BDF2
:1022C000002C0140000400400008004010B504004C
:1022D00003D094F83D0010B107E0012010BD0020AC
:1022E00084F83C00204600F01FF8022084F83D00EE
:1022F000211D206801F06AFB012084F8460084F863
:102300003E0084F83F0084F8400084F8410084F8DF
:10231000420084F8430084F8440084F8450084F8BF
:102320003D00002010BD000000B585B000210091E7
:10233000019102910391204A0168204891420ED1F7
:10234000816941F4006181618069002200F40060CC
:10235000049003211920FFF7DFFB192028E0B1F1D9
:10236000804F27D1C16941F00101C161C16901F00C
:1023700001010491816941F004018161806969462C
:1023800000F0040004904FF4004000900C48FFF768
:102390005DFA0C48416821F4407141F0E06141F47C
:1023A00080714160002202211C20FFF7B5FB1C2038
:1023B000FFF7A4FB05B000BD002C01400010024057
:1023C000000801400000014090F83D10012901D0B3
:1023D00001207047022180F83D1000680B498842B7
:1023E00008D0B0F1804F05D00949884202D0094990
:1023F000884204D1816801F00701062903D00168F1
:1024000041F001010160002070470000002C0140F4
:10241000000400400008004090F83D10012901D060
:1024200001207047022180F83D100168CA6842F01F
:102430000102CA6000680B49884208D0B0F1804FA1
:1024400005D00949884202D00849884204D18168F0
:1024500001F00701062903D0016841F00101016084
:1024600000207047002C014000040040000800409C
:1024700070B5044690F83C000025012817D00126CD
:1024800084F83C60022084F83D002068826822F0D5
:10249000770222F47F4282600868502838D00DDC31
:1024A00020284FD005DC90B3102811D14AE002203B
:1024B00070BD302846D040280AD13BE060282FD09C
:1024C00070280DD0B0F5805F03D0B0F5005F12D05A
:1024D000012584F83D60002084F83C00284670BD4A
:1024E000CB68D1E90121206801F0B9FA2068816840
:1024F00041F0770109E0CB68D1E90121206801F0C2
:10250000AEFA2068816841F480418160E1E719E01A
:10251000CA684968206801F057FB5021206806E02E
:10252000CA684968206801F08DFB6021206801F0CD
:10253000A0FACEE7CA684968206801F045FB40214F
:102540002068F4E7226801461046F0E770B50446BB
:102550000068B0F1804F17D1207F012814D1134DAE
:10256000287890B1287801280ED10021204600F06B
:10257000F4FAA8602068016A21F00A01016220686B
:10258000016A01620220287070BD0021204600F01F
:10259000E4FA68602068016A21F00A01016220689B
:1025A000016A41F0020101620120ECE71400002001
:1025B0002DE9F041054690F83C0000260C46012824
:1025C00010D0012085F83C0072B1042A1CD0082AE2
:1025D0002CD00C2A50D00126002085F83C00304633
:1025E000BDE8F0810220FBE7D4E90012E368286827
:1025F00001F0FCFA2868816921F00C0181612868EA
:102600008169A26811430FE0D4E90012E3682868E9
:1026100001F02AFB2868816921F440618161286802
:102620008169A26841EA02218161D5E72868D4E97D
:10263000002C277B036A016A21F480710162C16961
:1026400023F4007321F0030141EA0C0121F0F00CA6
:1026500039074FF400774CEA116107EA02221A4366
:10266000C16102622868C16921F00C01C16128685A
:10267000C169A26811432BE02868D4E90021E7680A
:10268000036AD0F820C02CF4805CC0F820C0D0F8D9
:102690001CC023F400532CF4407C4CEA012121F4AB
:1026A000704C4FF6FF7101EA07314FF4005741EAD1
:1026B0000C0107EA02321A43C16102622868C1694B
:1026C00021F44061C1612868C169A26841EA022120
:1026D000C16181E710B5040003D094F83D0010B14A
:1026E00007E0012010BD002084F83C00204600F0E7
:1026F0001EF8022084F83D00211D206801F066F9D3
:10270000012084F8460084F83E0084F83F0084F8F5
:10271000400084F8410084F8420084F8430084F8C3
:10272000440084F8450084F83D00002010BD704747
:1027300030B50446002551B104290DD0082910D028
:1027400094F8410094F84520012811D10EE094F846
:102750003E0094F84220F7E794F83F0094F84320B5
:10276000F2E794F8400094F84420EDE7012A01D004
:10277000012030BD022059B1042912D0082919D0F6
:1027800084F8410084F845000C2938D0012534E054
:1027900084F83E0084F842002068C26842F00202D9
:1027A00010E084F83F0084F843002068C26842F0DB
:1027B000040207E084F8400084F844002068C268FE
:1027C00042F00802C2600122206801F03BF90E4984
:1027D0002068884208D0B0F1804F05D00B4988426C
:1027E00002D00B49884204D1816801F00701062913
:1027F00003D0016841F001010160284630BD206826
:10280000C26842F01002DDE7002C014000040040E5
:10281000000800402DE9F04104460068C6680569DB
:102820004FF00007A90713D5B10711D5F91E0161B3
:1028300001202077206880698007204602D0FFF7BA
:1028400085FE04E000F0A4F8204600F036F9277772
:10285000680716D5700714D521686FF00400086169
:10286000022020772068806910F4407F204602D043
:10287000FFF76CFE04E000F08BF8204600F01DF935
:102880002777280715D5300713D521686FF0080082
:102890000861042020772068C0698007204602D0A4
:1028A000FFF754FE04E000F073F8204600F005F94D
:1028B0002777E80616D5F00614D521686FF01000CA
:1028C0000861082020772068C06910F4407F204606
:1028D00002D0FFF73BFE04E000F05AF8204600F07B
:1028E000ECF82777E80708D0F00706D021686FF0EA
:1028F00001000861204600F02FF9280608D53006AF
:1029000006D521686FF0800008612046FFF77EFC45
:10291000680608D5700606D521686FF0400008618A
:10292000204600F02FF9A8060AD5B00608D5216880
:102930006FF0200008612046BDE8F041FFF767BC5A
:10294000BDE8F08100B585B00021009101910291B0
:10295000039100680B49884212D10B48816941F00C
:10296000040181618069694600F0040004904FF41D
:10297000807000900220019003900448FEF766FFEB
:1029800005B000BD002C01400010024000080140CD
:10299000704770B5044690F83C0000260D460128AB
:1029A0000FD0012084F83C006AB1042A1DD0082A07
:1029B0002FD00C2A3FD00126002084F83C0030465E
:1029C00070BD022070BD206801F05CF8206881694C
:1029D00041F0080181612068816921F00401816171
:1029E000206881692A69114311E0206801F072F8BA
:1029F0002068816941F4006181612068816921F466
:102A000080618161206881692A6941EA02218161CE
:102A1000D2E7206801F08AF82068C16941F0080116
:102A2000C1612068C16921F00401C1612068C169E8
:102A30002A69114311E0206801F0A4F82068C169F7
:102A400041F40061C1612068C16921F48061C16104
:102A50002068C1692A6941EA0221C161ACE710B569
:102A6000040003D094F83D0010B107E0012010BD30
:102A7000002084F83C00204600F01EF8022084F874
:102A80003D00211D206800F0A1FF012084F84600D0
:102A900084F83E0084F83F0084F8400084F8410048
:102AA00084F8420084F8430084F8440084F8450028
:102AB00084F83D00002010BD7047704710B50446F3
:102AC000022249B104290ED0082913D094F84100FC
:102AD000012816D0012010BD94F83E000128F9D13C
:102AE00084F83E200FE094F83F000128F2D184F8EA
:102AF0003F2008E094F840000128EBD184F8402002
:102B000001E084F841200122206800F09BFF0F497A
:102B10002068884203D1426C42F40042426420683B
:102B2000884208D0B0F1804F05D00949884202D0D0
:102B30000849884204D1816801F00701062903D0C1
:102B4000016841F001010160002010BD002C01402E
:102B5000000400400008004070470246002041B1D8
:102B6000042909D008290AD00C2901D11068006C69
:102B700070471068406B70471068806B7047106832
:102B8000C06B70477047704710B5044600684069D5
:102B900094F84110C0F3C010212911D180B12068F0
:102BA000143050E8001F21F0800140E80012002A94
:102BB000F5D1A06B08B1FEF7B7FC204601F015F97E
:102BC0002068406994F84210C0F38010222911D186
:102BD00080B12068143050E8001F21F0400140E827
:102BE0000012002AF5D1E06B08B1FEF79DFC2046EB
:102BF00001F0D4F8002010BD70470000F8B501685E
:102C000004460868CA684B6910F00F0F4FF00005C2
:102C100059D003F0010602F49077374365D0C1071D
:102C200005D0D10503D5616C41F001016164410714
:102C300005D5D90703D0616C41F0020161648107B9
:102C400005D5D90703D0616C41F004016164010727
:102C500007D502F02001314303D0616C41F0080137
:102C60006164616C00293AD0800604D5900602D5D3
:102C7000204601F0C8F820684069616CC0F38010FC
:102C8000090700D460B3204601F088F82068406945
:102C9000400621D52068143050E8001F21F0400183
:102CA00040E80012002AF5D1E06BA8B16D494163FC
:102CB000E06BFEF75DFC002811D0E06B416B01B0CA
:102CC000BDE8F040084783060FD593060DD5204692
:102CD000BDE8F84001F097B82046FFF78DFFF8BD3A
:102CE0002046FFF789FF6564F8BD266B2023012E7F
:102CF0007CD1C6067AD5D60678D508684868009093
:102D000048694FF00206400640D5E16B086840680C
:102D10000004000CE8D0A28D8242E5D9E0858869E4
:102D200020282DD020680C3050E8001F21F480713D
:102D300040E80012002AF5D12068143050E8001F46
:102D400021F0010140E80012002AF5D1206814307A
:102D500050E8001F21F0400140E80012002AF5D1A0
:102D600084F84230256320680C3050E8001F21F0C1
:102D7000100140E80012002AF5D1E06BFEF7D4FB09
:102D80006663A08DE18D401A81B22AE0A08DE18DAD
:102D9000401A81B2E08D0028A6D00029A4D0226874
:102DA0000C3252E8000F20F4907042E80007002F28
:102DB000F5D12068143050E8002F22F0010240E8DD
:102DC0000027002FF5D184F84230256320680C30AD
:102DD00050E8002F22F0100240E80023002BF5D12C
:102DE00066632046FFF7CFFEF8BDFFE705062BD54B
:102DF000150629D594F841002128F5D1A068B0F531
:102E0000805F01D12069B0B1206A411C2162216834
:102E100000784860E08C401E0004000CE084E3D1A0
:102E20002068C16821F08001C1602068C16841F05C
:102E30004001C160D8E7206A0088C0F308004860FC
:102E4000206A801C2062E5E74006CDD55006CBD530
:102E5000CA68204622F04002CA6084F8413000F07F
:102E600028F9C1E79F3C000870B5040004D094F82D
:102E70004100002510B106E0012070BD84F84050EB
:102E8000204600F023F8242084F841002068C1681F
:102E900021F40051C160204601F016F82068016954
:102EA00021F4904101612068416921F02A014161CA
:102EB0002068C16841F40051C1606564202084F835
:102EC000410084F842006563002070BDF0B585B014
:102ED000002400940194029403940646344F03683E
:102EE000344902200322344DBB423CD18B6943F468
:102EF00080438B618B6903F4804304938B6943F0B7
:102F000004038B618969039201F0040104910102B9
:102F1000CDE9001069462846FEF798FC2815CDE952
:102F20000004694628460294FEF790FC244D23488D
:102F3000C5E900048020C5E902402C616C61AC61E8
:102F40002846EC61FEF70AFC08B1FEF797F8F56336
:102F50000022012125206E62FEF7DEFD2520FEF70E
:102F6000CDFD05B0F0BD174EB342FAD1CB6943F4A5
:102F70000033CB61CB6903F4003304938B6943F0D6
:102F800004038B618969039201F004010491042117
:102F9000CDE9001069462846FEF758FC0820CDE927
:102FA0000004694628460294FEF750FCD9E7000069
:102FB0000038014000100240000801405800024063
:102FC000800100200044004090F84230202B01D0C6
:102FD0000220704721B11AB10023036300F0D0BF73
:102FE00001207047074988420BD107487F210180A3
:102FF000064A0088002111547F2204490148FFF746
:10300000E3BF7047F00000202800002044060020A5
:1030100070472DE9F843044690F84100984616465B
:103020000D46202802D00220BDE8F88385B17EB18C
:1030300000206064212084F84100FEF701FDA68491
:103040008146E684A0682027B0F5805F02D003E0C7
:103050000120E9E7206910B12E4600250EE0002688
:103060000CE08021204600F0D3FFA8B9C6B116F8C5
:10307000010B21684860E08C401EE084E08C4B46E8
:103080004FF00002CDF800800028EAD14FF0400157
:10309000204600F0BDFF40B184F841700320C3E733
:1030A00035F8020BC0F30800E3E784F84170002014
:1030B000BAE7704710B50448FFF786F9BDE810403D
:1030C00000210148FFF734BBA80000202DE9F041A2
:1030D000FEF7B6FC204C06460020207001221F4F50
:1030E000150229463846FEF7A6FC0A2001F0B0FC7E
:1030F000002229463846FEF79EFC194D05E000BF28
:10310000FEF79EFC801B642822D820780228F7D185
:10311000A0686168884203D3A0686168401A06E02D
:1031200060684FF6FF71081AA1680844401CFDF75B
:103130005DFA00220B4BFDF773F900220A4BFDF7F5
:10314000E1F9FDF78DFAA0F18041B1F1727F00D96C
:103150002846BDE8F081000014000020000C01406A
:10316000000080BF009AE04080843E41FEE70000FE
:1031700070B501220E4D940321462846FEF75BFCF4
:103180000122560331462846FEF755FC00F048F868
:10319000002221462846FEF74EFC00F041F80022AE
:1031A00031462846FEF747FCBDE8704000F038B8CD
:1031B0000010014070B50B4D4FF4804400222146B1
:1031C0002846FEF738FC012251032846FEF733FC5F
:1031D00000F026F821462846BDE870400122FEF79F
:1031E0002ABC00000010014070B50C4C0122910374
:1031F0002046FEF720FC00F013F801225503294673
:103200002046FEF718FC00F00BF800222946204665
:10321000FEF711FCBDE8704000F002B8001001405C
:103220000320401EC0B2FCD2704700003EB500240F
:1032300011480094019402940E4984600160047363
:103240000475012505614FF460214460C161FDF7FB
:1032500099FF08B1FDF712FF0920CDE90005694685
:1032600002940548FDF70CFF002801D0FDF706FF8A
:103270003EBD00000024014030000020094808B590
:10328000416941F0010141614069002200F0010003
:10329000009011460F20FEF73FFCBDE808400F20CC
:1032A000FEF72CBC001002402DE9F04385B0002051
:1032B00000900190029003902A48816941F010012A
:1032C0008161816901F010010491816941F020015F
:1032D0008161816901F020010491816941F004015B
:1032E0008161816901F004010491816941F0080163
:1032F000816180691C4F00F008004FF4C0440490C5
:10330000012221463846FEF796FBDFF86080012255
:10331000E0214046FEF78FFBDFF85490BE150022F7
:1033200031464846FEF787FB009401240325694691
:1033300038460194CDE90245FEF788FAE020CDE950
:10334000000469464046CDE90245FEF77FFACDE923
:10335000006469464846CDE90245FEF777FA05B0B4
:10336000BDE8F08300100240001001400008014059
:10337000000C014010B596B000240F9410941194E5
:10338000129413941C2108A81494FCF7F4FE202135
:103390006846FCF7F0FE2948274901604721C0E94B
:1033A000011440F2E731C0E903148021C0E905416E
:1033B000FEF78CFF08B1FDF761FE4FF480500F90CF
:1033C0000FA91E48FFF754F808B1FDF757FE1B4838
:1033D000FFF745FB08B1FDF751FE139413A91748F9
:1033E0001494FEF73FFF08B1FDF748FE6020CDE9D9
:1033F00008040A940B940C940D94002208A90F4819
:103400000E94FFF7C6FA08B1FDF738FE00944FF4AA
:103410000050CDE9044002940194039469460748A2
:103420000794FEF7F5FE08B1FDF728FE0348FFF705
:1034300089FA16B010BD0000002C01406000002089
:1034400010B58AB000242248049405940694079489
:10345000089409940094019402944FF080410394DD
:1034600001604721C0E901144FF6FF71C0E9031460
:1034700080218161FEF72AFF08B1FDF7FFFD4FF4BF
:103480008050049004A91248FEF7F2FF08B1FDF73E
:10349000F5FD0F48FFF71EF908B1FDF7EFFD0894A1
:1034A00008A90B480994FEF7DDFE08B1FDF7E6FD1B
:1034B0000120CDE9004002940022694604480394AB
:1034C000FFF776F8002801D0FDF7D8FD0AB010BD4F
:1034D000A800002010B50E4C0C480C2120604FF4C1
:1034E000E13060600020A060E060C4E90401A061F8
:1034F000E0612046FFF7B8FC08B1FDF7BFFD20688A
:10350000C16841F01001C16010BD000000380140E9
:10351000F00000200C4810B50A4901604FF4E13179
:103520004160002181600C22C160C0E90412816108
:10353000C161FFF799FC002803D0BDE81040FDF7FA
:103540009DBD10BD0044004038010020FEE7FEE7AD
:1035500030B40021084B0A465FF0000003EBC004C2
:10356000401CC0B262548028F8D3491CC9B2082953
:10357000F2D330BC00F08EB8C401002030B5CC08C6
:1035800001F0070301259D40EBB2064D05EBC00598
:10359000C808285C0AB1184302E063EA0000C0438F
:1035A000285530BDC401002010B50021AE2000F028
:1035B0006CF90021084600F068F90021102000F0A5
:1035C00064F90021402000F060F90021812000F022
:1035D0005CF90021CF2000F058F90021A12000F073
:1035E00054F90021C82000F050F90021A62000F075
:1035F0004CF90021A82000F048F900213F2000F0FC
:1036000044F90021D32000F040F90021084600F0E1
:103610003CF90021D52000F038F90021802000F08D
:1036200034F90021D92000F030F90021F12000F018
:103630002CF90021DA2000F028F90021122000F0F6
:1036400024F90021DB2000F020F90021302000F0D7
:103650001CF90021202000F018F90021022000F0C0
:1036600014F900218D2000F010F90021142000F041
:103670000CF9FFF76DFF0021BDE81040AF2000F00E
:1036800004B90246012000E05043491EC9B2FBD2F2
:103690007047000070B5184E002400BF04F1B00060
:1036A000C0B2002100F0F1F80021084600F0EDF86A
:1036B0000021102000F0E9F8FFF75AFD782000F013
:1036C00001F9FFF791FD402000F0FCF8FFF78CFDB9
:1036D0005FF0000506EBC500005D00F0F3F8FFF7B2
:1036E00083FD6D1CEDB2802DF4D3FFF763FD641CE8
:1036F000E4B2082CD2D370BDC40100202DE9FC4FE8
:103700001C460E4682468B460190082B0DD0600762
:1037100000D0012000EBD40061084843C0B28146CC
:10372000203AD0B2009000204BE00620F7E7082CAA
:1037300013D00C2C18D0102C1BD0182C44D100986E
:10374000234900EBC00000BF01EB8001002711F806
:103750000850E80712D00B9A13E000981D4900EBBF
:10376000400001EB4001F1E700981B4900EB4000ED
:10377000EAE71A49009801EB0011E7E70B9828B334
:10378000002231465046FFF7F9FE761C7F1C6D087B
:10379000FFB2F6B2082FDCD30AF1010000F0FF0AF5
:1037A000082C0AD00199AAEB0100B0EB540F04D108
:1037B0000BF108008A4600F0FF0B08F101005E469D
:1037C000C0B280464845B2D3BDE8FC8F0122D8E79D
:1037D0007C5B0008F04E0008185100088C5500086A
:1037E0002DE9F84F0025DDE90A691F4692468B4610
:1037F0008046082E00D1022500241CE0381B401E04
:10380000C1B20A20FFF73DFFBAFBF0F00A21B0FB7E
:10381000F1F201FB1200CDF8009080B13030C2B25D
:1038200005EB560101FB0480C0B233465946FFF751
:1038300065FF641CE4B2BC42E0D3BDE8F88F05EB41
:10384000560101FB0480C0B233463022EEE72DE979
:10385000F8411E46154688460446079F0BE033464E
:10386000414620460097FFF749FF082E0AD004EB97
:103870005600C4B26D1C2A78A2F120005E28EED951
:10388000BDE8F881A41DE4B2F4E770B50C46054626
:10389000FFF76EFC782000F015F8FFF7A5FC0CB1DF
:1038A000402000E0002000F00DF8FFF79DFC2846C6
:1038B00000F008F8FFF798FCBDE87040FFF77ABC0D
:1038C000704770472DE9F041124F002405464FF430
:1038D00080487E14280601D5012200E000224146DE
:1038E0003846FEF7A8F8FFF79BFC01223146384620
:1038F000FEF7A1F8FFF794FC002231463846FEF7A8
:103900009AF86806641C050EE4B2082CE2D3BDE800
:10391000F081000000100140FEF798B830B593B078
:1039200028216846FCF727FC14210AA8FCF723FC91
:103930000024012108040F94109412940491CDE9FD
:103940000010CDE9080411940294022507956846F9
:10395000FEF7B8FA08B172B6FEE70F20CDE90A0506
:103960004FF48060CDE90C4000210AA80E94FEF7C8
:10397000CDF908B172B6FEE70FA80F951194FEF7C6
:103980004FF9002801D072B6FEE713B030BD704782
:1039900010B50848FEF73EFF07480188491C018022
:1039A0000188B1F57A7F04D3002101800349012009
:1039B000087010BD60000020020000200000002000
:1039C0000148FEF727BF0000A8000020F0B50268FC
:1039D000194B1A4C1A4D4FF08047984205D0B84207
:1039E00003D0A04201D0A84203D122F070064A6859
:1039F0003243984205D0B84203D0A04201D0A84239
:103A000003D122F44074CA6822434C6922F0800238
:103A1000224302608A68C2620A688262984201D1C7
:103A200009690163012141610169C90703D0016985
:103A300021F001010161F0BD002C014000040040B3
:103A40000008004010B501F01F030121046A9940ED
:103A50008C430462016A9A401143016210BD10B5A3
:103A6000846842EA032224F47F440A4322438260AA
:103A700010BD826822F070020A4342F007018160A3
:103A80007047000030B5036A026A22F00102026248
:103A90004268846924F073050C682C4323F0020506
:103AA0008B682B430A4DA8420BD123F00805CB6845
:103AB00022F440722B434D6923F0040315438A69B5
:103AC0002A434260846149684163036230BD00005B
:103AD000002C014030B5026A036A23F01003036230
:103AE000436884690D6824F4E64444EA05248D683B
:103AF00022F0200242EA05120B4DA8420ED1CD68F9
:103B000022F0800242EA05124D6923F4406343EA41
:103B100085038D6922F0400243EA85034360846196
:103B200049688163026230BD002C014030B5036AF0
:103B3000026A22F4807202624268C46923F400734C
:103B400024F073050C682C438D6843EA05230C4D63
:103B5000A8420ED1CD6823F4006343EA05234D69E2
:103B600022F4405242EA05128D6923F4806342EA4E
:103B700005124260C4614968C163036230BD000040
:103B8000002C014030B5046A026A22F480520262BD
:103B90004268C3690D6823F4E64343EA05238D6850
:103BA00024F4005444EA0534064DA84204D14D697A
:103BB00022F4804242EA85124260C361496801648E
:103BC000046230BD002C014010B5036A046A24F081
:103BD00001040462846924F0F00444EA021423F02E
:103BE0000A020A438461026210BD000070B5056AD2
:103BF000046A24F00104046284690F4EB04208D0C4
:103C0000B0F1804F05D00D4EB04202D00C4EB04204
:103C100003D124F00304144301E044F001041A0723
:103C200024F0F00444EA126225F00A0301F00A01CC
:103C300019438261016270BD002C01400004004004
:103C40000008004010B5036A046A24F010040462FE
:103C5000846923F0A00324F4704444EA023243EA66
:103C600001118261016210BD30B5046A056A25F058
:103C700010050562856925F4407545EA022222F4A3
:103C800070454FF6FF7202EA033224F0A0032A4384
:103C9000A02404EA011119438261016230BD10B50C
:103CA000406A0021C185C184FEF7A6FF10BD70B532
:103CB000446A2068406994F84110C0F3C0100025A0
:103CC000212904D118B1E584204600F08EF820683F
:103CD000406994F84210C0F38010222904D118B131
:103CE000E585204600F05AF8606C40F010006064F2
:103CF0002046FEF781FF70BD10B50146406A096895
:103D000009684FF0000289062ED4C28501680C3183
:103D100051E8003F23F4807341E80034002CF5D1D2
:103D20000168143151E8003F23F0010341E80034F9
:103D3000002CF5D10168143151E8003F23F0400315
:103D400041E80034002CF5D1202180F84210016BAD
:103D5000012909D101680C3151E8003F23F010031B
:103D600041E80034002CF5D14263016B012902D0F7
:103D7000FFF738F910BD818DFEF705FF10BD10B5B6
:103D8000406A01214163016B012902D0FFF740F92C
:103D900010BD818D4908FEF7F6FE10BD01680C319B
:103DA00051E8002F22F4907241E80023002BF5D156
:103DB0000168143151E8002F22F0010241E800238C
:103DC000002BF5D1016B012909D101680C3151E8B3
:103DD000002F22F0100241E80023002BF5D1202112
:103DE00080F8421000210163704701680C3151E8EE
:103DF000002F22F0C00241E80023002BF5D1202142
:103E000080F84110704708B590F84210222901D07F
:103E1000022008BD82684FF480539A4201D10169A3
:103E200021B1816A9A421BD04AB10AE00268816AD4
:103E30005268C2F308020A80816A891C08E002699C
:103E400072B10268526802F07F020A70816A491CEE
:103E50008162C18D491E0904090CC18503D01BE094
:103E600002685268F1E70168CA6822F02002CA605D
:103E70000168CA6822F48072CA6001684A6922F047
:103E800001024A61202180F8421000214163026B47
:103E9000012A03D0FFF7A6F8002008BD01630168DE
:103EA0000C3151E8002F22F0100241E80023002BD2
:103EB000F5D101680A68D20602D50A6849680091FE
:103EC000818DFEF760FEE7E770B504460068016982
:103ED000E26821F44051114301612169A06808435F
:103EE000616908432168CA6841F20C639A4302433E
:103EF000CA6020684169A26921F44071114341619F
:103F00001E492068884202D1FDF7A6FF01E0FDF7B7
:103F100093FF00EBC00101EB001260686421800098
:103F2000B2FBF0F3B3FBF1F36FF018067343B2FB8F
:103F3000F0F5B2FBF0F605EB8305322303EB051534
:103F4000B5FBF1F5B6FBF1F605F0F00505EB06154E
:103F5000B2FBF0F6B2FBF0F0B0FBF1F06FF018023C
:103F6000504306EB800003EB0010B0FBF1F021683A
:103F700000F00F002844886070BD00000038014048
:103F800038B581620446828500201346606422228F
:103F900084F84220E56B1B4AAA62E56B1A4AEA6282
:103FA000E56B1A4A2A63E26B50630A462168E06BAC
:103FB000091DFDF701FC2068016840680090206938
:103FC00048B120680C3050E8001F41F4807140E88F
:103FD0000012002AF5D12068143050E8001F41F08B
:103FE000010140E80012002AF5D12068143050E8A1
:103FF000001F41F0400140E80012002AF5D10020E6
:1040000038BD0000F93C00087F3D0008AF3C0008C7
:104010002DE9F843984617460D460446089E24E0CD
:10402000701C22D0FDF70CFDA0EB0800B0421AD89E
:10403000CEB12068C168490717D5802D15D0402D15
:1040400013D00168C94309070FD4016800254068EF
:1040500000902046FFF7A2FE0820606484F84050DC
:104060000120BDE8F8830320FBE72068006835EAFB
:10407000000004D00020B842D2D00020F1E7012097
:10408000F9E7000038B5114C20680168C90617D55A
:1040900001680025406800902046FEF775FDE06B42
:1040A00000684068C0F17F0080B27F2800D97F207F
:1040B0000749088007490D547F220448FEF784FF12
:1040C000BDE838400148FEF799BD0000F00000202F
:1040D0002800002044060020FEE700000FB4054B36
:1040E00010B503A9044A029800F002F910BC5DF86B
:1040F00014FB0000854A00082C0000200FB41CB5FA
:104100000246002007AC00290BD0491ECDE9002152
:10411000054B6A462146069800F0EAF8009A00210D
:1041200011701CBC5DF814FB1F4A00080907090E3A
:10413000002804DB00F1E02080F80014704700F054
:104140000F0000F1E02080F8141D704702E008C85D
:10415000121F08C1002AFAD170477047002001E001
:1041600001C1121F002AFBD1704700002DE9FF5F3B
:1041700082B00021DDE90430020DDDF840B00343D8
:1041800018D044F61050A2F2FF3242431514119891
:1041900001281FD0A5EB0B00401C5FEA000A4FF07E
:1041A00000064E4FDFF83891B046504615D5CAF19B
:1041B000000413E0119801244AA3012801D16FEAF9
:1041C0000B010298119AC0E90031C0E9024206B021
:1041D000BDE8F09FCBF10000DFE704460021404A34
:1041E000491842EB0450CDE9001012E0E00707D077
:1041F00032463B4640464946FCF712F9804689461E
:1042000032463B4610461946FCF70AF906460F4669
:104210006410002CEAD1DDE90401DDE90023BAF1E4
:10422000000F06DAFCF7FCF842464B46FCF7F8F8BC
:1042300005E0FCF767F942464B46FCF763F9044694
:104240000E460022284BFCF7F3F903D84FF0FF305D
:10425000014607E00022254B20463146FCF739F89D
:10426000FCF716FB102409E0002C0ADB0A220023CD
:10427000FCF728FA039B30321A55641E50EA0102FB
:10428000F2D1641C039AC4F111031444119A012A57
:1042900003D0012208430DD10AE0084304D00020D6
:1042A0004FF0110B119072E7A3EB0B056D1E0DE0A3
:1042B0005B4504DD4FF0000205F1010504E003DA7F
:1042C0004FF00002A5F10105002AECD002981199E7
:1042D000C0E90231C0E9004579E700000000144060
:1042E0000000F03F300000000000F0430000E03F1D
:1042F0002DE9FF4F95B09B468946064600250FE203
:10430000252877D100242746F84A0121059400E0AA
:10431000044316F8013F203B01FA03F01042F7D1A5
:1043200030782A2811D06FF02F033078A0F13002B6
:10433000092A16D8059A44F0020402EB820203EB24
:1043400042021044761C0590EFE759F8042B0592C1
:10435000002A03DA504244F40054059044F0020469
:10436000761C30782E2816D116F8010F44F004047C
:104370002A280DD06FF02F023078A0F13003092BDE
:1043800009D807EB870302EB4303C718761CF3E752
:1043900059F8047B761C30786C280FD006DC4C284A
:1043A00017D068280DD06A2814D104E0742810D0E2
:1043B0007A280FD10DE044F400140AE044F480148C
:1043C00001E044F440147278824202D104F5801472
:1043D000761C761C307866280BD013DC582877D0F2
:1043E00009DC002875D04528F6D04628F4D04728A7
:1043F0001AD19DE118E0632835D0642879D065286A
:1044000012D195E1702873D008DC6728F1D06928B3
:104410006FD06E280DD06F2806D1B5E073282CD050
:10442000752875D0782874D05A46179990476D1C16
:1044300075E1C4F30250022809D003280DD0D9F841
:10444000001004280DD00D6009F1040967E1D9F8C6
:104450000010EA17C1E90052F6E7D9F800100D8004
:10446000F2E70D70F0E719F8041B8DF8001000203A
:104470008DF80100EA46012003E059F804AB4FF043
:10448000FF3061074FF0000102D40DE008F1010197
:104490008846B9420FDA8045F8DB1AF8081000297F
:1044A000F4D108E008F1010188468142FADB1AF8EC
:1044B00008100029F6D105985B46A0EB08072146B5
:1044C0003846179A00F094FA284400EB080507E0F4
:1044D0004DE029E10DE01AF8010B5A461799904773
:1044E000B8F10108F7D25B4621463846179A13E126
:1044F00042E00A220092C4F302524FF0000A022A5C
:1045000008D059F804CB032A4FEAEC710AD00DE029
:1045100029E02AE009F1070121F00702F2E802C1CF
:10452000914609E00FFA8CFC4FEAEC71042A03D1A2
:104530004FFA8CFC4FEAEC71002907DA0A46002199
:10454000DCF1000C61EB02012D2202E0220504D512
:104550002B228DF80420012203E0E20701D0202263
:10456000F7E7904659E00A2102E010220DE0102101
:104570004FF0000A00910BE010224FF0000A44F0C7
:1045800004040827009203E008224FF0000A00927A
:10459000C4F30252022A05D059F804CB0021032AA1
:1045A00008D009E009F1070121F00702F2E802C191
:1045B000914605E01FFA8CFC042A01D10CF0FF0C97
:1045C0004FF00008220728D5702806D0009B83F002
:1045D000100353EA0A0305D00EE040228DF80420B0
:1045E000012208E05CEA010206D030228DF80420A6
:1045F0008DF8050002229046009B83F0080353EAE1
:104600000A030AD15CEA010201D1620705D5302212
:104610008DF804204FF001087F1E582804D034A0E4
:1046200003900EA802900DE036A0F9E753466046CD
:10463000009AFCF747F884460398825C0298401E73
:10464000029002705CEA0100F0D1029806A9081AF3
:1046500000F1200A600702D524F4803400E001272D
:10466000574502DDA7EB0A0000E0002000EB0A013D
:10467000009005984144401A0590E00306D45B463B
:104680002146179A059800F0B3F90544002706E083
:1046900001A85A46C05D179990476D1C7F1C47457D
:1046A000F6DBE0030CD55B462146179A059800F02F
:1046B0009FF9054404E030205A46179990476D1C35
:1046C0000099481E00900029F5DC08E00298029944
:1046D0005A460078491C0291179990476D1CBAF10F
:1046E0000001AAF1010AF1DC65E1000009280100DE
:1046F0003031323334353637383961626364656658
:104700000000000030313233343536373839414219
:10471000434445460000000000F058F90544761C6B
:10472000307800287FF4ECAD19B02846BDE8F08F52
:10473000620700D4062709F1070222F0070CFCE803
:104740000223E14603F000485FEA080C02D00FF2B2
:10475000702C0DE05FEA045C02D50FF2682C07E0D4
:104760005FEAC47C02D00FF2602C01E0AFF2700C63
:104770004FF0FF3823F00043CDF850C065280CD02F
:1047800006DC452809D046281DD047283DD13DE00C
:10479000662818D067287ED138E00021112F01DB70
:1047A000112000E0781CCDE9000106A90EA8FFF752
:1047B000DDFCDDE90F010E9A03910021009207F163
:1047C000010A04914DE04FF000400097CDE901103F
:1047D00006A90EA8FFF7CAFCDDE90F0203920E9BA3
:1047E00011990022DDF80CA00093049211B9791CF4
:1047F00000EB010AB7EB0A0004D4C0F1FF3007F167
:10480000010A0490AAEB0700019044E0012F00DAAE
:1048100001270021112F01DD112000E03846CDE9EC
:10482000000106A90EA8FFF7A1FCDDE90F010E9A11
:104830000391002104910092BA4621070CD40399F8
:10484000514500DA8A46BAF1010F05DD009AAAF156
:104850000101515C302908D0B84202DA10F1040F8E
:1048600006DA0121CDE9011015E0AAF10101E9E71D
:10487000002805DC049901440491AAEB000102E040
:10488000411C514500DD8A460499401A401C0190A4
:104890004FF000400290200704D40198504501DBFE
:1048A000CDF8048000208DF84F0002980DF14F07DD
:1048B000B0F1004F25D02B200E9002984FF0020847
:1048C00000280CDA404202902D200E9007E00A21C9
:1048D0000298FBF7E1FE3031029007F8011DB8F1B4
:1048E0000001A8F10108F2DC02980028EFD1791E3E
:1048F0000E980870307800F0200040F0450007F86E
:10490000020D12A8C01B00F107081498007800B12E
:10491000012000EB0A01019801EBE0710598414488
:10492000401A401E0590E00306D45B462146179AC4
:10493000059800F05DF805441498007818B15A46BF
:10494000179990476D1CE00324D55B462146179AC2
:10495000059800F04DF805441CE00498002807DB9A
:10496000DDE90301884203DD0098405C179901E00E
:10497000179930205A469047049805F10105401CCC
:1049800004900198401E019004D12E205A46179998
:1049900090476D1CBAF10001AAF1010ADDDC05E0C7
:1049A00017F8010B5A46179990476D1CB8F1000192
:1049B000A8F10108F4DC5B462146179A0598ABE69E
:1049C0002D0000002B000000200000002DE9F04128
:1049D000044600251E461746880404D405E03946DF
:1049E0002020B0476D1C641EF9D52846BDE8F08133
:1049F0002DE9F041044600251E469046C80301D526
:104A0000302700E02027880404D505E041463846D9
:104A1000B0476D1C641EF9D52846BDE8F0814A6890
:104A2000002A06D00A68531C0B6010704868401EAC
:104A30004860704770B5054600244FF47A7603E06D
:104A4000304600F005F8641CAC42F9D370BD00009C
:104A50000B49096848434FF0E021486100228A6110
:104A6000086940F0010008610869C30701D0C0036C
:104A7000FAD5086920F0010008618A6170470000DA
:104A80002000002013B54FF0FF3301226946024891
:104A9000FEF7BFFA00981CBD38010020002486B044
:104AA0002546FCF7DBFFFEF739FFFEF7FDFBFEF7BF
:104AB000E5FBFEF7C5FCFEF70DFDFEF72BFDFEF74F
:104AC00059FCFEF7B3FBFEF76FFDFEF7F3FAFCF7B8
:104AD0000FF8FCF78DF9B548FDF79EFC0021B348AF
:104AE000FDF7ECFF1A208DF8080003208DF809006F
:104AF00017208DF80A0006208DF80B000C208DF889
:104B00000C004FF000088DF80D808DF80E8002A883
:104B1000FCF794F84FF47A7B09E0A5A0FFF7DEFAE2
:104B2000641CE4B25846FCF77FFE052C03D2FCF768
:104B3000D9F90028F1D04FF4FA6400BFFCF778F9F6
:104B400060B10124142D14D9002108239EA2084627
:104B50000094FEF77CFEFEF79DFDFEE79FA0FFF7A9
:104B6000BDFA6D1CEDB22046FFF764FF142DE5D3AE
:104B7000E7E7A0A0FFF7B2FA0121A3A0FCF7E6F94E
:104B800000285AD000210823ABA208460094FEF763
:104B90005EFE0823ABA2194600200094FEF757FEE4
:104BA0000823AAA2102100200094FEF750FEFEF771
:104BB00071FDDFF8A0A2DFF8A0920825A7A0FFF7FB
:104BC0008DFAFEF783FA064650452DD2FBF71BFD02
:104BD0000746FBF706FD3146FBF746FBA149FBF70D
:104BE00046FBFBF710FDCDE90054064601233A468B
:104BF00000214620FEF7F4FD08232E2200214E203E
:104C00000094FEF77BFDCDE90054022332460021DB
:104C10005620FEF7E5FD082393A200215E200094B4
:104C2000FEF715FEFEF736FD9048FCF703FC642105
:104C30008E48FCF761FB78B14FE08DA0FFF74EFA8C
:104C4000FEF786FC002108235FA208460094FEF7C9
:104C5000FEFDFEF71FFDFEE78448FCF78FFA0746CE
:104C60004FF47A70784340F6FF71B0FBF1F0C0F575
:104C70007A765E4500D95E464C4800684663082354
:104C800084A2182100200094FEF7E1FDCDE9005434
:104C900004233A4618213220FEF7A2FD08237FA202
:104CA00018215A200094FEF7D2FD08237DA220216E
:104CB00000200094FEF7CBFDCDE9005404233246DA
:104CC00020213220FEF78CFD082378A220215A20D3
:104CD0000094FEF7BCFDFEF7DDFC6448FCF70AFC1F
:104CE00099F800104846E9B380F8008004A8FBF763
:104CF000AFFECDE900549DF814200223082128209E
:104D0000FEF76EFD08233A22194638200094FEF77C
:104D1000F5FCCDE900549DF8152002230821402020
:104D2000FEF75EFD08233A22194650200094FEF754
:104D3000E5FCCDE900549DF81620022308215820F7
:104D4000FEF74EFDCDE900549DF8102004231021FC
:104D5000282002F5FA62FEF743FD08232D221021D8
:104D6000482000E01DE00094FEF7C8FCCDE90054A7
:104D70009DF81120022310215020FEF731FD082359
:104D80002D22102160200094FEF7B8FCCDE90054DC
:104D90009DF81220022310216820FEF721FDFEF766
:104DA00079FC6420FFF746FE08E700006000002061
:104DB0005769466920636F6E6E656374207265740F
:104DC00072790D0A00000000436F6E6E65637443D4
:104DD0006C6F7564206661696C656400436F6E6E0C
:104DE000656374436C6F75642072657472790D0A23
:104DF00000000000436F6E6E656374436C6F7564F2
:104E0000206F6B0D0A000000247379732F645535F1
:104E10006A5667314C39622F746573742F746869F0
:104E20006E672F70726F70657274792F706F737404
:104E30002F7265706C79000044697374616E6365EC
:104E40003A00000054696D653A00000044617465E1
:104E50003A0000000000808000000020676F0D0A0B
:104E6000000000000000C842636D00003000002018
:104E70004D5154542073756273637269626520707A
:104E80006F73745F7265706C79206661696C6564BC
:104E90000D0A00004C696768743A00002F343039FD
:104EA0003500000050574D3A000000002F313030DF
:104EB00030000000010202030405060708090A0B7E
:104EC0000C0D0E0F1010010202030405060708095D
:104ED0000A0B0C0D0E0F1010000000000000000067
:104EE0000102030406070809000000000102030490
:104EF0000000000000000000002F0000000007007C
:104F0000070000147F147F1400242A7F2A120062F5
:104F100064081323003649552250000005030000A1
:104F200000001C224100000041221C000014083E29
:104F300008140008083E0808000000A060000008EF
:104F40000808080800006060000000201008040243
:104F5000003E5149453E0000427F40000042615101
:104F60004946002141454B31001814127F1000279B
:104F700045454539003C4A4949300001710905035E
:104F800000364949493600064949291E000036368F
:104F900000000000563600000008142241000014F2
:104FA00014141414000041221408000201510906CF
:104FB00000324959513E007C1211127C007F494950
:104FC0004936003E41414122007F4141221C007F81
:104FD00049494941007F09090901003E4149497A8F
:104FE000007F0808087F0000417F41000020404109
:104FF0003F01007F08142241007F40404040007F75
:10500000020C027F007F0408107F003E4141413EB8
:10501000007F09090906003E4151215E007F091900
:1050200029460046494949310001017F0101003FFD
:105030004040403F001F2040201F003F4038403F7D
:1050400000631408146300070870080700615149E1
:10505000454300007F41410000552A552A55000074
:1050600041417F00000402010204004040404040F2
:10507000000001020400002054545478007F48448A
:10508000443800384444442000384444487F0038C1
:105090005454541800087E0901020018A4A4A47CEA
:1050A000007F080404780000447D400000408084B4
:1050B0007D00007F102844000000417F4000007CFC
:1050C00004180478007C0804047800384444443808
:1050D00000FC242424180018242418FC007C080454
:1050E000040800485454542000043F444020003C2D
:1050F0004040207C001C2040201C003C4030403CB4
:10510000004428102844001CA0A0A07C0044645443
:105110004C44141414141414000000000000000087
:10512000000000000000FC00000000000200000081
:10513000000C020C020000000000000090D0BCD067
:10514000BC900003000300001824FE448C000302FE
:10515000070201001824D8B04C80000300010201AE
:10516000C038E438E0000102020102020806000033
:105170000000000000000000000000F80402000031
:1051800000010204000204F8000000040201000013
:105190009060F86090000000010000002020FC20DA
:1051A00020000000010000000000000000000806D0
:1051B000000000002020202020000000000000004F
:1051C0000000000000000002000000000080601CE1
:1051D0000200040300000000F8040404F8000102C7
:1051E000020201000008FC000000000203020000AF
:1051F0001884442418000302020202000804242434
:10520000D80001020202010040B088FC80000000CA
:10521000000302003C242424C40001020202010015
:10522000F824242CC0000102020201000C04E41C3A
:105230000400000003000000D8242424D800010248
:105240000202010038444444F80000030202010055
:10525000000010000000000002000000000020001C
:10526000000000000600000000205088040200003A
:10527000000001029090909090000000000000005B
:105280000002048850200002010000001804C42419
:105290001800000002000000F804E494F800010285
:1052A0000202020000E09CF0800002030000030202
:1052B00004FC2424D800020302020100F8040404C0
:1052C0000C0001020202010004FC0404F8000203C5
:1052D0000202010004FC24740C0002030202030019
:1052E00004FC24740C00020302000000F0080444D3
:1052F000CC4000010202010004FC2020FC04020357
:10530000000003020404FC04040002020302020081
:10531000000404FC040406040403000004FC24D07C
:105320000C0402030200030204FC04000000020358
:1053300002020203FC3CC03CFC000300030003002B
:1053400004FC30C4FC04020302000300F80404045B
:10535000F80001020202010004FC242418000203E8
:1053600002000000F8848404F8000102020705002E
:1053700004FC24649800020302000302182424445D
:105380008C000302020201000C04FC040C00000269
:105390000302000004FC0000FC0400010202010002
:1053A000047C80E01C040000030000001CE03CE0E2
:1053B0001C00000300030000049C609C0400020326
:1053C00000030200041CE01C0400000203020000B1
:1053D0000C84641C04000203020203000000FE02AD
:1053E0000200000007040400000E30C000000000AE
:1053F00000010200000202FE000000040407000099
:105400000004020400000000000000000000000092
:10541000000008080808080800000200000000005A
:10542000000000000040A0A0C00000010202030232
:1054300004FC2020C00000030202010000C0202064
:10544000600000010202020000C02024FC000001F4
:105450000202030200C0A0A0C0000001020202007C
:105460000020F82424040002030202000040A0A04F
:10547000602000070A0A0A0404FC2020C00002037E
:10548000020003020020E40000000002030200000A
:10549000000020E4000008080807000004FC80E089
:1054A00020200203020003020404FC0000000202A8
:1054B00003020200E020E020C0000300030003001C
:1054C00020E02020C00002030200030200C02020D0
:1054D000C00000010202010020E02020C000080FEF
:1054E0000A02010000C02020E0000001020A0F08AB
:1054F00020E0402020000203020000000060A0A085
:1055000020000002020203000020F820000000003A
:105510000102020020E00020E0000001020203027C
:1055200020E0208060200000030100006080E08017
:105530006000000300030000206080602000020380
:105540000003020020E0208060200808070100001E
:105550000020A0602000000203020200000020DE04
:105560000200000000070400000000FF000000002F
:10557000000F00000002DE20000000040700000011
:10558000020102040402000000000000000000000C
:10559000000000000000000000000000000000F813
:1055A00000000000000000333000000000100C0676
:1055B000100C0600000000000000000040C0784011
:1055C000C0784000043F04043F040400007088FCDD
:1055D00008300000001820FF211E0000F008F00035
:1055E000E018000000211C031E211E0000F00888A6
:1055F000700000001E2123241927211010160E0010
:10560000000000000000000000000000000000E0BA
:1056100018040200000000071820400000020418CF
:10562000E00000000040201807000000404080F02B
:10563000804040000202010F01020200000000F061
:10564000000000000101011F010101000000000035
:105650000000000080B070000000000000000000AA
:105660000000000000010101010101010000000033
:1056700000000000003030000000000000000000CA
:1056800080601804006018060100000000E01008A7
:105690000810E000000F102020100F00001010F87C
:1056A000000000000020203F2020000000700808BB
:1056B000088870000030282422213000003008883B
:1056C000884830000018202020110E000000C02063
:1056D00010F8000000070424243F240000F8088884
:1056E000880808000019212020110E0000E0108811
:1056F00088180000000F112020110E000038080843
:10570000C83808000000003F000000000070880852
:1057100008887000001C222121221C0000E01008D3
:105720000810E0000000312222110F00000000C02C
:10573000C0000000000000303000000000000080C9
:1057400000000000000080600000000000008040B9
:1057500020100800000102040810200040404040D2
:105760004040400004040404040404000008102025
:10577000408000000020100804020100007048086A
:105780000808F0000000003036010000C030C828D2
:10579000E810E0000718272423140B000000C0388D
:1057A000E0000000203C23020227382008F8888807
:1057B00088700000203F202020110E00C030080813
:1057C00008083800071820202010080008F80808EA
:1057D0000810E000203F202020100F0008F88888E3
:1057E000E8081000203F20202320180008F88888AF
:1057F000E8081000203F200003000000C030080827
:105800000838000007182020221E020008F80800AF
:105810000008F808203F210101213F20000808F876
:10582000080800000020203F202000000000080899
:10583000F8080800C08080807F00000008F888C059
:1058400028180800203F20012638200008F808000A
:1058500000000000203F20202020300008F8F80041
:10586000F8F80800203F003F003F200008F830C053
:105870000008F808203F200007183F00E010080843
:105880000810E0000F10202020100F0008F8080872
:105890000808F000203F210101010000E010080885
:1058A0000810E0000F18242438504F0008F88888AA
:1058B00088887000203F2000030C3020007088088A
:1058C000080838000038202121221C00180808F898
:1058D000080818000000203F2000000008F8080019
:1058E0000008F808001F202020201F0008788800EA
:1058F00000C83808000007380E010000F80800F85A
:105900000008F800033C0700073C03000818688003
:105910008068180820302C03032C30200838C80079
:10592000C83808000000203F2000000010080808C8
:10593000C83808002038262120201800000000FE6A
:10594000020202000000007F40404000000C30C016
:1059500000000000000000010638C0000002020242
:10596000FE000000004040407F00000000000402F4
:10597000020204000000000000000000000000001F
:10598000000000008080808080808080000202040F
:105990000000000000000000000000000000808007
:1059A000808000000019242222223F2008F8008075
:1059B00080000000003F112020110E000000008038
:1059C00080800000000E11202020110000000080C7
:1059D0008088F800000E112020103F2000008080F9
:1059E00080800000001F222222221300008080F00D
:1059F000888888180020203F202000000000808038
:105A000080808000006B94949493600008F800807C
:105A100080800000203F210000203F2000809898D7
:105A2000000000000020203F202000000000008037
:105A30009898000000C08080807F000008F8000077
:105A400080808000203F24022D302000000808F8CC
:105A5000000000000020203F202000008080808087
:105A600080808000203F20003F20003F8080008019
:105A700080800000203F210000203F200000808027
:105A800080800000001F202020201F0080800080D8
:105A90008000000080FFA12020110E000000008087
:105AA00080808000000E112020A0FF808080800078
:105AB0008080800020203F212000010000008080A5
:105AC000808080000033242424241900008080E09A
:105AD000808000000000001F202000008080000067
