:020000040800F2
:10000000F80C0020010100085F410008353D0008A0
:100010005D4100084510000809520008000000007A
:10002000000000000000000000000000D3440008B1
:100030007914000800000000D14400082945000898
:100040001B0100081B0100081B0100081B01000820
:100050001B0100081B0100081B0100081B01000810
:100060001B0100081B0100081B0100081B01000800
:100070001B0100081B0100081B01000849100008B3
:100080001B0100081B0100081B0100081B010008E0
:100090001B0100081B0100081B0100081B010008D0
:1000A0001B010008A94500081B0100081B010008EE
:1000B0000D4600081B0100081B0100081B01000879
:1000C0001B0100081B0100081B0100081B010008A0
:1000D0001B010008B55100081B0100081B010008A6
:1000E000891B00081B0100081B010008DFF80CD069
:1000F00000F0C2FE00480047695F0008F80C0020CD
:100100000648804706480047FEE7FEE7FEE7FEE7B1
:10011000FEE7FEE7FEE7FEE7FEE7FEE7A54500088F
:10012000ED000008202A04DB203A21FA02F0002129
:10013000704721FA02F3D040C2F1200291400843F7
:1001400019467047A0F14101192900D820307047A5
:1001500040EA01039B0703D009E008C9121F08C049
:10016000042AFAD203E011F8013B00F8013B521EC9
:10017000F9D27047D2B201E000F8012B491EFBD240
:1001800070470022F6E710B513460A4604461946A2
:10019000FFF7F0FF204610BD30B505462A460B4656
:1001A00012F8010B13F8014B08B1A042F8D01CB1B2
:1001B000002802D06D1CF1E7284630BDCAB2401EAF
:1001C00010F8011F8A4202D00029F9D1002070479F
:1001D000421C10F8011B0029FBD1801A704710B592
:1001E000002200E0521C835C8C5CA34201D1002BF6
:1001F000F8D1D8B2E1B2401A10BD30B505460020A2
:10020000034600E05B1C934205D2EC5CC85C201AFC
:1002100001D1002CF6D130BD2DE9FF4F087883B015
:100220009946FF2805D0491C2D2804D00024002021
:1002300008E000200BE00124F9E700EB800003EB6D
:100240004000491C0B78FF2BF7D104B1404200233A
:100250000293147819461D462D2C01D02B2C04D165
:10026000521C2D2C13D000240294AA461478FF2C83
:100270000FD00A25A3FB057801FB05814FF0000C88
:1002800003FB0C11521CE3194AEB0101EEE70124B8
:10029000EAE7814453EA010002D019F5C87F06DA83
:1002A00003980021C0E9001107B0BDE8F08F0025D8
:1002B000AE4E2F46DFF8B882184600F0B9FDCDE902
:1002C0000001B9F1000002DAC9F1000400E00446BF
:1002D0000023A74A1AEB030B42EB045A12E0E00793
:1002E00007D02A4633463846414600F083FA07468F
:1002F00088462A4633461046194600F07BFA0546E2
:100300000E466410002CEAD1DDE90001B9F1000FBE
:100310005A46534606DA00F0DFFA3A46434600F002
:10032000DBFA05E000F066FA3A46434600F062FA6E
:10033000029A0AB181F00041039AC2E90001B3E7D1
:100340002DE9FF4F1F468DB0D7E901464FF0FF382A
:100350002E2045464FF000090B90B9696D1C0E9890
:100360008847396A824688470028F6D1BAF1FF3FAC
:100370000AD024F4D064002E11DDBAF12B0F08D07E
:10038000BAF12D0F0BD102E0404611B08DE744F4D5
:100390008064B9696D1C0E9888478246761E69464E
:1003A000600501D52D2000E02B208DF8000001F123
:1003B000010B0DF1200809E0B9696D1C0E98884702
:1003C00082460F9844F40074761E0560002E02DD0C
:1003D000BAF1300FF0D00B998A453ED144F0800439
:1003E00006E00F99681CA9F1010944F40074086043
:1003F000B9696D1C761E0E98884782463028F0D069
:100400002BE00B998A4505D1200603D444F08004E3
:10041000761E18E0504605F05DF808B30DF11301A3
:10042000761E44F400748B4508D2AAF130000BF814
:10043000010B200607D5A9F1010003E0200602D434
:1004400009F101008146A00502D50F99681C0860DA
:10045000B9696D1C0E9888478246002ED1DC53E0A6
:10046000002E51DDBAF1650F02D0BAF1450F4BD124
:10047000A00549D5B9696D1C24F44074761E0E9808
:1004800088478246002E0CDD2B2804D0BAF12D0FB0
:1004900007D144F48074B9696D1C0E988847824670
:1004A000761EE00501D52D2100E02B2108F8011B67
:1004B000CDF82C8021E00DF12901761E44F4007462
:1004C00088450CD2AAF1300010F0FF0088F8000037
:1004D00002D10B99884509D908F1010806E0E00529
:1004E00001D5244801E042F20F708146B9696D1CC4
:1004F0000E98884782460F980560002E04DD50460E
:1005000004F0E8FF0028D6D1F9690E988847FF204B
:100510008BF8000088F800000020069007904B46FA
:100520006A4608A906A8FFF777FEA00502D46FF077
:1005300001002AE714F0240F0AD0E00714D1DDE906
:1005400006123868031D3B600068C0E900120BE02A
:10055000DDE9060100F0A4FA0146E00704D138689D
:10056000021D3A600068016028460EE70000144052
:100570000000F03FF1D8FFFF70B5064604F07EFEA4
:10058000046805460A220021304600F085FB2C60F5
:1005900070BDF0B480EA0102D40F4200B2EB410F0B
:1005A00002D20246084611464A0042D0C30DDDB2CF
:1005B000C1F3C752AD1A202D35DAC1F3160141F44B
:1005C000000204B15242C5F1200602FA06F12A41A6
:1005D0001044B3EBD05F23D0C4B1012DA0EBC350C6
:1005E00009DCF0BC4FF0004202EAC352DBB200F576
:1005F000000000F092BB400000F1807000EBC3509F
:10060000A0F1807040EAD170490009E0490841EA50
:10061000C071A0EBC35000F50000400800EBC350D0
:10062000F0BC00F071BB6142012202EB4101001BF2
:10063000F6E7F0BC704781F00041AAE780F0004087
:10064000A7E780EA010210B502F00043400022D083
:100650004A001FD0010E01EB1261C0F35600C2F335
:10066000560240F4000042F40002A0FB0220000405
:100670007F39140400D0401C50EA124001D44000DD
:10068000491EC2B20C0604EBD010401C4008802A60
:1006900002D003E0002010BD20F00100002900DAA4
:1006A0000020184310BD2DE9FE4F804681EA03006B
:1006B000C00F0C46009021F0004123F00045B8EB3C
:1006C0000200A94105D24046214690461C460B46F1
:1006D000024623F00040104347D0270DC7F30A001D
:1006E000C3F30A510290401A019040286BDAC3F319
:1006F000130040F4801B0098924620B10023D2EBF7
:10070000030A63EB0B0B01985946C0F140025046B7
:1007100000F033FA06460D4650465946019A00F05D
:100720003BFA10EB08006141002487EA115284EA89
:10073000E7731A4340D0009A62B3019A012A4FEA44
:10074000075215DC001B61EB02014FF0004202EA88
:100750000752CDE90042001C41F5801132462B467C
:1007600000F018FB03B0BDE8F08F40462146F9E7E2
:10077000001B61EB0201001C41F5801300185B4176
:100780002018A2F5001747EB030140EAD570B6190F
:100790006D4111E06D084FEA360645EAC0754FEA33
:1007A0000752001B61EB0201001C41F58011490852
:1007B0004FEA30000019514132462B4603B0BDE8E4
:1007C000F04F00F0D8BA0098012240000023D0EB8F
:1007D000020263EBE073009821464FEAE074B8EB45
:1007E000000061EB0401E9E783F000435BE781F07F
:1007F000004158E72DE9FE4F81EA030404F000446C
:1008000021F0004100944FF0000B23F0004350EA28
:1008100001045ED052EA03045BD0C3F30A54C1F36F
:100820000A552C44A4F2F3340194A0FB0254C1F302
:10083000130141F48011C3F3130343F4801301FB4C
:10084000024400FB034E840A970A44EA815447EAB3
:100850008357A4FB076802958D0A05FB07854FEABD
:10086000932C04FB0C542705029D4FEA065847EAD7
:100870001637B5EB08056EEB070C870E920E47EAAC
:10088000811742EA8312A7FB0201B6EB0B0164EB6E
:1008900000042B0D43EA0C335E1844EB1C50DA467F
:1008A0005146E7FB0201C5F313044FEA0B3343EA59
:1008B00014534FEA0432019C43EA0603A4F10C04EA
:1008C0000294009CCDE900B400F064FA03B0BDE8E6
:1008D000F08F00200146F9E72DE9F04D81EA03048D
:1008E00004F0004B21F0004514464FF0000A23F0BD
:1008F000004150EA050220D054EA01021DD0C5F3A0
:100900000A570246C5F31303C1F31300C1F30A5695
:1009100040F4801543F48013A7EB0608101BD6465D
:1009200008F2FD3873EB050002D308F1010801E07D
:1009300092185B41B8F1000F03DA00200146BDE8D0
:10094000F08D00204FF48011064684460EE0171B00
:1009500073EB050705D3121B63EB050306434CEA53
:10096000010C49084FEA300092185B4150EA010738
:10097000EDD152EA030012D082EA040083EA0501B5
:10098000084305D0101BAB4106D20122002306E02C
:1009900000224FF0004302E06FF0010253101AEB07
:1009A00006004CEB085110EB0A0041EB0B01BDE8CF
:1009B000F04D00F0E0B996230022114600F0ADB9E9
:1009C0000EB540F2334102910021CDE900110A46F3
:1009D0000B4600F0DFF903B000BD20F00040C10D70
:1009E000C0F3160040F400007F2901DA00207047B0
:1009F000962903DCC1F19601C840704796398840BA
:100A0000704770B5C1F30A5201F000450024C1F3EC
:100A1000130140F2FF3341F480119A4201DA0020C1
:100A200070BD40F233439A42A2F2334203DC524299
:100A3000FFF778FB00E090402C43F1D0404270BDBE
:100A400030B5041E71F1000404DB4FF00044404255
:100A500064EB0101141E73F1000405DB1C464FF02A
:100A60000043524263EB04038B4208BF824230BD15
:100A700030B5041E71F1000404DB4FF00044404225
:100A800064EB0101141E73F1000405DB1C464FF0FA
:100A90000043524263EB0403994208BF904230BDC9
:100AA00001F0004330B421F0004150EA010206D0C9
:100AB0000A0DA2F56072C1F31301002A02DC30BCFA
:100AC00000207047440F44EAC104C100E01830BC64
:100AD00000EBC25000F018B9002801DBC0F1004063
:100AE000002901DBC1F100418842704730B50B4657
:100AF000014600202022012409E021FA02F59D424E
:100B000005D303FA02F5491B04FA02F52844151E21
:100B1000A2F10102F1DC30BD2DE9F05F05460020B5
:100B200092469B4688460646814640241BE028465E
:100B3000414647462246FFF7F5FA53465A46C01A41
:100B4000914110D311461846224600F016F82D1A8E
:100B500067EB01084F4622460120002100F00DF806
:100B600017EB00094E41201EA4F10104DFDC4846CA
:100B700031462A464346BDE8F09F202A04DB203A4E
:100B800000FA02F1002070479140C2F1200320FAE0
:100B900003F3194390407047202A06DBCB17203A15
:100BA00041FA02F043EAE07306E041FA02F3D04072
:100BB000C2F120029140084319467047426842B191
:100BC000016811F8013B23B1521EC0E9001218461A
:100BD00070470121C160881E704742685AB1C368DE
:100BE000016843B983688B4205D0491E521CC0E995
:100BF0000012002070474FF0FF3070470FB4002301
:100C000000B589B00CA900910B996FF00042CB6040
:100C10001E4B06931E4B07930423CDE901321D4A58
:100C2000089202466B460020FFF78AFB09B05DF888
:100C300014FB70B586B006464FF0FF300091CDE949
:100C40000101002015460C4604903246694604A86E
:100C5000FFF7D4FF02460498211825B108B10846D1
:100C600000E020462860049800280DD0002A02DD0C
:100C70000098884208D0081B0094CDE90104324650
:100C8000694604A8FFF7BAFF06B070BDBD0B0008A7
:100C9000DB0B0008A50E00082DE9F04791460F4632
:100CA00080460446002614F8015B2DB100F0F6F8EA
:100CB0000068405DC007F6D12B2D02D02D2D18D035
:100CC000641E4A463946204600F0F5F827B13968D7
:100CD000A14201D1C7F8008071054FF002040BD585
:100CE0004042002803DD04F0C9FA0460A007BDE813
:100CF000F08746F48066E4E70028F8DA04F0BEFAEC
:100D000004606FF00040F2E70029A8BF7047401C64
:100D1000490008BF20F00100704710B4B0FA80FC11
:100D200000FA0CF050EA010404BF10BC704749B14E
:100D3000CCF1200421FA04F411FA0CF118BF0121BE
:100D400021430843A3EB0C01CB1D4FEA00614FEA9E
:100D5000102042BF002010BC704700EBC35010446D
:100D60000029A4BF10BC7047401C490008BF20F0F8
:100D7000010010BC704710B5141E73F1000408DAAE
:100D8000401C41F1000192185B411A4301D120F04F
:100D9000010010BD2DE9F04D92469B4611B1B1FA0C
:100DA00081F202E0B0FA80F220329046FFF7E5FED1
:100DB00004460F4640EA0A0041EA0B0153465A46F0
:100DC000084313D0114653EA010019D0C8F140027C
:100DD0005046FFF7A7F905460E465046594642468B
:100DE000FFF7CBFE084305D0012004E0204639463A
:100DF000BDE8F08D0020054346EAE0762C433743FA
:100E00000A986305E40AA0EB08000022FD0A44EA00
:100E100047540A3002D500200146E9E701051019C0
:100E20006941DDE9084500196941BDE8F04DA2E7D7
:100E30000EB540F2334202920022CDE90022134661
:100E4000FFF7A8FF03B000BDC1F30A52C1F31301BD
:100E500040F2FF3341F480119A4202DA0020014649
:100E6000704740F233439A42A2F2334202DC5242CC
:100E7000FFF758B9FFF781BE064C074D06E0E06862
:100E800040F0010394E8070098471034AC42F6D3D1
:100E9000FFF730F96885000888850008004870472A
:100EA000E884000810B50446FFF7F8FF0068005D0D
:100EB00000F0010010BD2DE9F05F824600780027A8
:100EC00015468B460AF10104B946302801D09DB180
:100ED00013E014F8010B0127782803D0582801D01B
:100EE00045B10AE00DB1102D07D10027102514F8E7
:100EF000010B02E0082500E00A250026B0460EE0BE
:100F000005FB080005FB06F1012701EB10461FFA5F
:100F100080F8B6F5803F00D3B94614F8010B294696
:100F200000F018F80028EBDABBF1000F05D00FB184
:100F3000641E00E05446CBF80040B9F1000F06D023
:100F400004F09CF902210160C81EBDE8F09F48EA48
:100F50000640FAE73A2800D2303820F02002412A31
:100F600001D3A2F13700884201D34FF0FF30704720
:100F700070B5044600688168C943C90717D1816804
:100F800021F00101816001F03FFB05460AE000BF4E
:100F900001F03AFB401B022804D920688068C04356
:100FA000C00706D020688068C043C007F0D000208A
:100FB00070BDA06A40F01000A062E06A40F001003D
:100FC000E062012070BD0000F8B5002604460096DE
:100FD00000688168C943C9072DD0816841F00101CB
:100FE0008160164816490068B0FBF1F000E0401E31
:100FF00000900028FBD101F007FB054616E000BF7A
:1010000001F002FB401B022810D920688068C04311
:10101000C0070BD0A06A40F01000A062E06A40F068
:101020000100E06284F824600120F8BD2068806837
:10103000C043C007E4D10020F8BD00002400002018
:1010400040420F00FEE70000014801F073B80000C5
:10105000B401002030B590F840500124AC40C56B7D
:101060006C60046863604368102B036803D0996068
:101070000068C26030BD9A600068C16030BD000089
:101080001FB5002001900290039040200090694617
:10109000014801F0BFF91FBD000801401FB5002045
:1010A000029040200090012001900320054C039005
:1010B0006946204601F0AEF901224021204601F0A8
:1010C0009EFA1FBD00080140002100EB800001E0F6
:1010D00000BF491CB1EB400FFAD3704710B504466E
:1010E0008C2000F079F800F00F01000900EB80007F
:1010F00001EB40002070882000F06EF800F00F0136
:10110000000900EB800001EB40006070862000F0D9
:1011100063F800F00F01000900EB800001EB4000D4
:10112000A0708A2000F058F800F00F01000900EBD1
:10113000800001EB4000E070842000F04DF800F0EA
:101140000F01000900EB800001EB400020718220BC
:1011500000F042F800F00F01000900EB800001EB05
:1011600040006071802000F037F800F00F010009A6
:1011700000EB800001EB4000A07110BD7FB50020A6
:10118000029080200124CDE900040320114D03903A
:101190006946284601F03EF94020CDE90004694641
:1011A000284601F037F92020CDE900046946284699
:1011B00001F030F900228021284601F020FA0022B7
:1011C0002021284601F01BFA00224021284601F088
:1011D00016FA7FBD000801402DE9F041394C002589
:1011E00040F001072A462021204601F008FA01209C
:1011F000FFF76AFF00228021204601F000FA01205B
:10120000FFF762FF01222021204601F0F8F90120BA
:10121000FFF75AFF0026F80701D0012200E0002264
:101220004021204601F0EBF90120FFF74DFF01229C
:101230008021204601F0E3F90120FFF745FF00225D
:101240008021204601F0DBF90120FFF73DFF761CED
:101250007F08F6B2082EDED3FFF712FF0120FFF75A
:1012600033FF00266D084021204601F0C3F908B184
:1012700045F080050120FFF727FF0122802120464D
:1012800001F0BDF90120FFF71FFF00228021204659
:1012900001F0B5F90120FFF717FF761CF6B2082E12
:1012A000E0D3FFF7FBFE0120FFF70EFF0022202115
:1012B000204601F0A4F90120FFF706FF2846BDE80B
:1012C000F08100000008014070B5054600218E2025
:1012D00000F064F828780A24B0FBF4F104FB110153
:1012E000B0FBF4F041EA0010C1B28C2000F056F8D7
:1012F0006878B0FBF4F104FB1101B0FBF4F041EAB3
:101300000010C1B2882000F049F8A878B0FBF4F1D1
:1013100004FB1101B0FBF4F041EA0010C1B28620D9
:1013200000F03CF8E878B0FBF4F104FB1101B0FBED
:10133000F4F041EA0010C1B28A2000F02FF82879B9
:10134000B0FBF4F104FB1101B0FBF4F041EA001032
:10135000C1B2842000F022F86879B0FBF4F104FBFC
:101360001101B0FBF4F041EA0010C1B2822000F09C
:1013700015F8A879B0FBF4F104FB1101B0FBF4F00F
:1013800041EA001000F07F01802000F007F8BDE87E
:10139000704080218E2000F001B800002DE9F0415E
:1013A000344C0E46074600222021204601F027F942
:1013B0000120FFF789FE00228021204601F01FF95D
:1013C0000120FFF781FE01222021204601F017F9BC
:1013D0000120FFF779FE0025F80701D0012200E087
:1013E00000224021204601F00AF90120FFF76CFE9F
:1013F00001228021204601F002F90120FFF764FE5E
:1014000000228021204601F0FAF80120FFF75CFE5F
:101410006D1C7F08EDB2082DDED30025F00701D04A
:10142000012200E000224021204601F0E8F80120DE
:10143000FFF74AFE01228021204601F0E0F801205A
:10144000FFF742FE00228021204601F0D8F801205B
:10145000FFF73AFE6D1C7608EDB2082DDED30022B0
:101460002021204601F0CBF8BDE8F0410120FFF734
:101470002BBE0000000801407047000005480649E7
:101480004FF47A720068B0FBF1F0044908605043F1
:10149000486070472400002040420F0048000020B0
:1014A00010B580210348FEF76CFE03490020088038
:1014B00010BD0000780600205000002010B5ADF5EA
:1014C000027D0E490EA0CDE9000110A311A24FF438
:1014D000007102A803F0AAFE19A424A102A800F03A
:1014E000B5FA002806D021A1204600F0AFFA002866
:1014F00000D001200DF5027D10BD0000EC84000835
:101500006455356A5667314C3962000074657374EE
:101510000000000041542B4D515454555345524343
:1015200046473D302C312C222573222C2225732254
:101530002C222573222C302C302C22220D0A000064
:1015400041542B4D515454434F4E4E3D302C226D3F
:10155000717474732E6865636C6F7564732E636F3A
:101560006D222C313838332C310D0A004F4B0000DE
:1015700000B5A1B008A000900AA30FA2802101A885
:1015800003F054FE12A101A800F060FA002800D078
:10159000012021B000BD0000313338353139303100
:1015A00038323500434D43432D3430322D322E3402
:1015B000472D65787400000041542B43574A415031
:1015C0003D222573222C222573220D0A00000000E3
:1015D000474F5420495000002DE9F041C4B01F4648
:1015E000904605000E463DD0002E3BD00846FEF743
:1015F000EFFD0446CDE900482B461BA24FF4807155
:1016000003A8029703F012FEFFF74AFF03A8FEF7B4
:10161000DFFD82B24FF47A7303A91C4802F0DDFAB1
:1016200041F288311AA000F06FFA80B1A2B24FF4F3
:10163000FA633146154802F0D0FA4FF4FA5115A07A
:1016400000F062FA50B1012044B0BDE8F08164239B
:10165000122211A10D4802F0C0FA03E0642113A088
:1016600000F052FA0020EFE741542B4D51545450F2
:1016700055425241573D302C222573222C256C7542
:101680002C25642C25640D0A000000002401002094
:101690003E0000004F4B00002D2D455350206E6F33
:1016A0002070726F6D70740D0A0000004552524F29
:1016B0005200000000B5C1B0034600910AA24FF4E9
:1016C000807101A803F0B2FD0DA101A800F0BEF9E0
:1016D00010B1012041B000BDC82004F0ACFB08A14E
:1016E00001A800F0B3F9F5E741542B4D5154545380
:1016F00055423D302C222573222C25640D0A000012
:101700004F4B00002DE9F041894EE6B030887F282C
:1017100003D23588002D6FD000E07F2585A003F02F
:1017200075FD2A46854920A8FEF712FD0024348065
:101730008248047020A80146445581A003F066FD4C
:101740007B2120A8FEF73AFD002855D00022114643
:101750006D460BE07B2B02D07D2B02D002E0521CA9
:1017600000E0521E6B54401C491C1AB103780BB1A7
:101770007F29EFDB6C5400293ED0284604F0D7FACD
:101780005FEA000838D0002572A104F097FA04003F
:1017900003D004F0AFFA00B125696FA1404604F010
:1017A0008DFA070076D06EA104F088FA04002ED0DE
:1017B00004F087FAE0B9204604F08AFA18B120460E
:1017C00004F06EFA23E0204604F094FA18B1206980
:1017D000FEF7D2FE1BE0204604F083FAB8B162A106
:1017E000204604F06BFA040011D004F06AFA20B12C
:1017F000204604F088FA0AE096E0204604F068FAF1
:101800000028DCD1204604F075FA0028DFD158A169
:10181000384604F053FA04002DD004F052FAE0B92F
:10182000204604F055FA18B1204604F039FA22E0B7
:10183000204604F05FFA18B12069FEF79DFE1AE019
:10184000204604F04EFAB0B147A1204604F036FA23
:10185000040010D004F035FA18B1204604F053FA11
:1018600009E0204604F034FA0028DDD1204604F0D7
:1018700041FA0028E0D140A1384604F01FFA0400E4
:101880003DD004F025FA30B1204604F009FAFFF704
:10189000B8F807E033E0204604F02CFA60B1206984
:1018A000FEF76AFE0446022829D80022ECB1012C7A
:1018B00016D0022C19D116E0204604F012FAF0B12D
:1018C00029A1204604F0FAF9040018D004F000FA27
:1018D0000028D9D1204604F00DFA0028DFD10EE00F
:1018E0004FF4FA7201E04FF47A72254800684263BF
:1018F000214624A003F08AFC2D48641C047015B115
:101900002B462CA203E000F07FFE034636A2802186
:1019100040A803F08BFC00231A4640A93FA0FFF724
:101920005BFE404604F098F966B0BDE8F081000027
:101930005000002068656C6C6F0D0A00780600206E
:101940002D2D50524F434553532052583A20257362
:101950000D0A000069640000706172616D7300001F
:101960006C6564310000000076616C7565000000F4
:101970006C656432000000006C6564730000000058
:10198000940000204C4544206272696768746E655B
:1019900073732073657420746F206C6576656C209A
:1019A0002564202850574D3A20256C75290D0A00D2
:1019B000000000207B226964223A222573222C2217
:1019C000636F6465223A3230302C22646174612284
:1019D0003A6E756C6C2C226D7367223A22737563B4
:1019E00063657373227D00007B226964223A22259D
:1019F0006C75222C22636F6465223A3230302C22BF
:101A000064617461223A6E756C6C2C226D7367226E
:101A10003A2273756363657373227D00247379734F
:101A20002F6455356A5667314C39622F746573746B
:101A30002F7468696E672F70726F70657274792F7A
:101A40007365745F7265706C790000002DE9F04376
:101A5000A1B0894605464FF47A74FFF721FD284668
:101A6000FEF7B6FB82B2C8232946224802F0B5F839
:101A7000322004F0E0F9204F0026E8462BE000BFBA
:101A800000F070F820B3C82004F0D5F93D887F2D10
:101A900000D97F252A4619496846FEF759FB08F800
:101AA0000560B9F100000AD001466846FEF774FBF4
:101AB00028B1FFF7F5FC012021B0BDE8F08310A1AB
:101AC0006846FEF769FB18B1FFF7EAFC0020F3E770
:101AD0000A2004F0B0F9641EA4B2D1D23C887F2C55
:101AE00000D97F24224605496846FEF731FB0DF8F0
:101AF0000460E9E72401002050000020780600205F
:101B00004552524F520000002DE9F04381460A2011
:101B1000B1FBF0F5A1B0114E0027E8461AE00A200B
:101B200004F089F93488ACB17F2C00D97F24224697
:101B30000B496846FEF70CFB08F80470B9F1000089
:101B400008D001466846FEF727FB18B1012021B0F6
:101B5000BDE8F08328466D1EE1D2F8E75000002072
:101B6000780600200748018839B1018842889142EF
:101B700005D1002141800120704700207047018875
:101B80004180FAE75000002010B54FF4805000F07B
:101B900035FC4FF4005000F031FCBDE810404FF42C
:101BA000804000F02BBC72B6FEE70000F8B50024C0
:101BB000009490F824202546012A12D0012280F8B2
:101BC00024204A681F23072A0DD20668776B521E0D
:101BD00002EB820293409F430B6893401F4377635D
:101BE00019E00220F8BD06680D2A0AD2376BD21F11
:101BF00002EB820293409F430B6893401F4337637D
:101C000009E0F76A0D3A02EB820293409F430B68AA
:101C100093401F43F7620A68072306680A2A0AD31B
:101C2000F7680A3A02EB420293409F438B68934065
:101C30001F43F76008E0376902EB420293409F437D
:101C40008B6893401F4337610A68102A01D0112A1C
:101C500020D1124B02689A4217D193681B0219D403
:101C6000936843F4000393600968102912D10C496A
:101C70000C4A0968B1FBF2F101EB8101490000E077
:101C8000491E00910029FBD104E0816A41F0200146
:101C90008162012480F824502046F8BD00240140D0
:101CA0002400002040420F000068C06C7047000014
:101CB0002DE9F0414FF0000704003D467ED0A06AB8
:101CC000002628B9E66284F82460204600F07EF8F9
:101CD0002046FFF74DF9A16AC90600D420B1A06AD9
:101CE00040F01000A06269E0A16A21F4885141F03F
:101CF0000201A1626268E169237B0A4347EA43016A
:101D00000A43A1684FF48077B94209D0012907D06E
:101D10005FF0000194F814C0BCF1010F02D00AE09A
:101D20003946F7E7F3B1A36A43F02003A362E36AFD
:101D300043F00103E3622368D3F804C02CF4694C38
:101D40004CEA010CC3F804C021688B68DFF870C04E
:101D500003EA0C0313438B60A168B9420BD001293D
:101D600009D00CE0DFF85CC0A3690CEB43330B43F4
:101D700043F40061DFE7218A0D05A5F58015216890
:101D8000CB6A23F470032B43CB62216889680E4B26
:101D90001940914208D1E662A16A21F0020141F0A6
:101DA0000101A162BDE8F081A06A20F0020040F0CC
:101DB0001000A062E06A40F00100E0620120F1E75B
:101DC000FDF7E1FF00E0FFFFFE0E1FFF00B585B04D
:101DD0000021009101910291039100680E4988420F
:101DE00018D10E48816941F400718161816901F463
:101DF00000710491816941F008018161806969463F
:101E000000F0080004900220009003200190044894
:101E100000F000FB05B000BD0024014000100240AE
:101E2000000C01402DE9F84300270D4604460097B9
:101E300000F0EAFB804620688168C90508D5A06AE1
:101E400040F02000A06284F824700120BDE8F883EF
:101E50004168C90503D4C06A10F4700F2AD002206B
:101E600000F070FC3B490968B1FBF0F6206803699B
:101E700039490B424FEA61014FEAA1121FD1C368F1
:101E80004FEA611C13EA0C0F19D103690B4225D1EB
:101E9000C068104222D1142023E0681C0AD02DB162
:101EA00000F0B2FBA0EB0800A84203D9206800684C
:101EB000800725D5206800688007EED52DE00369EE
:101EC0000B4202D1C168114206D0026923490A427D
:101ED00006D1C068084203D1542002E0292000E066
:101EE000FC204643009816E0681C11D02DB100F08C
:101EF0008BFBA0EB0800A8420AD90098B04207D299
:101F0000A06A40F00400A06284F8247003209DE7DA
:101F10000098401C0090B042E6D321686FF0120098
:101F20000860A06A40F40070A06220688068C0F376
:101F3000424007280CD1207B50B9A06A20F4807061
:101F4000A062A06AC00403D4A06A40F00100A062AD
:101F500000207BE724000020244992244992240099
:101F600070B5044690F8240001280DD0012084F8B3
:101F700024002046FFF728F802004FF0000005D0AB
:101F800084F82400104670BD022070BDA16A40F2A2
:101F90000123994341F48071A1621F4D23681F49B9
:101FA000AB4218D10E6816F4702F14D0A66A46F40E
:101FB0008016A6620E68760505D5A66A26F4005638
:101FC00046F48056A662A66AF6040AD5E66A26F0AA
:101FD0000606E66206E0A66A26F48016A6625E6839
:101FE000E9E7E06284F824006FF0020018602068DE
:101FF0008368C3F34243072B05D1A84208D109687F
:1020000011F4702F04D0816841F480118160B9E728
:10201000816841F4A001F9E700280140042401404F
:1020200010B5044690F82400012807D0012084F858
:1020300024002046FEF79CFF10B107E0022010BDEF
:10204000A16A21F4885141F00101A162002184F8C4
:10205000241010BD10B590F821100022022905D0DF
:102060000421816380F82020012010BD01680B68E5
:1020700023F00E030B6001680B6823F001030B6073
:1020800090F84030C46B012101FA03F3636080F8DB
:10209000211080F82020104610BD000010B590F8E7
:1020A00021100024022903D00421816301243DE092
:1020B00001680A6822F00E020A6001680A6822F0CC
:1020C00001020A601A4A0168914201D1012121E00E
:1020D000174A1432914201D110211BE0144A2832D0
:1020E000914201D1891515E0114A3C32914201D14A
:1020F00089140FE00E4A5032914202D14FF48031E0
:1021000008E00B4A6432914202D14FF4801101E0A1
:102110004FF08071064A083A5160012180F8211081
:10212000002180F82010416B01B18847204610BD86
:10213000080002402DE9F05FC16B0C6801680B6874
:10214000D0F840C0042202FA0CF2494DDFF824A175
:10215000494E4A4FDFF828B1DFF828E122422CD05F
:102160005A072AD50A68920603D40A6822F00402A4
:102170000A600168A94201D1042219E0514501D148
:10218000402215E0B14202D14FF4806210E0B94222
:1021900002D14FF480420BE0594502D14FF4802226
:1021A00006E0714502D14FF4800201E04FF08062F9
:1021B0002F4908394A60C16A3BE04FF0020808FA2B
:1021C0000CF818EA040F4FF000094FF0010235D067
:1021D0005FEA837832D50B689B0605D40B6823F041
:1021E0000A030B6080F821200168A94201D1022274
:1021F00019E0514501D1202215E0B14202D14FF43E
:10220000007210E0B94202D14FF400520BE0594580
:1022100002D14FF4003206E0714502D14FF40012B2
:1022200001E04FF00072124908394A6080F82090AE
:10223000816A00291AD0BDE8F05F0847082505FA31
:102240000CF5254212D01B0710D50B6823F00E03A6
:102250000B6090F84010C36B02FA01F15960826381
:1022600080F8212080F82090016BE2E7BDE8F09F24
:10227000080002401C0002403000024044000240BE
:10228000580002406C00024030B528B308C813491A
:1022900014221944B1FBF2F18900C1631049816332
:1022A000022141771A6843F6F0718A43D0E900149D
:1022B0002143D0E902452C43214304692143446969
:1022C00021438469214311431960002141630122A4
:1022D00042770177084630BD012030BDF8FFFDBFD1
:1022E0000000024070B5044690F820000025012847
:1022F0000CD0012084F8200094F821600020012EE9
:1023000006D084F820000225284670BD022070BD4A
:10231000022684F82160A0632068066826F0010682
:1023200006602046FEF796FEE06A002820680168F5
:1023300002D041F00E0106E021F0040101602068A6
:10234000016841F00A0101602068016841F0010163
:102350000160D9E770B5044600F056F90546601CE7
:1023600002D004480078044400F04EF9401BA0421B
:10237000FAD370BD180000200122C8231C49B0F513
:10238000805F0DD0B0F5005F14D0B0F5804F06D15E
:102390008889002803D1087930B3CA708B817047CF
:1023A00008890028FBD1087910B14A700B81704769
:1023B0000A71FBE748890028F9D1087910B18A70C1
:1023C0004B8170470878401C08700878032800D9B2
:1023D0000A7008780028F3D006480A7850F82200DE
:1023E000054A12685063EBE700200870D6E700004A
:1023F00000000020306A000894000020044910B555
:102400000A68024202D00860FFF7B6FF10BD000064
:10241000140401402DE9F84FDFF8B8910024A9F128
:10242000040B23460F2709F1040AABF1040EC9E09F
:102430000125A5402A40AA427DD1674ED1F804C0AB
:10244000ACEB0608B44532D014DCBCF1030F3AD033
:1024500009DCBCF1000F2AD0BCF1010F1CD0BCF18B
:10246000020F31D11DE0BCF1110F17D0BCF1120FDA
:102470002AD119E0B8F5881F19D006DCB8F5803FDD
:1024800015D0B8F5801F1FD111E0B8F5001F0ED090
:10249000B8F5041F18D10AE0CB6815E0CB681B1D06
:1024A00012E0CB6808330FE0CB680C330CE08B688C
:1024B0002BB1012B4FF0080303D0456104E0042346
:1024C00002E0056100E00023FF2A01D8064601E092
:1024D00000F104064FEA840501D9A5F12005D6F8DC
:1024E000008007FA05FC28EA0C0803FA05F548EA1B
:1024F0000508C6F800804D68ED0062D5374DAE691D
:1025000046F00106AE61AD6924F0030605F0010551
:102510000095334D06EB050CDCF80850A607360F86
:1025200007FA06F825EA0805DFF8B880404503D128
:102530004FF0000817E044E0DFF8AC80404502D1DE
:102540004FF001080FE0DFF8A480404502D14FF0C2
:10255000020808E0DFF89880404502D14FF00308F8
:1025600001E04FF0040808FA06F848EA0508CCF83C
:1025700008804D68D9F80060ED024D4601D516433C
:1025800000E096432E604D68DAF80060AD025546D3
:1025900001D5164300E096432E604D68DBF80060DD
:1025A000AD035D4601D5164300E096432E604D68AD
:1025B000DEF80060ED03754601D5164300E0964352
:1025C0002E60641C0D682A46E5407FF431AFBDE8FB
:1025D000F88F0000080401400000111000100240B4
:1025E0000000014000080140000C014000100140C3
:1025F000001401408068084000D0012070470AB1F3
:10260000016170470904FBE70148806870470000DA
:1026100018000020024881680278114481607047E8
:1026200018000020074810B5016841F01001016052
:10263000032000F075F80F2000F006F800F024F8F1
:10264000002010BD0020024070B50D4D04464FF42F
:102650007A712878B1FBF0F00A490968B1FBF0F013
:1026600000F0A4FB48B9102C07D200222146501ECE
:1026700000F036F800206C6070BD012070BD0000D5
:1026800018000020240000200C4808B5816941F0A2
:1026900001018161816901F001010091C16941F08D
:1026A0008051C161C06900F08050009004484168C9
:1026B00021F0E06141F00071416008BD001002406E
:1026C00000000140002809DB00F01F0201219140B9
:1026D0004009800000F1E020C0F8001170470000C0
:1026E000F0B40E4B1B680C46C3F30223C3F107057D
:1026F000042D00D90425191D072901D2002300E06B
:10270000DB1E012606FA05F1491E214099409E4034
:10271000761E16403143F0BC02F0A0BD0CED00E087
:10272000064900F0070208684FF6FF03184040EA28
:102730000220034A10430860704700000CED00E0DF
:102740000000FA0510B501460020234C012922D0D3
:10275000022939D010291DD161682268D20119D50A
:102760001E48C1F38342C903805C0AD561681B4AD5
:10277000C1F34041921E515C194AB2FBF1F148434A
:1027800001E0184948436168490203D4400003212D
:10279000B0FBF1F010BD226AC2F30121012903D17F
:1027A000920701D5C80310BD022905D1626A9207BC
:1027B00002D549F6404010BD0329FCD121688903A8
:1027C000F9D54FF2244010BD00F02AF96168C1F339
:1027D0008131491C4900DBE700100240546A0008BF
:1027E00000127A0000093D002DE9F8430546007803
:1027F000354CC00754D0E0690026C00008D4E06919
:1028000040F08050E061E069012600F080500090C7
:102810002E480168C90512D40168804641F48071D0
:102820000160FFF7F1FE074605E000BFFFF7ECFE91
:10283000C01B642823D8D8F80000C005F6D5206A4C
:1028400010F4407021D0A98801F4407181421CD05D
:10285000206A1F49012220F440700A6000220A60A9
:102860002062C00711D0FFF7CFFE074641F288383B
:1028700008E000BFFFF7C8FEC11B414502D9032095
:10288000BDE8F883206A8007F4D5206A696820F4DF
:102890004070084320621EB1E06920F08050E06182
:1028A0002878800705D56068A96820F4404008436F
:1028B00060602878C00605D56068E96820F480006B
:1028C000084360600020DBE7001002400070004019
:1028D000400442422DE9F0470F46050061D0434EC7
:1028E000306800F00700B84209D2306820F00700D5
:1028F00038433060306800F00700B84251D1286892
:102900003B4C810712D5400703D5606840F4E06076
:1029100060602878000703D5606840F4605060600C
:102920006068A96820F0F000084360602878C0075C
:1029300028D06868012810D02168022810D08907A3
:1029400000292EDA616821F0030101436160FFF77D
:102950005BFE804641F288390DE021688903EFE78C
:102960008901EDE7FFF750FEA0EB0801494502D9C8
:102970000320BDE8F0876068696800F00C00B0EBE8
:10298000810FEFD1306800F00700B8420BD93068F2
:1029900020F0070038433060306800F00700B8428C
:1029A00001D00120E5E72878400705D56068E9688F
:1029B00020F4E060084360602878000706D560686E
:1029C000296920F4605040EAC100606000F038F8E6
:1029D0006168084AC1F30311515CC84006490860A8
:1029E00006480068FFF730FE0020C2E700200240E2
:1029F00000100240646A0008240000201C0000202F
:102A00000448054900684968044AC1F30221515C41
:102A1000C84070472400002000100240746A00087B
:102A20000448054900684968044AC1F3C221515C61
:102A3000C84070472400002000100240746A00085B
:102A40000E4A51680E4801F00C03042B11D0082BDC
:102A50000FD10C48C1F38343C903C05C0AD5516848
:102A6000084AC1F34041921E515C054A5043B0FBF5
:102A7000F1F07047044948437047000000100240DD
:102A800000127A00426A000800093D002DE9F84F63
:102A9000040070D02078C04DC00749D06868C0F3EA
:102AA0008100012807D06868C0F38100022809D19D
:102AB0006868C00306D52868800339D56068002897
:102AC000E7D035E06068B0F5803F0BD010B1B0F5CD
:102AD000A02F11D0286820F480302860286820F4C6
:102AE000802002E0286840F480302860606890B15F
:102AF000FFF78AFD06460AE0286840F48020286037
:102B0000F0E700BFFFF780FD801B642873D82868BA
:102B10008003F7D50CE0FFF777FD064605E000BF20
:102B2000FFF772FD801B6428F0D828688003F7D473
:102B300020789A4E80074FF001094FF0000839D5F0
:102B4000686810F00C0F07D06868C0F38100022895
:102B500009D16868C00306D42868800714D52069A5
:102B6000012808D110E02069B0B1C6F80090FFF745
:102B70004BFD074605E00AE1FFF746FDC01B0228B2
:102B8000C4D828688007F7D52868616920F0F80064
:102B900040EAC10028600DE0C6F80080FFF734FD70
:102BA000074604E0FFF730FDC01B022823D8286841
:102BB0008007F7D4207800072CD57948A169D9B1CE
:102BC000C0F80090FFF720FD074604E0FFF71CFD6A
:102BD000C01B02280FD8686A8007F7D571484FF4E8
:102BE000FA510068B0FBF1F0009000BF0098411E60
:102BF0000091FAD20EE080E0C0F80080FFF704FDFB
:102C0000074604E0FFF700FDC01B022875D8686A7C
:102C10008007F7D42078400760D5E8690027C00016
:102C200008D4E86940F08050E861E869012700F0C5
:102C3000805000905C480168C90513D40168834640
:102C400041F480710160FFF7DFFC824606E000BFBF
:102C5000FFF7DAFCA0EB0A0064284ED8DBF800008E
:102C6000C005F5D5E06801280AD008B1052813D0C1
:102C7000286A20F001002862286A20F0040002E09F
:102C8000286A40F001002862E06841F2883B98B170
:102C9000FFF7BAFC82460BE0286A40F00400286285
:102CA000EEE700BFFFF7B0FCA0EB0A0159455AD888
:102CB000286A8007F6D50CE0FFF7A6FC824605E0FF
:102CC000FFF7A2FCA0EB0A0159454CD8286A8007FF
:102CD000F6D41FB1E86920F08050E861E06988B35C
:102CE0006968C1F38101022944D00228C6F86080D6
:102CF00004D0FFF789FC044638E034E0FFF784FC99
:102D0000074604E0FFF780FCC01B02282BD8286888
:102D10008001F7D4206AB0F5803F05D16868A168CA
:102D200020F4003008436860D4E90801084369686A
:102D300021F4741108436860C6F86090FFF764FCE2
:102D4000044606E025E000BFFFF75EFC001B0228FA
:102D500009D828688001F7D51BE000BFFFF754FCB5
:102D6000001B022802D90320BDE8F88F28688001E3
:102D7000F4D40EE00128F7D06868226A00F48031AC
:102D8000914204D1616A00F47010884201D00120A0
:102D9000EAE70020E8E7000000100240000042429D
:102DA00080044242240000200070004010B5401E04
:102DB000B0F1807F01D3012010BD4FF0E0246061AD
:102DC0000F21601702F04AFA0020A061072020615D
:102DD000002010BD7047704710B590F83C20012AC4
:102DE00022D0012280F83C20CA688C6822F440720C
:102DF00022434C6822F4806222430C6822F4006271
:102E000022430C6922F4805222434C6922F400527E
:102E10002243C969002322F480420A4301684A64BC
:102E200080F83C30002010BD022010BD70B590F835
:102E30003C20012A26D0012480F83C40022280F860
:102E40003D2003685A689D6822F070060A68324384
:102E50005A600D4B02689A4208D0B2F1804F05D0FB
:102E60000A4B9A4202D00A4B9A4204D1496825F093
:102E700080031943916080F83D40002180F83C10A8
:102E8000084670BD022070BD002C014000040040C7
:102E90000008004010B5040003D094F83D0010B1C4
:102EA00007E0012010BD002084F83C00204600F01F
:102EB0001FF8022084F83D00211D206801F0ACFBC2
:102EC000012084F8460084F83E0084F83F0084F82E
:102ED000400084F8410084F8420084F8430084F8FC
:102EE000440084F8450084F83D00002010BD000037
:102EF00000B585B000210091019102910391204A13
:102F00000168204891420ED1816941F400618161DC
:102F10008069002200F40060049003211920FFF76B
:102F2000DFFB192028E0B1F1804F27D1C16941F0C2
:102F30000101C161C16901F001010491816941F0A0
:102F4000040181618069694600F0040004904FF437
:102F5000004000900C48FFF75DFA0C48416821F4EE
:102F6000407141F0E06141F4807141600022022132
:102F70001C20FFF7B5FB1C20FFF7A4FB05B000BD2C
:102F8000002C0140001002400008014000000140F8
:102F900090F83D10012901D001207047022180F8EE
:102FA0003D1000680B49884208D0B0F1804F05D031
:102FB0000949884202D00949884204D1816801F058
:102FC0000701062903D0016841F0010101600020DA
:102FD00070470000002C0140000400400008004041
:102FE00090F83D10012901D001207047022180F89E
:102FF0003D100168CA6842F00102CA6000680B49CE
:10300000884208D0B0F1804F05D00949884202D0EB
:103010000849884204D1816801F00701062903D0DC
:10302000016841F00101016000207047002C01405F
:10303000000400400008004070B5044690F83C00D1
:103040000025012817D0012684F83C60022084F86E
:103050003D002068826822F0770222F47F4282607D
:103060000868502838D00DDC20284FD005DC90B3FC
:10307000102811D14AE0022070BD302846D04028E7
:103080000AD13BE060282FD070280DD0B0F5805FCA
:1030900003D0B0F5005F12D0012584F83D60002018
:1030A00084F83C00284670BDCB68D1E90121206836
:1030B00001F0FBFA2068816841F0770109E0CB68F4
:1030C000D1E90121206801F0F0FA2068816841F41B
:1030D00080418160E1E719E0CA684968206801F031
:1030E00099FB5021206806E0CA684968206801F011
:1030F000CFFB6021206801F0E2FACEE7CA68496898
:10310000206801F087FB40212068F4E7226801462F
:103110001046F0E770B504460068B0F1804F17D153
:10312000207F012814D1134D287890B128780128E8
:103130000ED10021204600F0F4FAA8602068016A50
:1031400021F00A0101622068016A016202202870F0
:1031500070BD0021204600F0E4FA68602068016A32
:1031600021F00A0101622068016A41F00201016256
:103170000120ECE7280000202DE9F041054690F8F9
:103180003C0000260C46012810D0012085F83C00A8
:1031900072B1042A1CD0082A2CD00C2A50D0012647
:1031A000002085F83C003046BDE8F0810220FBE7B6
:1031B000D4E90012E368286801F03EFB28688169C1
:1031C00021F00C01816128688169A26811430FE038
:1031D000D4E90012E368286801F06CFB2868816973
:1031E00021F44061816128688169A26841EA022175
:1031F0008161D5E72868D4E9002C277B036A016A3E
:1032000021F480710162C16923F4007321F003018C
:1032100041EA0C0121F0F00C39074FF400774CEA39
:10322000116107EA02221A43C16102622868C1697A
:1032300021F00C01C1612868C169A26811432BE02B
:103240002868D4E90021E768036AD0F820C02CF48C
:10325000805CC0F820C0D0F81CC023F400532CF4CC
:10326000407C4CEA012121F4704C4FF6FF7101EAD9
:1032700007314FF4005741EA0C0107EA02321A43C2
:10328000C16102622868C16921F44061C161286896
:10329000C169A26841EA0221C16181E710B5040059
:1032A00003D094F83D0010B107E0012010BD0020CC
:1032B00084F83C00204600F01EF8022084F83D000F
:1032C000211D206801F0A8F9012084F8460084F847
:1032D0003E0084F83F0084F8400084F8410084F800
:1032E000420084F8430084F8440084F8450084F8E0
:1032F0003D00002010BD704730B50446002551B197
:1033000004290DD0082910D094F8410094F84520E4
:10331000012811D10EE094F83E0094F84220F7E71E
:1033200094F83F0094F84320F2E794F8400094F8B2
:103330004420EDE7012A01D0012030BD022059B11F
:10334000042912D0082919D084F8410084F84500D6
:103350000C2938D0012534E084F83E0084F842007E
:103360002068C26842F0020210E084F83F0084F84E
:1033700043002068C26842F0040207E084F840007D
:1033800084F844002068C26842F00802C26001224A
:10339000206801F07DF90E492068884208D0B0F11C
:1033A000804F05D00B49884202D00B49884204D196
:1033B000816801F00701062903D0016841F001018D
:1033C0000160284630BD2068C26842F01002DDE787
:1033D000002C014000040040000800402DE9F041AD
:1033E00004460068C66805694FF00007A90713D5B1
:1033F000B10711D5F91E016101202077206880698D
:103400008007204602D0FFF785FE04E000F0A4F814
:10341000204600F036F92777680716D5700714D5CF
:1034200021686FF00400086102202077206880691D
:1034300010F4407F204602D0FFF76CFE04E000F05D
:103440008BF8204600F01DF92777280715D530079F
:1034500013D521686FF008000861042020772068E8
:10346000C0698007204602D0FFF754FE04E000F058
:1034700073F8204600F005F92777E80616D5F00620
:1034800014D521686FF010000861082020772068AB
:10349000C06910F4407F204602D0FFF73BFE04E0F5
:1034A00000F05AF8204600F0ECF82777E80708D03B
:1034B000F00706D021686FF001000861204600F097
:1034C0002FF9280608D5300606D521686FF0800050
:1034D00008612046FFF77EFC680608D5700606D511
:1034E00021686FF040000861204600F02FF9A8061F
:1034F0000AD5B00608D521686FF020000861204683
:10350000BDE8F041FFF767BCBDE8F08100B585B0CC
:103510000021009101910291039100680B498842BA
:1035200012D10B48816941F00401816180696946CB
:1035300000F0040004904FF480700090022001908D
:1035400003900448FEF766FF05B000BD002C014063
:103550000010024000080140704770B5044690F822
:103560003C0000260D4601280FD0012084F83C00C5
:103570006AB1042A1DD0082A2FD00C2A3FD0012678
:10358000002084F83C00304670BD022070BD2068E9
:1035900001F09EF82068816941F00801816120688E
:1035A000816921F004018161206881692A691143E0
:1035B00011E0206801F0B4F82068816941F40061ED
:1035C00081612068816921F480618161206881695D
:1035D0002A6941EA02218161D2E7206801F0CCF832
:1035E0002068C16941F00801C1612068C16921F00A
:1035F0000401C1612068C1692A69114311E0206892
:1036000001F0E6F82068C16941F40061C1612068F9
:10361000C16921F48061C1612068C1692A6941EAF8
:103620000221C161ACE710B5040003D094F83D005D
:1036300010B107E0012010BD002084F83C002046B6
:1036400000F01EF8022084F83D00211D206800F0E3
:10365000E3FF012084F8460084F83E0084F83F0030
:1036600084F8400084F8410084F8420084F8430064
:1036700084F8440084F8450084F83D00002010BD23
:103680007047704710B50446022249B104290ED094
:10369000082913D094F84100012816D0012010BD4C
:1036A00094F83E000128F9D184F83E200FE094F808
:1036B0003F000128F2D184F83F2008E094F8400050
:1036C0000128EBD184F8402001E084F84120012258
:1036D000206800F0DDFF0F492068884203D1426C6A
:1036E00042F4004242642068884208D0B0F1804F22
:1036F00005D00949884202D00849884204D181682E
:1037000001F00701062903D0016841F001010160C1
:10371000002010BD002C01400004004000080040C3
:1037200070470246002041B1042909D008290AD077
:103730000C2901D11068006C70471068406B70470D
:103740001068806B70471068C06B70477047704797
:1037500010B504460068406994F84110C0F3C010E9
:10376000212911D180B12068143050E8001F21F0C8
:10377000800140E80012002AF5D1A06B08B1FEF7E5
:1037800069FC204601F0C8FB2068406994F84210AB
:10379000C0F38010222911D180B12068143050E884
:1037A000001F21F0400140E80012002AF5D1E06B33
:1037B00008B1FEF74FFC204601F087FB002010BD4A
:1037C00070470000F8B5016804460868CA684B698C
:1037D00010F00F0F4FF0000559D003F0010602F46E
:1037E0009077374365D0C10705D0D10503D5616C0B
:1037F00041F001016164410705D5D90703D0616C2F
:1038000041F002016164810705D5D90703D0616CDD
:1038100041F004016164010707D502F02001314342
:1038200003D0616C41F008016164616C00293AD0F9
:10383000800604D5900602D5204601F07BFB206867
:103840004069616CC0F38010090700D460B3204662
:1038500001F03BFB20684069400621D52068143008
:1038600050E8001F21F0400140E80012002AF5D185
:10387000E06BA8B16D494163E06BFEF70FFC0028D7
:1038800011D0E06B416B01B0BDE8F0400847830602
:103890000FD593060DD52046BDE8F84001F04ABB90
:1038A0002046FFF78DFFF8BD2046FFF789FF6564CE
:1038B000F8BD266B2023012E7CD1C6067AD5D6060C
:1038C00078D508684868009048694FF002064006BD
:1038D00040D5E16B086840680004000CE8D0A28D78
:1038E0008242E5D9E085886920282DD020680C30F7
:1038F00050E8001F21F4807140E80012002AF5D141
:103900002068143050E8001F21F0010140E8001247
:10391000002AF5D12068143050E8001F21F0400142
:1039200040E80012002AF5D184F84230256320686F
:103930000C3050E8001F21F0100140E80012002A6E
:10394000F5D1E06BFEF786FB6663A08DE18D401A32
:1039500081B22AE0A08DE18D401A81B2E08D00286D
:10396000A6D00029A4D022680C3252E8000F20F41F
:10397000907042E80007002FF5D12068143050E81D
:10398000002F22F0010240E80027002FF5D184F833
:103990004230256320680C3050E8002F22F01002DE
:1039A00040E80023002BF5D166632046FFF7CFFEE9
:1039B000F8BDFFE705062BD5150629D594F841007B
:1039C0002128F5D1A068B0F5805F01D12069B0B1A0
:1039D000206A411C2162216800784860E08C401E0A
:1039E0000004000CE084E3D12068C16821F080016C
:1039F000C1602068C16841F04001C160D8E7206A19
:103A00000088C0F308004860206A801C2062E5E757
:103A10004006CDD55006CBD5CA68204622F04002DC
:103A2000CA6084F8413000F028F9C1E7CD4D0008A4
:103A300070B5040004D094F84100002510B106E0F0
:103A4000012070BD84F84050204600F023F8242067
:103A500084F841002068C16821F40051C16020460B
:103A600001F0CAFA2068016921F4904101612068DF
:103A7000416921F02A0141612068C16841F4005187
:103A8000C1606564202084F8410084F842006563C9
:103A9000002070BDF0B585B000240094019402941C
:103AA00003940646344F0368344902200322344D00
:103AB000BB423CD18B6943F480438B618B6903F437
:103AC000804304938B6943F004038B6189690392FB
:103AD00001F0040104910102CDE900106946284675
:103AE000FEF798FC2815CDE90004694628460294A3
:103AF000FEF790FC244D2348C5E900048020C5E969
:103B000002402C616C61AC612846EC61FEF7BCFBA5
:103B100008B1FEF748F8F5630022012125206E6206
:103B2000FEF7DEFD2520FEF7CDFD05B0F0BD174EFA
:103B3000B342FAD1CB6943F40033CB61CB6903F4D0
:103B4000003304938B6943F004038B61896903920A
:103B500001F0040104910421CDE9001069462846D2
:103B6000FEF758FC0820CDE9000469462846029477
:103B7000FEF750FCD9E70000003801400010024079
:103B80000008014058000240B401002000440040F9
:103B900090F84230202B01D00220704721B11AB199
:103BA0000023036301F084BA01207047074988426B
:103BB0000BD107487F210180064A0088002111545B
:103BC0007F2204490148FFF7E3BF7047240100202A
:103BD000500000207806002070472DE9F843044685
:103BE00090F84100984616460D46202802D0022043
:103BF000BDE8F88385B17EB100206064212084F89F
:103C00004100FEF701FDA6848146E684A0682027D6
:103C1000B0F5805F02D003E00120E9E7206910B130
:103C20002E4600250EE000260CE08021204601F003
:103C300087FAA8B9C6B116F8010B21684860E08C74
:103C4000401EE084E08C4B464FF00002CDF800802F
:103C50000028EAD14FF04001204601F071FA40B14E
:103C600084F841700320C3E735F8020BC0F3080065
:103C7000E3E784F841700020BAE7704710B50448C4
:103C8000FFF786F9BDE8104000210148FFF734BB7B
:103C9000DC0000202DE9F041FEF7B6FC204C064682
:103CA0000020207001221F4F150229463846FEF7DA
:103CB000A6FC0A2002F0CCF8002229463846FEF77E
:103CC0009EFC194D05E000BFFEF79EFC801B64289A
:103CD00022D820780228F7D1A0686168884203D3EF
:103CE000A0686168401A06E060684FF6FF71081A24
:103CF000A1680844401CFCF763FE00220B4BFCF754
:103D000079FD00220A4BFCF7E7FDFCF7C9FEA0F1A4
:103D10008041B1F1727F00D92846BDE8F0810000F2
:103D200028000020000C0140000080BF009AE04005
:103D300080843E41FEE7000070B501220E4D9403E1
:103D400021462846FEF75BFC0122560331462846F1
:103D5000FEF755FC00F048F8002221462846FEF701
:103D60004EFC00F041F8002231462846FEF747FCA1
:103D7000BDE8704000F038B80010014070B50B4D40
:103D80004FF48044002221462846FEF738FC0122E9
:103D900051032846FEF733FC00F026F8214628465A
:103DA000BDE870400122FEF72ABC0000001001406F
:103DB00070B50C4C012291032046FEF720FC00F068
:103DC00013F80122550329462046FEF718FC00F09F
:103DD0000BF8002229462046FEF711FCBDE8704092
:103DE00000F002B8001001400320401EC0B2FCD217
:103DF000704700003EB500241148009401940294DD
:103E00000E498460016004730475012505614FF457
:103E100060214460C161FDF74BFF08B1FDF7C3FEAF
:103E20000920CDE90005694602940548FDF7BEFE6C
:103E3000002801D0FDF7B7FE3EBD00000024014080
:103E400064000020094808B5416941F00101416161
:103E50004069002200F00100009011460F20FEF79B
:103E60003FFCBDE808400F20FEF72CBC00100240CC
:103E70002DE9F04786B000263D480096019602964F
:103E80000396816941F010018161816901F010019F
:103E90000491816941F020018161816901F0200173
:103EA0000491816941F004018161816901F004019B
:103EB0000491816941F0080181618069DFF8B48073
:103EC00000F008004FF4C04404900122214640460F
:103ED000FEF795FBDFF8A0900122E0214846FEF7AF
:103EE0008EFB0122DFF894A0D70339465046FEF737
:103EF00086FB0022F9115046FEF781FB0094012455
:103F00000325694640460194CDE90245FEF782FA51
:103F100002200097CDE9016069464046FEF77AFA33
:103F2000E020CDE9000469464846CDE90245FEF7A8
:103F300071FA4FF4E04000901148CDE90104694660
:103F40005046FEF767FA4FF40140CDE90004694698
:103F50005046CDE90245FEF75DFA002211462820C1
:103F6000FEF7BEFB2820FEF7ADFB06B0BDE8F087EC
:103F7000001002400010014000080140000C014008
:103F80000000211010B596B000240F9410941194E5
:103F9000129413941C2108A81494FCF7F2F8202121
:103FA0006846FCF7EEF82948274901604721C0E937
:103FB000011440F2E731C0E903148021C0E9054152
:103FC000FEF768FF08B1FDF7EEFD4FF480500F904B
:103FD0000FA91E48FFF730F808B1FDF7E4FD1B48B4
:103FE000FFF721FB08B1FDF7DEFD139413A9174875
:103FF0001494FEF71BFF08B1FDF7D5FD6020CDE955
:1040000008040A940B940C940D94002208A90F48FC
:104010000E94FFF7A2FA08B1FDF7C5FD00944FF426
:104020000050CDE904400294019403946946074886
:104030000794FEF7D1FE08B1FDF7B5FD0348FFF781
:1040400065FA16B010BD0000002C0140940000205D
:1040500010B58AB00024224804940594069407946D
:10406000089409940094019402944FF080410394C1
:1040700001604721C0E901144FF6FF71C0E9031444
:1040800080218161FEF706FF08B1FDF78CFD4FF43A
:104090008050049004A91248FEF7CEFF08B1FDF746
:1040A00082FD0F48FFF7FAF808B1FDF77CFD089490
:1040B00008A90B480994FEF7B9FE08B1FDF773FD96
:1040C0000120CDE90040029400226946044803948F
:1040D000FFF752F8002801D0FDF765FD0AB010BDCA
:1040E000DC00002010B50E4C0C480C2120604FF471
:1040F000E13060600020A060E060C4E90401A061DC
:10410000E0612046FFF794FC08B1FDF74CFD206804
:10411000C16841F01001C16010BD000000380140CD
:10412000240100200C4810B50A4901604FF4E13128
:104130004160002181600C22C160C0E904128161EC
:10414000C161FFF775FC002803D0BDE81040FDF702
:104150002ABD10BD004400406C010020FEE7FEE7D0
:1041600030B40021084B0A465FF0000003EBC004A6
:10417000401CC0B262548028F8D3491CC9B2082937
:10418000F2D330BC00F08EB8F801002030B5CC0876
:1041900001F0070301259D40EBB2064D05EBC0057C
:1041A000C808285C0AB1184302E063EA0000C04373
:1041B000285530BDF801002010B50021AE2000F0D8
:1041C0006CF90021084600F068F90021102000F089
:1041D00064F90021402000F060F90021812000F006
:1041E0005CF90021CF2000F058F90021A12000F057
:1041F00054F90021C82000F050F90021A62000F059
:104200004CF90021A82000F048F900213F2000F0DF
:1042100044F90021D32000F040F90021084600F0C5
:104220003CF90021D52000F038F90021802000F071
:1042300034F90021D92000F030F90021F12000F0FC
:104240002CF90021DA2000F028F90021122000F0DA
:1042500024F90021DB2000F020F90021302000F0BB
:104260001CF90021202000F018F90021022000F0A4
:1042700014F900218D2000F010F90021142000F025
:104280000CF9FFF76DFF0021BDE81040AF2000F0F2
:1042900004B90246012000E05043491EC9B2FBD2D6
:1042A0007047000070B5184E002400BF04F1B00044
:1042B000C0B2002100F0F1F80021084600F0EDF84E
:1042C0000021102000F0E9F8FFF736FD782000F01B
:1042D00001F9FFF76DFD402000F0FCF8FFF768FDE5
:1042E0005FF0000506EBC500005D00F0F3F8FFF796
:1042F0005FFD6D1CEDB2802DF4D3FFF73FFD641C14
:10430000E4B2082CD2D370BDF80100202DE9FC4F97
:104310001C460E4682468B460190082B0DD0600746
:1043200000D0012000EBD40061084843C0B28146B0
:10433000203AD0B2009000204BE00620F7E7082C8E
:1043400013D00C2C18D0102C1BD0182C44D1009852
:10435000234900EBC00000BF01EB8001002711F8EA
:104360000850E80712D00B9A13E000981D4900EBA3
:10437000400001EB4001F1E700981B4900EB4000D1
:10438000EAE71A49009801EB0011E7E70B9828B318
:10439000002231465046FFF7F9FE761C7F1C6D085F
:1043A000FFB2F6B2082FDCD30AF1010000F0FF0AD9
:1043B000082C0AD00199AAEB0100B0EB540F04D1EC
:1043C0000BF108008A4600F0FF0B08F101005E4681
:1043D000C0B280464845B2D3BDE8FC8F0122D8E781
:1043E000087700087C6A0008A46C000818710008AF
:1043F0002DE9F84F0025DDE90A691F4692468B46F4
:104400008046082E00D1022500241CE0381B401EE7
:10441000C1B20A20FFF73DFFBAFBF0F00A21B0FB62
:10442000F1F201FB1200CDF8009080B13030C2B241
:1044300005EB560101FB0480C0B233465946FFF735
:1044400065FF641CE4B2BC42E0D3BDE8F88F05EB25
:10445000560101FB0480C0B233463022EEE72DE95D
:10446000F8411E46154688460446079F0BE0334632
:10447000414620460097FFF749FF082E0AD004EB7B
:104480005600C4B26D1C2A78A2F120005E28EED935
:10449000BDE8F881A41DE4B2F4E770B50C4605460A
:1044A000FFF74AFC782000F015F8FFF781FC0CB10B
:1044B000402000E0002000F00DF8FFF779FC2846CE
:1044C00000F008F8FFF774FCBDE87040FFF756BC39
:1044D000704770472DE9F041124F002405464FF414
:1044E00080487E14280601D5012200E000224146C2
:1044F0003846FEF784F8FFF777FC0122314638464C
:10450000FEF77DF8FFF770FC002231463846FEF7D3
:1045100076F86806641C050EE4B2082CE2D3BDE808
:10452000F081000000100140FEF774B830B593B080
:1045300028216846FBF725FE14210AA8FBF721FE77
:10454000002501200F9510951195010412958DE815
:10455000230004904FF4E010CDE9081002240794E2
:104560006846FEF793FA08B172B6FEE70AA90F2073
:1045700081E831004FF48060CDE90D0502210AA8E1
:10458000FEF7A8F908B172B6FEE74FF400401190AB
:104590000F940FA8FEF728F9002801D072B6FEE7A5
:1045A00013B030BD7047000010B51248FEF716FF7B
:1045B00011480188491C01800188B1F57A7F04D334
:1045C000002101800D49012008700D48018811B1BA
:1045D0000188491E01800B48018811B10188491EDC
:1045E000018009480188002902D00188491E018004
:1045F00010BD0000940000201600002014000020D0
:10460000080000200A0000200C0000200148FEF7EE
:10461000E5BE0000DC000020F0B50268194B1A4C22
:104620001A4D4FF08047984205D0B84203D0A042BF
:1046300001D0A84203D122F070064A683243984262
:1046400005D0B84203D0A04201D0A84203D122F441
:104650004074CA6822434C6922F0800222430260FF
:104660008A68C2620A688262984201D1096901635C
:10467000012141610169C90703D0016921F00101EC
:104680000161F0BD002C0140000400400008004022
:1046900010B501F01F030121046A99408C430462A4
:1046A000016A9A401143016210BD10B5846842EA64
:1046B000032224F47F440A432243826010BD8268AF
:1046C00022F070020A4342F0070181607047000047
:1046D00030B5036A026A22F001020262426884690C
:1046E00024F073050C682C4323F002058B682B43E0
:1046F0000A4DA8420BD123F00805CB6822F4407282
:104700002B434D6923F0040315438A692A43426011
:10471000846149684163036230BD0000002C0140A0
:1047200030B5026A036A23F01003036243688469A8
:104730000D6824F4E64444EA05248D6822F0200242
:1047400042EA05120B4DA8420ED1CD6822F080023C
:1047500042EA05124D6923F4406343EA85038D69FB
:1047600022F0400243EA8503436084614968816323
:10477000026230BD002C014030B5036A026A22F4A7
:10478000807202624268C46923F4007324F07305E6
:104790000C682C438D6843EA05230C4DA8420ED1CA
:1047A000CD6823F4006343EA05234D6922F44052A7
:1047B00042EA05128D6923F4806342EA05124260E1
:1047C000C4614968C163036230BD0000002C014030
:1047D00030B5046A026A22F4805202624268C369F8
:1047E0000D6823F4E64343EA05238D6824F400545E
:1047F00044EA0534064DA84204D14D6922F48042B2
:1048000042EA85124260C36149680164046230BDB6
:10481000002C014010B5036A046A24F0010404620C
:10482000846924F0F00444EA021423F00A020A43E3
:104830008461026210BD000070B5056A046A24F04C
:104840000104046284690F4EB04208D0B0F1804F79
:1048500005D00D4EB04202D00C4EB04203D124F030
:104860000304144301E044F001041A0724F0F004A7
:1048700044EA126225F00A0301F00A011943826139
:10488000016270BD002C014000040040000800409F
:1048900010B5036A046A24F010040462846923F0EA
:1048A000A00324F4704444EA023243EA0111826115
:1048B000016210BD30B5046A056A25F01005056275
:1048C000856925F4407545EA022222F470454FF6C9
:1048D000FF7202EA033224F0A0032A43A02404EA70
:1048E000011119438261016230BD00002DE9FF47CB
:1048F00002A8FCF7F3FB00252F464FF00109FFF754
:104900002FFC012400210823F8A208460094FFF799
:10491000A6FD0823F7A2194600200094FFF79FFD8B
:104920000823F6A2102100200094FFF798FD082329
:10493000F4A2182100200094FFF791FD0823F3A2B0
:10494000202100200094FFF78AFD0823F1A22821EE
:1049500000200094FFF783FD0823F0A230210020FF
:104960000094FFF77CFD0823EFA23821002000947B
:10497000FFF775FD0826CDE900649DF808200423A3
:104980000021282002F5FA62FFF732FDCDE900642C
:104990009DF80920022308213020FFF729FDCDE9E9
:1049A00000649DF80A20022310212820FFF720FD33
:1049B000CDE900649DF80C20022318212820FFF780
:1049C00017FDCDE900649DF80D2002232021382039
:1049D000FFF70EFDCDE900649DF80E20022328218B
:1049E0003820FFF705FDDFF84883CDE9006498F82B
:1049F0000520022330214820FFF7FAFC0823CDA22E
:104A000000216E200094FFF72AFDFFF74BFCB24611
:104A10000026BD4248D0082F11D2DFE807F0040974
:104A2000181D22272C310823C3A20021009403E083
:104A30000823C1A2194600946E20FFF710FD082D2F
:104A40002FD2DFE805F02227858A8F94999E0823CC
:104A5000B9A210210094EFE70823B7A2182100940F
:104A6000EAE70823B4A220210094E5E70823B2A2D4
:104A700028210094E0E70823AFA230210094DBE76F
:104A80000823ADA238210094D6E70823A9A200216B
:104A9000009403E00823A7A2194600946E20FFF7B4
:104AA000DEFC2F46FFF7FEFBCDE900A49DF80820B1
:104AB00004230021282002F5FA62FFF799FCCDE9D2
:104AC00000A49DF80920022308213020FFF790FC64
:104AD000CDE900A49DF80A20022310212820FFF729
:104AE00087FCCDE900A49DF80C2002231821282082
:104AF000FFF77EFCCDE900A49DF80D2002232021C4
:104B00003820FFF775FCCDE900A49DF80E200223A4
:104B100028213820FFF76CFCCDE900A498F8052087
:104B2000022330214820FFF763FCFFF7BBFB322054
:104B300001F081F998F80100002876D088F801602A
:104B4000082D72D2DFE805F022283450565C626AE4
:104B5000082378A210210094A0E7082375A2182149
:104B600000949BE7082373A22021009496E7082372
:104B700070A22821009491E708236EA230210094AE
:104B80008CE708236BA23821009487E79DF8080082
:104B9000401E8DF8080048E09DF80900401E10F006
:104BA000FF008DF8090040D10C208DF809003CE091
:104BB0009DF80A00401E10F0FF008DF80A0034D165
:104BC0009DF809001F21042808D0062806D00928CE
:104BD00004D00B2802D0022802D002E01E2100E0FF
:104BE0001C218DF80A1020E09DF80C00401E8DF865
:104BF0000C001AE09DF80D00401E8DF80D0014E029
:104C00009DF80E00401E8DF80E000EE098F805107D
:104C1000491E88F8051098F8050006E002A8FCF780
:104C200053FB4FF0000988F8046098F8020098B32D
:104C300088F80260082D2FD2DFE805F0040F1A373C
:104C4000424D808C9DF80800401CC0B28DF80800D1
:104C5000632821D98DF8086083E09DF80900401C85
:104C6000C0B28DF809000C287BD98DF8094078E096
:104C70009DF80A001F21401CC2B28DF80A209DF841
:104C80000900042809D0062807D0092805D00B28D8
:104C900003D0022803D003E006E01E2100E01C211F
:104CA0008A425ED98DF80A405BE09DF80C00401CFA
:104CB000C0B28DF80C00172853D98DF80C6050E065
:104CC0009DF80D00401CC0B28DF80D003B2848D95E
:104CD0008DF80D6045E09DF80E00401CC0B28DF8C7
:104CE0000E003B283DD98DF80E603AE0596561729F
:104CF0003A0000004D6F6E74683A000044617465BC
:104D00003A000000486F75723A0000004D696E75F8
:104D100074653A005365636F6E643A005468726557
:104D200073686F6C643A0000457869740000000095
:104D3000000000203E0000002000000098F8051050
:104D40004046491C88F8051098F805100A2908D92A
:104D5000467106E002A8FCF7B7FA4FF0000988F8A0
:104D6000046098F80310404629B1C6706D1CEDB27E
:104D7000072D00D90025B9F1000F7FF44AAEFFF7E7
:104D8000EFF9002108230CA208460094FFF767FB07
:104D900008230CA2194600200094FFF760FB0823AB
:104DA000AFF2A802102100200094FFF758FBFFF794
:104DB00079FABDE8FF87000044697374616E63652A
:104DC0003A00000054696D653A00000010B5406A71
:104DD0000021C185C184FEF7F3FC10BD70B5446AA3
:104DE0002068406994F84110C0F3C01000252129C3
:104DF00004D118B1E584204600F08EF8206840699F
:104E000094F84210C0F38010222904D118B1E5852E
:104E1000204600F05AF8606C40F0100060642046B4
:104E2000FEF7CEFC70BD10B50146406A09680968FE
:104E30004FF0000289062ED4C28501680C3151E87A
:104E4000003F23F4807341E80034002CF5D1016861
:104E5000143151E8003F23F0010341E80034002CF5
:104E6000F5D10168143151E8003F23F0400341E8D7
:104E70000034002CF5D1202180F84210016B01296B
:104E800009D101680C3151E8003F23F0100341E8DB
:104E90000034002CF5D14263016B012902D0FEF7EA
:104EA00085FE10BD818DFEF752FC10BD10B5406A25
:104EB00001214163016B012902D0FEF78DFE10BD77
:104EC000818D4908FEF743FC10BD01680C3151E8A3
:104ED000002F22F4907241E80023002BF5D10168E5
:104EE000143151E8002F22F0010241E80023002B89
:104EF000F5D1016B012909D101680C3151E8002F6E
:104F000022F0100241E80023002BF5D1202180F887
:104F1000421000210163704701680C3151E8002FF5
:104F200022F0C00241E80023002BF5D1202180F8B7
:104F30004110704708B590F84210222901D0022094
:104F400008BD82684FF480539A4201D1016921B1B2
:104F5000816A9A421BD04AB10AE00268816A5268AB
:104F6000C2F308020A80816A891C08E0026972B1F2
:104F70000268526802F07F020A70816A491C8162ED
:104F8000C18D491E0904090CC18503D01BE00268CC
:104F90005268F1E70168CA6822F02002CA6001681D
:104FA000CA6822F48072CA6001684A6922F001026C
:104FB0004A61202180F8421000214163026B012ADE
:104FC00003D0FEF7F3FD002008BD016301680C313A
:104FD00051E8002F22F0100241E80023002BF5D108
:104FE00001680A68D20602D50A6849680091818D75
:104FF000FEF7ADFBE7E7000070B504460068016905
:10500000E26821F44051114301612169A06808431D
:10501000616908432168CA6841F20C639A430243FC
:10502000CA6020684169A26921F44071114341615D
:105030001E492068884202D1FDF7F2FC01E0FDF72D
:10504000DFFC00EBC00101EB00126068642180000E
:10505000B2FBF0F3B3FBF1F36FF018067343B2FB4E
:10506000F0F5B2FBF0F605EB8305322303EB0515F3
:10507000B5FBF1F5B6FBF1F605F0F00505EB06150D
:10508000B2FBF0F6B2FBF0F0B0FBF1F06FF01802FB
:10509000504306EB800003EB0010B0FBF1F02168F9
:1050A00000F00F002844886070BD00000038014007
:1050B00038B581620446828500201346606422224E
:1050C00084F84220E56B1B4AAA62E56B1A4AEA6241
:1050D000E56B1A4A2A63E26B50630A462168E06B6B
:1050E000091DFDF7FFF820680168406800902069FD
:1050F00048B120680C3050E8001F41F4807140E84E
:105100000012002AF5D12068143050E8001F41F049
:10511000010140E80012002AF5D12068143050E85F
:10512000001F41F0400140E80012002AF5D10020A4
:1051300038BD0000274E0008AD4E0008DD4D0008C8
:105140002DE9F843984617460D460446089E24E08C
:10515000701C22D0FDF758FAA0EB0800B0421AD814
:10516000CEB12068C168490717D5802D15D0402DD4
:1051700013D00168C94309070FD4016800254068AE
:1051800000902046FFF7A1FE0820606484F840509C
:105190000120BDE8F8830320FBE72068006835EABA
:1051A000000004D00020B842D2D00020F1E7012056
:1051B000F9E7000038B5114C20680168C90617D519
:1051C00001680025406800902046FEF7C1FAE06BB8
:1051D00000684068C0F17F0080B27F2800D97F203E
:1051E0000749088007490D547F220448FEF7D0FC88
:1051F000BDE838400148FEF7E5BA00002401002070
:105200005000002078060020FEE700000FB4054B98
:1052100010B503A9044A029800F064F910BC5DF8C7
:1052200014FB0000855E0008540000200FB41CB57C
:105230000246002007AC00290BD0491ECDE9002111
:10524000054B6A462146069800F04CF9009A002169
:1052500011701CBC5DF814FB135C00080907090EF3
:10526000002804DB00F1E02080F80014704700F013
:105270000F0000F1E02080F8141D704700487047CF
:105280006000002030B528B1144C031F00202168B5
:105290000A4605E0084630BD9A4203D810465268D7
:1052A000002AF9D1002800D041680BD00468A3EB94
:1052B0000005A54204D11B681C440346046002E0BB
:1052C000436000E023603AB11C68D51AA54203D1BF
:1052D00015682C441C6052685A6030BD580000208C
:1052E0002DE9F04782460F4C10480D4E0E4F001B23
:1052F0004FF0000820F007054FF001090022114689
:10530000504600F009FE002802D1306810B100209C
:10531000BDE8F0873C60C4E90058C6F80090EDE7AE
:105320005C000020FC06002058000020F808002047
:1053300002E008C8121F08C1002AFAD1704770475E
:10534000002001E001C1121F002AFBD170470000BC
:105350002DE9FF5F82B00021DDE90430020DDDF8A8
:1053600040B0034318D044F61050A2F2FF3242433B
:105370001514119801281FD0A5EB0B00401C5FEA03
:10538000000A4FF000064E4FDFF83891B046504605
:1053900015D5CAF1000413E0119801244AA301288D
:1053A00001D16FEA0B010298119AC0E90031C0E9FE
:1053B000024206B0BDE8F09FCBF10000DFE70446F3
:1053C0000021404A491842EB0450CDE9001012E098
:1053D000E00707D032463B4640464946FBF70AFA0B
:1053E0008046894632463B4610461946FBF702FA8C
:1053F00006460F466410002CEAD1DDE90401DDE920
:105400000023BAF1000F06DAFBF7F4F942464B46E7
:10541000FBF7F0F905E0FBF75FFA42464B46FBF776
:105420005BFA04460E460022284BFBF721FB03D80B
:105430004FF0FF30014607E00022254B2046314661
:10544000FBF731F9FBF700FD102409E0002C0ADB23
:105450000A220023FBF760FB039B30321A55641EBF
:1054600050EA0102F2D1641C039AC4F111031444FE
:10547000119A012A03D0012208430DD10AE0084302
:1054800004D000204FF0110B119072E7A3EB0B0535
:105490006D1E0DE05B4504DD4FF0000205F10105D6
:1054A00004E003DA4FF00002A5F10105002AECD078
:1054B00002981199C0E90231C0E9004579E700007E
:1054C000000014400000F03F300000000000F043F6
:1054D0000000E03F30380A2801D201207047002048
:1054E000704700002DE9FF4F95B09B468946064660
:1054F00000250FE2252877D100242746F84A01210C
:10550000059400E0044316F8013F203B01FA03F044
:105510001042F7D130782A2811D06FF02F0330785D
:10552000A0F13002092A16D8059A44F0020402EBD1
:10553000820203EB42021044761C0590EFE759F813
:10554000042B0592002A03DA504244F400540590DB
:1055500044F00204761C30782E2816D116F8010F7C
:1055600044F004042A280DD06FF02F023078A0F107
:105570003003092B09D807EB870302EB4303C71855
:10558000761CF3E759F8047B761C30786C280FD032
:1055900006DC4C2817D068280DD06A2814D104E006
:1055A000742810D07A280FD10DE044F400140AE0DA
:1055B00044F4801401E044F440147278824202D131
:1055C00004F58014761C761C307866280BD013DC2A
:1055D000582877D009DC002875D04528F6D0462811
:1055E000F4D047281AD19DE118E0632835D064280B
:1055F00079D0652812D195E1702873D008DC67282E
:10560000F1D069286FD06E280DD06F2806D1B5E093
:1056100073282CD0752875D0782874D05A461799DD
:1056200090476D1C75E1C4F30250022809D003288D
:105630000DD0D9F8001004280DD00D6009F104092F
:1056400067E1D9F80010EA17C1E90052F6E7D9F886
:1056500000100D80F2E70D70F0E719F8041B8DF8CB
:10566000001000208DF80100EA46012003E059F8FF
:1056700004AB4FF0FF3061074FF0000102D40DE0A2
:1056800008F101018846B9420FDA8045F8DB1AF8C3
:1056900008100029F4D108E008F101018846814290
:1056A000FADB1AF808100029F6D105985B46A0EB42
:1056B000080721463846179A00F094FA284400EB70
:1056C000080507E04DE029E10DE01AF8010B5A4604
:1056D00017999047B8F10108F7D25B462146384642
:1056E000179A13E142E00A220092C4F302524FF0EB
:1056F000000A022A08D059F804CB032A4FEAEC71B9
:105700000AD00DE029E02AE009F1070121F00702A3
:10571000F2E802C1914609E00FFA8CFC4FEAEC7105
:10572000042A03D14FFA8CFC4FEAEC71002907DA06
:105730000A460021DCF1000C61EB02012D2202E09F
:10574000220504D52B228DF80420012203E0E20774
:1057500001D02022F7E7904659E00A2102E010220A
:105760000DE010214FF0000A00910BE010224FF0E5
:10577000000A44F004040827009203E008224FF0D6
:10578000000A0092C4F30252022A05D059F804CB51
:105790000021032A08D009E009F1070121F00702DE
:1057A000F2E802C1914605E01FFA8CFC042A01D1FF
:1057B0000CF0FF0C4FF00008220728D5702806D007
:1057C000009B83F0100353EA0A0305D00EE0402249
:1057D0008DF80420012208E05CEA010206D03022A4
:1057E0008DF804208DF8050002229046009B83F07E
:1057F000080353EA0A030AD15CEA010201D16207F5
:1058000005D530228DF804204FF001087F1E58285E
:1058100004D034A003900EA802900DE036A0F9E762
:1058200053466046009AFBF777F984460398825CFA
:105830000298401E029002705CEA0100F0D10298CA
:1058400006A9081A00F1200A600702D524F4803462
:1058500000E00127574502DDA7EB0A0000E0002029
:1058600000EB0A01009005984144401A0590E003BE
:1058700006D45B462146179A059800F0B3F9054413
:10588000002706E001A85A46C05D179990476D1C95
:105890007F1C4745F6DBE0030CD55B462146179A93
:1058A000059800F09FF9054404E030205A46179906
:1058B00090476D1C0099481E00900029F5DC08E017
:1058C000029802995A460078491C0291179990470C
:1058D0006D1CBAF10001AAF1010AF1DC65E10000DA
:1058E00009280100303132333435363738396162B6
:1058F000636465660000000030313233343536377A
:1059000038394142434445460000000000F058F950
:105910000544761C307800287FF4ECAD19B0284699
:10592000BDE8F08F620700D4062709F1070222F0D4
:10593000070CFCE80223E14603F000485FEA080C8C
:1059400002D00FF2702C0DE05FEA045C02D50FF27A
:10595000682C07E05FEAC47C02D00FF2602C01E003
:10596000AFF2700C4FF0FF3823F00043CDF850C079
:1059700065280CD006DC452809D046281DD04728CC
:105980003DD13DE0662818D067287ED138E000215F
:10599000112F01DB112000E0781CCDE9000106A9E0
:1059A0000EA8FFF7D5FCDDE90F010E9A0391002147
:1059B000009207F1010A04914DE04FF0004000977A
:1059C000CDE9011006A90EA8FFF7C2FCDDE90F0220
:1059D00003920E9B11990022DDF80CA00093049213
:1059E00011B9791C00EB010AB7EB0A0004D4C0F12D
:1059F000FF3007F1010A0490AAEB0700019044E090
:105A0000012F00DA01270021112F01DD112000E014
:105A10003846CDE9000106A90EA8FFF799FCDDE99B
:105A20000F010E9A0391002104910092BA462107BA
:105A30000CD40399514500DA8A46BAF1010F05DD0D
:105A4000009AAAF10101515C302908D0B84202DA6B
:105A500010F1040F06DA0121CDE9011015E0AAF1D9
:105A60000101E9E7002805DC049901440491AAEB4F
:105A7000000102E0411C514500DD8A460499401AAC
:105A8000401C01904FF000400290200704D4019880
:105A9000504501DBCDF8048000208DF84F000298BE
:105AA0000DF14F07B0F1004F25D02B200E9002983A
:105AB0004FF0020800280CDA404202902D200E9090
:105AC00007E00A210298FBF711F83031029007F83D
:105AD000011DB8F10001A8F10108F2DC02980028CC
